{
	"contracts/3.sol": {
		"Q3": {
			"abi": [
				{
					"inputs": [
						{
							"internalType": "uint256",
							"name": "a",
							"type": "uint256"
						},
						{
							"internalType": "uint256",
							"name": "b",
							"type": "uint256"
						},
						{
							"internalType": "uint256",
							"name": "c",
							"type": "uint256"
						}
					],
					"name": "avg",
					"outputs": [
						{
							"internalType": "uint256",
							"name": "",
							"type": "uint256"
						}
					],
					"stateMutability": "pure",
					"type": "function"
				}
			],
			"devdoc": {
				"kind": "dev",
				"methods": {},
				"version": 1
			},
			"evm": {
				"assembly": "    /* \"contracts/3.sol\":115:232  contract Q3{\r... */\n  mstore(0x40, 0x80)\n  callvalue\n  dup1\n  iszero\n  tag_1\n  jumpi\n  0x00\n  dup1\n  revert\ntag_1:\n  pop\n  dataSize(sub_0)\n  dup1\n  dataOffset(sub_0)\n  0x00\n  codecopy\n  0x00\n  return\nstop\n\nsub_0: assembly {\n        /* \"contracts/3.sol\":115:232  contract Q3{\r... */\n      mstore(0x40, 0x80)\n      callvalue\n      dup1\n      iszero\n      tag_1\n      jumpi\n      0x00\n      dup1\n      revert\n    tag_1:\n      pop\n      jumpi(tag_2, lt(calldatasize, 0x04))\n      shr(0xe0, calldataload(0x00))\n      dup1\n      0x92cc2841\n      eq\n      tag_3\n      jumpi\n    tag_2:\n      0x00\n      dup1\n      revert\n        /* \"contracts/3.sol\":133:229  function avg(uint a, uint b, uint c)public pure returns(uint){\r... */\n    tag_3:\n      tag_4\n      0x04\n      dup1\n      calldatasize\n      sub\n      dup2\n      add\n      swap1\n      tag_5\n      swap2\n      swap1\n      tag_6\n      jump\t// in\n    tag_5:\n      tag_7\n      jump\t// in\n    tag_4:\n      mload(0x40)\n      tag_8\n      swap2\n      swap1\n      tag_9\n      jump\t// in\n    tag_8:\n      mload(0x40)\n      dup1\n      swap2\n      sub\n      swap1\n      return\n    tag_7:\n        /* \"contracts/3.sol\":189:193  uint */\n      0x00\n        /* \"contracts/3.sol\":220:221  3 */\n      0x03\n        /* \"contracts/3.sol\":217:218  c */\n      dup3\n        /* \"contracts/3.sol\":215:216  b */\n      dup5\n        /* \"contracts/3.sol\":213:214  a */\n      dup7\n        /* \"contracts/3.sol\":213:216  a+b */\n      tag_11\n      swap2\n      swap1\n      tag_12\n      jump\t// in\n    tag_11:\n        /* \"contracts/3.sol\":213:218  a+b+c */\n      tag_13\n      swap2\n      swap1\n      tag_12\n      jump\t// in\n    tag_13:\n        /* \"contracts/3.sol\":212:221  (a+b+c)/3 */\n      tag_14\n      swap2\n      swap1\n      tag_15\n      jump\t// in\n    tag_14:\n        /* \"contracts/3.sol\":205:221  return (a+b+c)/3 */\n      swap1\n      pop\n        /* \"contracts/3.sol\":133:229  function avg(uint a, uint b, uint c)public pure returns(uint){\r... */\n      swap4\n      swap3\n      pop\n      pop\n      pop\n      jump\t// out\n        /* \"#utility.yul\":7:146   */\n    tag_17:\n        /* \"#utility.yul\":53:58   */\n      0x00\n        /* \"#utility.yul\":91:97   */\n      dup2\n        /* \"#utility.yul\":78:98   */\n      calldataload\n        /* \"#utility.yul\":69:98   */\n      swap1\n      pop\n        /* \"#utility.yul\":107:140   */\n      tag_19\n        /* \"#utility.yul\":134:139   */\n      dup2\n        /* \"#utility.yul\":107:140   */\n      tag_20\n      jump\t// in\n    tag_19:\n        /* \"#utility.yul\":7:146   */\n      swap3\n      swap2\n      pop\n      pop\n      jump\t// out\n        /* \"#utility.yul\":152:771   */\n    tag_6:\n        /* \"#utility.yul\":229:235   */\n      0x00\n        /* \"#utility.yul\":237:243   */\n      dup1\n        /* \"#utility.yul\":245:251   */\n      0x00\n        /* \"#utility.yul\":294:296   */\n      0x60\n        /* \"#utility.yul\":282:291   */\n      dup5\n        /* \"#utility.yul\":273:280   */\n      dup7\n        /* \"#utility.yul\":269:292   */\n      sub\n        /* \"#utility.yul\":265:297   */\n      slt\n        /* \"#utility.yul\":262:381   */\n      iszero\n      tag_22\n      jumpi\n        /* \"#utility.yul\":300:379   */\n      tag_23\n      tag_24\n      jump\t// in\n    tag_23:\n        /* \"#utility.yul\":262:381   */\n    tag_22:\n        /* \"#utility.yul\":420:421   */\n      0x00\n        /* \"#utility.yul\":445:498   */\n      tag_25\n        /* \"#utility.yul\":490:497   */\n      dup7\n        /* \"#utility.yul\":481:487   */\n      dup3\n        /* \"#utility.yul\":470:479   */\n      dup8\n        /* \"#utility.yul\":466:488   */\n      add\n        /* \"#utility.yul\":445:498   */\n      tag_17\n      jump\t// in\n    tag_25:\n        /* \"#utility.yul\":435:498   */\n      swap4\n      pop\n        /* \"#utility.yul\":391:508   */\n      pop\n        /* \"#utility.yul\":547:549   */\n      0x20\n        /* \"#utility.yul\":573:626   */\n      tag_26\n        /* \"#utility.yul\":618:625   */\n      dup7\n        /* \"#utility.yul\":609:615   */\n      dup3\n        /* \"#utility.yul\":598:607   */\n      dup8\n        /* \"#utility.yul\":594:616   */\n      add\n        /* \"#utility.yul\":573:626   */\n      tag_17\n      jump\t// in\n    tag_26:\n        /* \"#utility.yul\":563:626   */\n      swap3\n      pop\n        /* \"#utility.yul\":518:636   */\n      pop\n        /* \"#utility.yul\":675:677   */\n      0x40\n        /* \"#utility.yul\":701:754   */\n      tag_27\n        /* \"#utility.yul\":746:753   */\n      dup7\n        /* \"#utility.yul\":737:743   */\n      dup3\n        /* \"#utility.yul\":726:735   */\n      dup8\n        /* \"#utility.yul\":722:744   */\n      add\n        /* \"#utility.yul\":701:754   */\n      tag_17\n      jump\t// in\n    tag_27:\n        /* \"#utility.yul\":691:754   */\n      swap2\n      pop\n        /* \"#utility.yul\":646:764   */\n      pop\n        /* \"#utility.yul\":152:771   */\n      swap3\n      pop\n      swap3\n      pop\n      swap3\n      jump\t// out\n        /* \"#utility.yul\":777:895   */\n    tag_28:\n        /* \"#utility.yul\":864:888   */\n      tag_30\n        /* \"#utility.yul\":882:887   */\n      dup2\n        /* \"#utility.yul\":864:888   */\n      tag_31\n      jump\t// in\n    tag_30:\n        /* \"#utility.yul\":859:862   */\n      dup3\n        /* \"#utility.yul\":852:889   */\n      mstore\n        /* \"#utility.yul\":777:895   */\n      pop\n      pop\n      jump\t// out\n        /* \"#utility.yul\":901:1123   */\n    tag_9:\n        /* \"#utility.yul\":994:998   */\n      0x00\n        /* \"#utility.yul\":1032:1034   */\n      0x20\n        /* \"#utility.yul\":1021:1030   */\n      dup3\n        /* \"#utility.yul\":1017:1035   */\n      add\n        /* \"#utility.yul\":1009:1035   */\n      swap1\n      pop\n        /* \"#utility.yul\":1045:1116   */\n      tag_33\n        /* \"#utility.yul\":1113:1114   */\n      0x00\n        /* \"#utility.yul\":1102:1111   */\n      dup4\n        /* \"#utility.yul\":1098:1115   */\n      add\n        /* \"#utility.yul\":1089:1095   */\n      dup5\n        /* \"#utility.yul\":1045:1116   */\n      tag_28\n      jump\t// in\n    tag_33:\n        /* \"#utility.yul\":901:1123   */\n      swap3\n      swap2\n      pop\n      pop\n      jump\t// out\n        /* \"#utility.yul\":1210:1515   */\n    tag_12:\n        /* \"#utility.yul\":1250:1253   */\n      0x00\n        /* \"#utility.yul\":1269:1289   */\n      tag_37\n        /* \"#utility.yul\":1287:1288   */\n      dup3\n        /* \"#utility.yul\":1269:1289   */\n      tag_31\n      jump\t// in\n    tag_37:\n        /* \"#utility.yul\":1264:1289   */\n      swap2\n      pop\n        /* \"#utility.yul\":1303:1323   */\n      tag_38\n        /* \"#utility.yul\":1321:1322   */\n      dup4\n        /* \"#utility.yul\":1303:1323   */\n      tag_31\n      jump\t// in\n    tag_38:\n        /* \"#utility.yul\":1298:1323   */\n      swap3\n      pop\n        /* \"#utility.yul\":1457:1458   */\n      dup3\n        /* \"#utility.yul\":1389:1455   */\n      0xffffffffffffffffffffffffffffffffffffffffffffffffffffffffffffffff\n        /* \"#utility.yul\":1385:1459   */\n      sub\n        /* \"#utility.yul\":1382:1383   */\n      dup3\n        /* \"#utility.yul\":1379:1460   */\n      gt\n        /* \"#utility.yul\":1376:1483   */\n      iszero\n      tag_39\n      jumpi\n        /* \"#utility.yul\":1463:1481   */\n      tag_40\n      tag_41\n      jump\t// in\n    tag_40:\n        /* \"#utility.yul\":1376:1483   */\n    tag_39:\n        /* \"#utility.yul\":1507:1508   */\n      dup3\n        /* \"#utility.yul\":1504:1505   */\n      dup3\n        /* \"#utility.yul\":1500:1509   */\n      add\n        /* \"#utility.yul\":1493:1509   */\n      swap1\n      pop\n        /* \"#utility.yul\":1210:1515   */\n      swap3\n      swap2\n      pop\n      pop\n      jump\t// out\n        /* \"#utility.yul\":1521:1706   */\n    tag_15:\n        /* \"#utility.yul\":1561:1562   */\n      0x00\n        /* \"#utility.yul\":1578:1598   */\n      tag_43\n        /* \"#utility.yul\":1596:1597   */\n      dup3\n        /* \"#utility.yul\":1578:1598   */\n      tag_31\n      jump\t// in\n    tag_43:\n        /* \"#utility.yul\":1573:1598   */\n      swap2\n      pop\n        /* \"#utility.yul\":1612:1632   */\n      tag_44\n        /* \"#utility.yul\":1630:1631   */\n      dup4\n        /* \"#utility.yul\":1612:1632   */\n      tag_31\n      jump\t// in\n    tag_44:\n        /* \"#utility.yul\":1607:1632   */\n      swap3\n      pop\n        /* \"#utility.yul\":1651:1652   */\n      dup3\n        /* \"#utility.yul\":1641:1676   */\n      tag_45\n      jumpi\n        /* \"#utility.yul\":1656:1674   */\n      tag_46\n      tag_47\n      jump\t// in\n    tag_46:\n        /* \"#utility.yul\":1641:1676   */\n    tag_45:\n        /* \"#utility.yul\":1698:1699   */\n      dup3\n        /* \"#utility.yul\":1695:1696   */\n      dup3\n        /* \"#utility.yul\":1691:1700   */\n      div\n        /* \"#utility.yul\":1686:1700   */\n      swap1\n      pop\n        /* \"#utility.yul\":1521:1706   */\n      swap3\n      swap2\n      pop\n      pop\n      jump\t// out\n        /* \"#utility.yul\":1712:1789   */\n    tag_31:\n        /* \"#utility.yul\":1749:1756   */\n      0x00\n        /* \"#utility.yul\":1778:1783   */\n      dup2\n        /* \"#utility.yul\":1767:1783   */\n      swap1\n      pop\n        /* \"#utility.yul\":1712:1789   */\n      swap2\n      swap1\n      pop\n      jump\t// out\n        /* \"#utility.yul\":1795:1975   */\n    tag_41:\n        /* \"#utility.yul\":1843:1920   */\n      0x4e487b7100000000000000000000000000000000000000000000000000000000\n        /* \"#utility.yul\":1840:1841   */\n      0x00\n        /* \"#utility.yul\":1833:1921   */\n      mstore\n        /* \"#utility.yul\":1940:1944   */\n      0x11\n        /* \"#utility.yul\":1937:1938   */\n      0x04\n        /* \"#utility.yul\":1930:1945   */\n      mstore\n        /* \"#utility.yul\":1964:1968   */\n      0x24\n        /* \"#utility.yul\":1961:1962   */\n      0x00\n        /* \"#utility.yul\":1954:1969   */\n      revert\n        /* \"#utility.yul\":1981:2161   */\n    tag_47:\n        /* \"#utility.yul\":2029:2106   */\n      0x4e487b7100000000000000000000000000000000000000000000000000000000\n        /* \"#utility.yul\":2026:2027   */\n      0x00\n        /* \"#utility.yul\":2019:2107   */\n      mstore\n        /* \"#utility.yul\":2126:2130   */\n      0x12\n        /* \"#utility.yul\":2123:2124   */\n      0x04\n        /* \"#utility.yul\":2116:2131   */\n      mstore\n        /* \"#utility.yul\":2150:2154   */\n      0x24\n        /* \"#utility.yul\":2147:2148   */\n      0x00\n        /* \"#utility.yul\":2140:2155   */\n      revert\n        /* \"#utility.yul\":2290:2407   */\n    tag_24:\n        /* \"#utility.yul\":2399:2400   */\n      0x00\n        /* \"#utility.yul\":2396:2397   */\n      dup1\n        /* \"#utility.yul\":2389:2401   */\n      revert\n        /* \"#utility.yul\":2413:2535   */\n    tag_20:\n        /* \"#utility.yul\":2486:2510   */\n      tag_55\n        /* \"#utility.yul\":2504:2509   */\n      dup2\n        /* \"#utility.yul\":2486:2510   */\n      tag_31\n      jump\t// in\n    tag_55:\n        /* \"#utility.yul\":2479:2484   */\n      dup2\n        /* \"#utility.yul\":2476:2511   */\n      eq\n        /* \"#utility.yul\":2466:2529   */\n      tag_56\n      jumpi\n        /* \"#utility.yul\":2525:2526   */\n      0x00\n        /* \"#utility.yul\":2522:2523   */\n      dup1\n        /* \"#utility.yul\":2515:2527   */\n      revert\n        /* \"#utility.yul\":2466:2529   */\n    tag_56:\n        /* \"#utility.yul\":2413:2535   */\n      pop\n      jump\t// out\n\n    auxdata: 0xa2646970667358221220d97a14b82e29c235a669282bc6d5f2a0a4c70bb91e273f27a81083ab4d11c9c864736f6c63430008070033\n}\n",
				"bytecode": {
					"linkReferences": {},
					"object": "608060405234801561001057600080fd5b50610261806100206000396000f3fe608060405234801561001057600080fd5b506004361061002b5760003560e01c806392cc284114610030575b600080fd5b61004a600480360381019061004591906100a3565b610060565b6040516100579190610105565b60405180910390f35b600060038284866100719190610120565b61007b9190610120565b6100859190610176565b90509392505050565b60008135905061009d81610214565b92915050565b6000806000606084860312156100bc576100bb61020f565b5b60006100ca8682870161008e565b93505060206100db8682870161008e565b92505060406100ec8682870161008e565b9150509250925092565b6100ff816101a7565b82525050565b600060208201905061011a60008301846100f6565b92915050565b600061012b826101a7565b9150610136836101a7565b9250827fffffffffffffffffffffffffffffffffffffffffffffffffffffffffffffffff0382111561016b5761016a6101b1565b5b828201905092915050565b6000610181826101a7565b915061018c836101a7565b92508261019c5761019b6101e0565b5b828204905092915050565b6000819050919050565b7f4e487b7100000000000000000000000000000000000000000000000000000000600052601160045260246000fd5b7f4e487b7100000000000000000000000000000000000000000000000000000000600052601260045260246000fd5b600080fd5b61021d816101a7565b811461022857600080fd5b5056fea2646970667358221220d97a14b82e29c235a669282bc6d5f2a0a4c70bb91e273f27a81083ab4d11c9c864736f6c63430008070033",
					"opcodes": "PUSH1 0x80 PUSH1 0x40 MSTORE CALLVALUE DUP1 ISZERO PUSH2 0x10 JUMPI PUSH1 0x0 DUP1 REVERT JUMPDEST POP PUSH2 0x261 DUP1 PUSH2 0x20 PUSH1 0x0 CODECOPY PUSH1 0x0 RETURN INVALID PUSH1 0x80 PUSH1 0x40 MSTORE CALLVALUE DUP1 ISZERO PUSH2 0x10 JUMPI PUSH1 0x0 DUP1 REVERT JUMPDEST POP PUSH1 0x4 CALLDATASIZE LT PUSH2 0x2B JUMPI PUSH1 0x0 CALLDATALOAD PUSH1 0xE0 SHR DUP1 PUSH4 0x92CC2841 EQ PUSH2 0x30 JUMPI JUMPDEST PUSH1 0x0 DUP1 REVERT JUMPDEST PUSH2 0x4A PUSH1 0x4 DUP1 CALLDATASIZE SUB DUP2 ADD SWAP1 PUSH2 0x45 SWAP2 SWAP1 PUSH2 0xA3 JUMP JUMPDEST PUSH2 0x60 JUMP JUMPDEST PUSH1 0x40 MLOAD PUSH2 0x57 SWAP2 SWAP1 PUSH2 0x105 JUMP JUMPDEST PUSH1 0x40 MLOAD DUP1 SWAP2 SUB SWAP1 RETURN JUMPDEST PUSH1 0x0 PUSH1 0x3 DUP3 DUP5 DUP7 PUSH2 0x71 SWAP2 SWAP1 PUSH2 0x120 JUMP JUMPDEST PUSH2 0x7B SWAP2 SWAP1 PUSH2 0x120 JUMP JUMPDEST PUSH2 0x85 SWAP2 SWAP1 PUSH2 0x176 JUMP JUMPDEST SWAP1 POP SWAP4 SWAP3 POP POP POP JUMP JUMPDEST PUSH1 0x0 DUP2 CALLDATALOAD SWAP1 POP PUSH2 0x9D DUP2 PUSH2 0x214 JUMP JUMPDEST SWAP3 SWAP2 POP POP JUMP JUMPDEST PUSH1 0x0 DUP1 PUSH1 0x0 PUSH1 0x60 DUP5 DUP7 SUB SLT ISZERO PUSH2 0xBC JUMPI PUSH2 0xBB PUSH2 0x20F JUMP JUMPDEST JUMPDEST PUSH1 0x0 PUSH2 0xCA DUP7 DUP3 DUP8 ADD PUSH2 0x8E JUMP JUMPDEST SWAP4 POP POP PUSH1 0x20 PUSH2 0xDB DUP7 DUP3 DUP8 ADD PUSH2 0x8E JUMP JUMPDEST SWAP3 POP POP PUSH1 0x40 PUSH2 0xEC DUP7 DUP3 DUP8 ADD PUSH2 0x8E JUMP JUMPDEST SWAP2 POP POP SWAP3 POP SWAP3 POP SWAP3 JUMP JUMPDEST PUSH2 0xFF DUP2 PUSH2 0x1A7 JUMP JUMPDEST DUP3 MSTORE POP POP JUMP JUMPDEST PUSH1 0x0 PUSH1 0x20 DUP3 ADD SWAP1 POP PUSH2 0x11A PUSH1 0x0 DUP4 ADD DUP5 PUSH2 0xF6 JUMP JUMPDEST SWAP3 SWAP2 POP POP JUMP JUMPDEST PUSH1 0x0 PUSH2 0x12B DUP3 PUSH2 0x1A7 JUMP JUMPDEST SWAP2 POP PUSH2 0x136 DUP4 PUSH2 0x1A7 JUMP JUMPDEST SWAP3 POP DUP3 PUSH32 0xFFFFFFFFFFFFFFFFFFFFFFFFFFFFFFFFFFFFFFFFFFFFFFFFFFFFFFFFFFFFFFFF SUB DUP3 GT ISZERO PUSH2 0x16B JUMPI PUSH2 0x16A PUSH2 0x1B1 JUMP JUMPDEST JUMPDEST DUP3 DUP3 ADD SWAP1 POP SWAP3 SWAP2 POP POP JUMP JUMPDEST PUSH1 0x0 PUSH2 0x181 DUP3 PUSH2 0x1A7 JUMP JUMPDEST SWAP2 POP PUSH2 0x18C DUP4 PUSH2 0x1A7 JUMP JUMPDEST SWAP3 POP DUP3 PUSH2 0x19C JUMPI PUSH2 0x19B PUSH2 0x1E0 JUMP JUMPDEST JUMPDEST DUP3 DUP3 DIV SWAP1 POP SWAP3 SWAP2 POP POP JUMP JUMPDEST PUSH1 0x0 DUP2 SWAP1 POP SWAP2 SWAP1 POP JUMP JUMPDEST PUSH32 0x4E487B7100000000000000000000000000000000000000000000000000000000 PUSH1 0x0 MSTORE PUSH1 0x11 PUSH1 0x4 MSTORE PUSH1 0x24 PUSH1 0x0 REVERT JUMPDEST PUSH32 0x4E487B7100000000000000000000000000000000000000000000000000000000 PUSH1 0x0 MSTORE PUSH1 0x12 PUSH1 0x4 MSTORE PUSH1 0x24 PUSH1 0x0 REVERT JUMPDEST PUSH1 0x0 DUP1 REVERT JUMPDEST PUSH2 0x21D DUP2 PUSH2 0x1A7 JUMP JUMPDEST DUP2 EQ PUSH2 0x228 JUMPI PUSH1 0x0 DUP1 REVERT JUMPDEST POP JUMP INVALID LOG2 PUSH5 0x6970667358 0x22 SLT KECCAK256 0xD9 PUSH27 0x14B82E29C235A669282BC6D5F2A0A4C70BB91E273F27A81083AB4D GT 0xC9 0xC8 PUSH5 0x736F6C6343 STOP ADDMOD SMOD STOP CALLER "
				},
				"gasEstimates": {
					"creation": {
						"codeDepositCost": "121800",
						"executionCost": "171",
						"totalCost": "121971"
					},
					"external": {
						"avg(uint256,uint256,uint256)": "infinite"
					}
				},
				"methodIdentifiers": {
					"avg(uint256,uint256,uint256)": "92cc2841"
				}
			},
			"storageLayout": {
				"storage": [],
				"types": null
			},
			"userdoc": {
				"kind": "user",
				"methods": {},
				"version": 1
			}
		}
	}
}