{
	"contracts/practice.sol": {
		"Arr": {
			"abi": [
				{
					"inputs": [
						{
							"internalType": "uint256",
							"name": "",
							"type": "uint256"
						}
					],
					"name": "arr",
					"outputs": [
						{
							"internalType": "uint256",
							"name": "",
							"type": "uint256"
						}
					],
					"stateMutability": "view",
					"type": "function"
				},
				{
					"inputs": [],
					"name": "avg",
					"outputs": [
						{
							"internalType": "uint256",
							"name": "",
							"type": "uint256"
						}
					],
					"stateMutability": "view",
					"type": "function"
				},
				{
					"inputs": [
						{
							"internalType": "int256[5]",
							"name": "ar",
							"type": "int256[5]"
						}
					],
					"name": "findLargest_4",
					"outputs": [
						{
							"internalType": "int256",
							"name": "",
							"type": "int256"
						}
					],
					"stateMutability": "pure",
					"type": "function"
				},
				{
					"inputs": [],
					"name": "largest",
					"outputs": [
						{
							"internalType": "uint256",
							"name": "",
							"type": "uint256"
						}
					],
					"stateMutability": "view",
					"type": "function"
				},
				{
					"inputs": [],
					"name": "sum",
					"outputs": [
						{
							"internalType": "uint256",
							"name": "",
							"type": "uint256"
						}
					],
					"stateMutability": "view",
					"type": "function"
				}
			],
			"devdoc": {
				"kind": "dev",
				"methods": {},
				"version": 1
			},
			"evm": {
				"assembly": "    /* \"contracts/practice.sol\":100:990  contract Arr{\r... */\n  mstore(0x40, 0x80)\n    /* \"contracts/practice.sol\":119:160  uint[5] public arr = [10, 20, 30, 40, 50] */\n  mload(0x40)\n  dup1\n  0xa0\n  add\n  0x40\n  mstore\n  dup1\n    /* \"contracts/practice.sol\":141:143  10 */\n  0x0a\n    /* \"contracts/practice.sol\":119:160  uint[5] public arr = [10, 20, 30, 40, 50] */\n  0xff\n  and\n  dup2\n  mstore\n  0x20\n  add\n    /* \"contracts/practice.sol\":145:147  20 */\n  0x14\n    /* \"contracts/practice.sol\":119:160  uint[5] public arr = [10, 20, 30, 40, 50] */\n  0xff\n  and\n  dup2\n  mstore\n  0x20\n  add\n    /* \"contracts/practice.sol\":149:151  30 */\n  0x1e\n    /* \"contracts/practice.sol\":119:160  uint[5] public arr = [10, 20, 30, 40, 50] */\n  0xff\n  and\n  dup2\n  mstore\n  0x20\n  add\n    /* \"contracts/practice.sol\":153:155  40 */\n  0x28\n    /* \"contracts/practice.sol\":119:160  uint[5] public arr = [10, 20, 30, 40, 50] */\n  0xff\n  and\n  dup2\n  mstore\n  0x20\n  add\n    /* \"contracts/practice.sol\":157:159  50 */\n  0x32\n    /* \"contracts/practice.sol\":119:160  uint[5] public arr = [10, 20, 30, 40, 50] */\n  0xff\n  and\n  dup2\n  mstore\n  pop\n  0x00\n  swap1\n  0x05\n  tag_1\n  swap3\n  swap2\n  swap1\n  tag_2\n  jump\t// in\ntag_1:\n  pop\n    /* \"contracts/practice.sol\":100:990  contract Arr{\r... */\n  callvalue\n  dup1\n  iszero\n  tag_3\n  jumpi\n  0x00\n  dup1\n  revert\ntag_3:\n  pop\n  jump(tag_4)\ntag_2:\n  dup3\n  0x05\n  dup2\n  add\n  swap3\n  dup3\n  iszero\n  tag_5\n  jumpi\n  swap2\n  0x20\n  mul\n  dup3\n  add\ntag_6:\n  dup3\n  dup2\n  gt\n  iszero\n  tag_7\n  jumpi\n  dup3\n  mload\n  dup3\n  swap1\n  0xff\n  and\n  swap1\n  sstore\n  swap2\n  0x20\n  add\n  swap2\n  swap1\n  0x01\n  add\n  swap1\n  jump(tag_6)\ntag_7:\ntag_5:\n  pop\n  swap1\n  pop\n  tag_8\n  swap2\n  swap1\n  tag_9\n  jump\t// in\ntag_8:\n  pop\n  swap1\n  jump\t// out\ntag_9:\ntag_10:\n  dup1\n  dup3\n  gt\n  iszero\n  tag_11\n  jumpi\n  0x00\n  dup2\n  0x00\n  swap1\n  sstore\n  pop\n  0x01\n  add\n  jump(tag_10)\ntag_11:\n  pop\n  swap1\n  jump\t// out\ntag_4:\n  dataSize(sub_0)\n  dup1\n  dataOffset(sub_0)\n  0x00\n  codecopy\n  0x00\n  return\nstop\n\nsub_0: assembly {\n        /* \"contracts/practice.sol\":100:990  contract Arr{\r... */\n      mstore(0x40, 0x80)\n      callvalue\n      dup1\n      iszero\n      tag_1\n      jumpi\n      0x00\n      dup1\n      revert\n    tag_1:\n      pop\n      jumpi(tag_2, lt(calldatasize, 0x04))\n      shr(0xe0, calldataload(0x00))\n      dup1\n      0x0674253a\n      eq\n      tag_3\n      jumpi\n      dup1\n      0x31eff40b\n      eq\n      tag_4\n      jumpi\n      dup1\n      0x71e5ee5f\n      eq\n      tag_5\n      jumpi\n      dup1\n      0x80bc64fc\n      eq\n      tag_6\n      jumpi\n      dup1\n      0x853255cc\n      eq\n      tag_7\n      jumpi\n    tag_2:\n      0x00\n      dup1\n      revert\n        /* \"contracts/practice.sol\":714:985  function findLargest_4(int[5] memory ar)public pure returns(int) {\r... */\n    tag_3:\n      tag_8\n      0x04\n      dup1\n      calldatasize\n      sub\n      dup2\n      add\n      swap1\n      tag_9\n      swap2\n      swap1\n      tag_10\n      jump\t// in\n    tag_9:\n      tag_11\n      jump\t// in\n    tag_8:\n      mload(0x40)\n      tag_12\n      swap2\n      swap1\n      tag_13\n      jump\t// in\n    tag_12:\n      mload(0x40)\n      dup1\n      swap2\n      sub\n      swap1\n      return\n        /* \"contracts/practice.sol\":338:484  function avg()public view returns(uint){\r... */\n    tag_4:\n      tag_14\n      tag_15\n      jump\t// in\n    tag_14:\n      mload(0x40)\n      tag_16\n      swap2\n      swap1\n      tag_17\n      jump\t// in\n    tag_16:\n      mload(0x40)\n      dup1\n      swap2\n      sub\n      swap1\n      return\n        /* \"contracts/practice.sol\":119:160  uint[5] public arr = [10, 20, 30, 40, 50] */\n    tag_5:\n      tag_18\n      0x04\n      dup1\n      calldatasize\n      sub\n      dup2\n      add\n      swap1\n      tag_19\n      swap2\n      swap1\n      tag_20\n      jump\t// in\n    tag_19:\n      tag_21\n      jump\t// in\n    tag_18:\n      mload(0x40)\n      tag_22\n      swap2\n      swap1\n      tag_17\n      jump\t// in\n    tag_22:\n      mload(0x40)\n      dup1\n      swap2\n      sub\n      swap1\n      return\n        /* \"contracts/practice.sol\":490:708  function largest()public view returns(uint){\r... */\n    tag_6:\n      tag_23\n      tag_24\n      jump\t// in\n    tag_23:\n      mload(0x40)\n      tag_25\n      swap2\n      swap1\n      tag_17\n      jump\t// in\n    tag_25:\n      mload(0x40)\n      dup1\n      swap2\n      sub\n      swap1\n      return\n        /* \"contracts/practice.sol\":169:332  function sum()public view returns(uint){\r... */\n    tag_7:\n      tag_26\n      tag_27\n      jump\t// in\n    tag_26:\n      mload(0x40)\n      tag_28\n      swap2\n      swap1\n      tag_17\n      jump\t// in\n    tag_28:\n      mload(0x40)\n      dup1\n      swap2\n      sub\n      swap1\n      return\n        /* \"contracts/practice.sol\":714:985  function findLargest_4(int[5] memory ar)public pure returns(int) {\r... */\n    tag_11:\n        /* \"contracts/practice.sol\":774:777  int */\n      0x00\n        /* \"contracts/practice.sol\":790:799  uint size */\n      dup1\n        /* \"contracts/practice.sol\":802:811  ar.length */\n      0x05\n        /* \"contracts/practice.sol\":790:811  uint size = ar.length */\n      swap1\n      pop\n        /* \"contracts/practice.sol\":822:829  int lar */\n      0x00\n        /* \"contracts/practice.sol\":844:850  uint i */\n      dup1\n        /* \"contracts/practice.sol\":851:852  0 */\n      0x00\n        /* \"contracts/practice.sol\":844:852  uint i=0 */\n      swap1\n      pop\n        /* \"contracts/practice.sol\":840:957  for(uint i=0; i < size; i++) {\r... */\n    tag_30:\n        /* \"contracts/practice.sol\":858:862  size */\n      dup3\n        /* \"contracts/practice.sol\":854:855  i */\n      dup2\n        /* \"contracts/practice.sol\":854:862  i < size */\n      lt\n        /* \"contracts/practice.sol\":840:957  for(uint i=0; i < size; i++) {\r... */\n      iszero\n      tag_31\n      jumpi\n        /* \"contracts/practice.sol\":895:898  lar */\n      dup2\n        /* \"contracts/practice.sol\":887:889  ar */\n      dup6\n        /* \"contracts/practice.sol\":890:891  i */\n      dup3\n        /* \"contracts/practice.sol\":887:892  ar[i] */\n      0x05\n      dup2\n      lt\n      tag_33\n      jumpi\n      tag_34\n      tag_35\n      jump\t// in\n    tag_34:\n    tag_33:\n      0x20\n      mul\n      add\n      mload\n        /* \"contracts/practice.sol\":887:898  ar[i] > lar */\n      sgt\n        /* \"contracts/practice.sol\":884:946  if(ar[i] > lar) {\r... */\n      iszero\n      tag_36\n      jumpi\n        /* \"contracts/practice.sol\":925:927  ar */\n      dup5\n        /* \"contracts/practice.sol\":928:929  i */\n      dup2\n        /* \"contracts/practice.sol\":925:930  ar[i] */\n      0x05\n      dup2\n      lt\n      tag_37\n      jumpi\n      tag_38\n      tag_35\n      jump\t// in\n    tag_38:\n    tag_37:\n      0x20\n      mul\n      add\n      mload\n        /* \"contracts/practice.sol\":919:930  lar = ar[i] */\n      swap2\n      pop\n        /* \"contracts/practice.sol\":884:946  if(ar[i] > lar) {\r... */\n    tag_36:\n        /* \"contracts/practice.sol\":864:867  i++ */\n      dup1\n      dup1\n      tag_39\n      swap1\n      tag_40\n      jump\t// in\n    tag_39:\n      swap2\n      pop\n      pop\n        /* \"contracts/practice.sol\":840:957  for(uint i=0; i < size; i++) {\r... */\n      jump(tag_30)\n    tag_31:\n      pop\n        /* \"contracts/practice.sol\":974:977  lar */\n      dup1\n        /* \"contracts/practice.sol\":967:977  return lar */\n      swap3\n      pop\n      pop\n      pop\n        /* \"contracts/practice.sol\":714:985  function findLargest_4(int[5] memory ar)public pure returns(int) {\r... */\n      swap2\n      swap1\n      pop\n      jump\t// out\n        /* \"contracts/practice.sol\":338:484  function avg()public view returns(uint){\r... */\n    tag_15:\n        /* \"contracts/practice.sol\":372:376  uint */\n      0x00\n        /* \"contracts/practice.sol\":388:400  uint average */\n      dup1\n        /* \"contracts/practice.sol\":411:417  uint x */\n      0x00\n        /* \"contracts/practice.sol\":420:425  sum() */\n      tag_42\n        /* \"contracts/practice.sol\":420:423  sum */\n      tag_27\n        /* \"contracts/practice.sol\":420:425  sum() */\n      jump\t// in\n    tag_42:\n        /* \"contracts/practice.sol\":411:425  uint x = sum() */\n      swap1\n      pop\n        /* \"contracts/practice.sol\":448:449  5 */\n      0x05\n        /* \"contracts/practice.sol\":446:447  x */\n      dup2\n        /* \"contracts/practice.sol\":446:449  x/5 */\n      tag_43\n      swap2\n      swap1\n      tag_44\n      jump\t// in\n    tag_43:\n        /* \"contracts/practice.sol\":436:449  average = x/5 */\n      swap2\n      pop\n        /* \"contracts/practice.sol\":469:476  average */\n      dup2\n        /* \"contracts/practice.sol\":462:476  return average */\n      swap3\n      pop\n      pop\n      pop\n        /* \"contracts/practice.sol\":338:484  function avg()public view returns(uint){\r... */\n      swap1\n      jump\t// out\n        /* \"contracts/practice.sol\":119:160  uint[5] public arr = [10, 20, 30, 40, 50] */\n    tag_21:\n      0x00\n      dup2\n      0x05\n      dup2\n      lt\n      tag_45\n      jumpi\n      0x00\n      dup1\n      revert\n    tag_45:\n      add\n      0x00\n      swap2\n      pop\n      swap1\n      pop\n      sload\n      dup2\n      jump\t// out\n        /* \"contracts/practice.sol\":490:708  function largest()public view returns(uint){\r... */\n    tag_24:\n        /* \"contracts/practice.sol\":528:532  uint */\n      0x00\n        /* \"contracts/practice.sol\":544:550  uint x */\n      dup1\n        /* \"contracts/practice.sol\":553:567  type(uint).min */\n      0x00\n        /* \"contracts/practice.sol\":544:567  uint x = type(uint).min */\n      swap1\n      pop\n        /* \"contracts/practice.sol\":582:588  uint i */\n      0x00\n        /* \"contracts/practice.sol\":578:682  for(uint i=0;i<5;i++){\r... */\n    tag_48:\n        /* \"contracts/practice.sol\":593:594  5 */\n      0x05\n        /* \"contracts/practice.sol\":591:592  i */\n      dup2\n        /* \"contracts/practice.sol\":591:594  i<5 */\n      lt\n        /* \"contracts/practice.sol\":578:682  for(uint i=0;i<5;i++){\r... */\n      iszero\n      tag_49\n      jumpi\n        /* \"contracts/practice.sol\":619:622  arr */\n      0x00\n        /* \"contracts/practice.sol\":623:624  i */\n      dup2\n        /* \"contracts/practice.sol\":619:625  arr[i] */\n      0x05\n      dup2\n      lt\n      tag_51\n      jumpi\n      tag_52\n      tag_35\n      jump\t// in\n    tag_52:\n    tag_51:\n      add\n      sload\n        /* \"contracts/practice.sol\":617:618  x */\n      dup3\n        /* \"contracts/practice.sol\":617:625  x<arr[i] */\n      lt\n        /* \"contracts/practice.sol\":614:671  if(x<arr[i]){\r... */\n      iszero\n      tag_54\n      jumpi\n        /* \"contracts/practice.sol\":649:652  arr */\n      0x00\n        /* \"contracts/practice.sol\":653:654  i */\n      dup2\n        /* \"contracts/practice.sol\":649:655  arr[i] */\n      0x05\n      dup2\n      lt\n      tag_55\n      jumpi\n      tag_56\n      tag_35\n      jump\t// in\n    tag_56:\n    tag_55:\n      add\n      sload\n        /* \"contracts/practice.sol\":645:655  x = arr[i] */\n      swap2\n      pop\n        /* \"contracts/practice.sol\":614:671  if(x<arr[i]){\r... */\n    tag_54:\n        /* \"contracts/practice.sol\":595:598  i++ */\n      dup1\n      dup1\n      tag_58\n      swap1\n      tag_40\n      jump\t// in\n    tag_58:\n      swap2\n      pop\n      pop\n        /* \"contracts/practice.sol\":578:682  for(uint i=0;i<5;i++){\r... */\n      jump(tag_48)\n    tag_49:\n      pop\n        /* \"contracts/practice.sol\":699:700  x */\n      dup1\n        /* \"contracts/practice.sol\":692:700  return x */\n      swap2\n      pop\n      pop\n        /* \"contracts/practice.sol\":490:708  function largest()public view returns(uint){\r... */\n      swap1\n      jump\t// out\n        /* \"contracts/practice.sol\":169:332  function sum()public view returns(uint){\r... */\n    tag_27:\n        /* \"contracts/practice.sol\":203:207  uint */\n      0x00\n        /* \"contracts/practice.sol\":219:227  uint add */\n      dup1\n        /* \"contracts/practice.sol\":242:248  uint i */\n      0x00\n        /* \"contracts/practice.sol\":238:304  for(uint i=0;i<5;i++){\r... */\n    tag_60:\n        /* \"contracts/practice.sol\":253:254  5 */\n      0x05\n        /* \"contracts/practice.sol\":251:252  i */\n      dup2\n        /* \"contracts/practice.sol\":251:254  i<5 */\n      lt\n        /* \"contracts/practice.sol\":238:304  for(uint i=0;i<5;i++){\r... */\n      iszero\n      tag_61\n      jumpi\n        /* \"contracts/practice.sol\":286:289  arr */\n      0x00\n        /* \"contracts/practice.sol\":290:291  i */\n      dup2\n        /* \"contracts/practice.sol\":286:292  arr[i] */\n      0x05\n      dup2\n      lt\n      tag_63\n      jumpi\n      tag_64\n      tag_35\n      jump\t// in\n    tag_64:\n    tag_63:\n      add\n      sload\n        /* \"contracts/practice.sol\":280:283  add */\n      dup3\n        /* \"contracts/practice.sol\":280:292  add + arr[i] */\n      tag_66\n      swap2\n      swap1\n      tag_67\n      jump\t// in\n    tag_66:\n        /* \"contracts/practice.sol\":274:292  add = add + arr[i] */\n      swap2\n      pop\n        /* \"contracts/practice.sol\":255:258  i++ */\n      dup1\n      dup1\n      tag_68\n      swap1\n      tag_40\n      jump\t// in\n    tag_68:\n      swap2\n      pop\n      pop\n        /* \"contracts/practice.sol\":238:304  for(uint i=0;i<5;i++){\r... */\n      jump(tag_60)\n    tag_61:\n      pop\n        /* \"contracts/practice.sol\":321:324  add */\n      dup1\n        /* \"contracts/practice.sol\":314:324  return add */\n      swap2\n      pop\n      pop\n        /* \"contracts/practice.sol\":169:332  function sum()public view returns(uint){\r... */\n      swap1\n      jump\t// out\n        /* \"#utility.yul\":24:676   */\n    tag_70:\n        /* \"#utility.yul\":117:122   */\n      0x00\n        /* \"#utility.yul\":142:220   */\n      tag_72\n        /* \"#utility.yul\":158:219   */\n      tag_73\n        /* \"#utility.yul\":212:218   */\n      dup5\n        /* \"#utility.yul\":158:219   */\n      tag_74\n      jump\t// in\n    tag_73:\n        /* \"#utility.yul\":142:220   */\n      tag_75\n      jump\t// in\n    tag_72:\n        /* \"#utility.yul\":133:220   */\n      swap1\n      pop\n        /* \"#utility.yul\":240:245   */\n      dup1\n        /* \"#utility.yul\":266:272   */\n      dup3\n        /* \"#utility.yul\":316:319   */\n      dup6\n        /* \"#utility.yul\":308:312   */\n      0x20\n        /* \"#utility.yul\":300:306   */\n      dup7\n        /* \"#utility.yul\":296:313   */\n      mul\n        /* \"#utility.yul\":291:294   */\n      dup3\n        /* \"#utility.yul\":287:314   */\n      add\n        /* \"#utility.yul\":284:320   */\n      gt\n        /* \"#utility.yul\":281:424   */\n      iszero\n      tag_76\n      jumpi\n        /* \"#utility.yul\":335:414   */\n      tag_77\n      tag_78\n      jump\t// in\n    tag_77:\n        /* \"#utility.yul\":281:424   */\n    tag_76:\n        /* \"#utility.yul\":448:449   */\n      0x00\n        /* \"#utility.yul\":433:670   */\n    tag_79:\n        /* \"#utility.yul\":458:464   */\n      dup6\n        /* \"#utility.yul\":455:456   */\n      dup2\n        /* \"#utility.yul\":452:465   */\n      lt\n        /* \"#utility.yul\":433:670   */\n      iszero\n      tag_81\n      jumpi\n        /* \"#utility.yul\":526:529   */\n      dup2\n        /* \"#utility.yul\":555:591   */\n      tag_82\n        /* \"#utility.yul\":587:590   */\n      dup9\n        /* \"#utility.yul\":575:585   */\n      dup3\n        /* \"#utility.yul\":555:591   */\n      tag_83\n      jump\t// in\n    tag_82:\n        /* \"#utility.yul\":550:553   */\n      dup5\n        /* \"#utility.yul\":543:592   */\n      mstore\n        /* \"#utility.yul\":621:625   */\n      0x20\n        /* \"#utility.yul\":616:619   */\n      dup5\n        /* \"#utility.yul\":612:626   */\n      add\n        /* \"#utility.yul\":605:626   */\n      swap4\n      pop\n        /* \"#utility.yul\":655:659   */\n      0x20\n        /* \"#utility.yul\":650:653   */\n      dup4\n        /* \"#utility.yul\":646:660   */\n      add\n        /* \"#utility.yul\":639:660   */\n      swap3\n      pop\n        /* \"#utility.yul\":493:670   */\n      pop\n        /* \"#utility.yul\":480:481   */\n      0x01\n        /* \"#utility.yul\":477:478   */\n      dup2\n        /* \"#utility.yul\":473:482   */\n      add\n        /* \"#utility.yul\":468:482   */\n      swap1\n      pop\n        /* \"#utility.yul\":433:670   */\n      jump(tag_79)\n    tag_81:\n        /* \"#utility.yul\":437:451   */\n      pop\n        /* \"#utility.yul\":123:676   */\n      pop\n      pop\n        /* \"#utility.yul\":24:676   */\n      swap4\n      swap3\n      pop\n      pop\n      pop\n      jump\t// out\n        /* \"#utility.yul\":699:1036   */\n    tag_84:\n        /* \"#utility.yul\":767:772   */\n      0x00\n        /* \"#utility.yul\":816:819   */\n      dup3\n        /* \"#utility.yul\":809:813   */\n      0x1f\n        /* \"#utility.yul\":801:807   */\n      dup4\n        /* \"#utility.yul\":797:814   */\n      add\n        /* \"#utility.yul\":793:820   */\n      slt\n        /* \"#utility.yul\":783:905   */\n      tag_86\n      jumpi\n        /* \"#utility.yul\":824:903   */\n      tag_87\n      tag_88\n      jump\t// in\n    tag_87:\n        /* \"#utility.yul\":783:905   */\n    tag_86:\n        /* \"#utility.yul\":928:932   */\n      0x05\n        /* \"#utility.yul\":950:1030   */\n      tag_89\n        /* \"#utility.yul\":1026:1029   */\n      dup5\n        /* \"#utility.yul\":1018:1024   */\n      dup3\n        /* \"#utility.yul\":1010:1016   */\n      dup6\n        /* \"#utility.yul\":950:1030   */\n      tag_70\n      jump\t// in\n    tag_89:\n        /* \"#utility.yul\":941:1030   */\n      swap2\n      pop\n        /* \"#utility.yul\":773:1036   */\n      pop\n        /* \"#utility.yul\":699:1036   */\n      swap3\n      swap2\n      pop\n      pop\n      jump\t// out\n        /* \"#utility.yul\":1042:1179   */\n    tag_83:\n        /* \"#utility.yul\":1087:1092   */\n      0x00\n        /* \"#utility.yul\":1125:1131   */\n      dup2\n        /* \"#utility.yul\":1112:1132   */\n      calldataload\n        /* \"#utility.yul\":1103:1132   */\n      swap1\n      pop\n        /* \"#utility.yul\":1141:1173   */\n      tag_91\n        /* \"#utility.yul\":1167:1172   */\n      dup2\n        /* \"#utility.yul\":1141:1173   */\n      tag_92\n      jump\t// in\n    tag_91:\n        /* \"#utility.yul\":1042:1179   */\n      swap3\n      swap2\n      pop\n      pop\n      jump\t// out\n        /* \"#utility.yul\":1185:1324   */\n    tag_93:\n        /* \"#utility.yul\":1231:1236   */\n      0x00\n        /* \"#utility.yul\":1269:1275   */\n      dup2\n        /* \"#utility.yul\":1256:1276   */\n      calldataload\n        /* \"#utility.yul\":1247:1276   */\n      swap1\n      pop\n        /* \"#utility.yul\":1285:1318   */\n      tag_95\n        /* \"#utility.yul\":1312:1317   */\n      dup2\n        /* \"#utility.yul\":1285:1318   */\n      tag_96\n      jump\t// in\n    tag_95:\n        /* \"#utility.yul\":1185:1324   */\n      swap3\n      swap2\n      pop\n      pop\n      jump\t// out\n        /* \"#utility.yul\":1330:1704   */\n    tag_10:\n        /* \"#utility.yul\":1411:1417   */\n      0x00\n        /* \"#utility.yul\":1460:1463   */\n      0xa0\n        /* \"#utility.yul\":1448:1457   */\n      dup3\n        /* \"#utility.yul\":1439:1446   */\n      dup5\n        /* \"#utility.yul\":1435:1458   */\n      sub\n        /* \"#utility.yul\":1431:1464   */\n      slt\n        /* \"#utility.yul\":1428:1548   */\n      iszero\n      tag_98\n      jumpi\n        /* \"#utility.yul\":1467:1546   */\n      tag_99\n      tag_100\n      jump\t// in\n    tag_99:\n        /* \"#utility.yul\":1428:1548   */\n    tag_98:\n        /* \"#utility.yul\":1587:1588   */\n      0x00\n        /* \"#utility.yul\":1612:1687   */\n      tag_101\n        /* \"#utility.yul\":1679:1686   */\n      dup5\n        /* \"#utility.yul\":1670:1676   */\n      dup3\n        /* \"#utility.yul\":1659:1668   */\n      dup6\n        /* \"#utility.yul\":1655:1677   */\n      add\n        /* \"#utility.yul\":1612:1687   */\n      tag_84\n      jump\t// in\n    tag_101:\n        /* \"#utility.yul\":1602:1687   */\n      swap2\n      pop\n        /* \"#utility.yul\":1558:1697   */\n      pop\n        /* \"#utility.yul\":1330:1704   */\n      swap3\n      swap2\n      pop\n      pop\n      jump\t// out\n        /* \"#utility.yul\":1710:2039   */\n    tag_20:\n        /* \"#utility.yul\":1769:1775   */\n      0x00\n        /* \"#utility.yul\":1818:1820   */\n      0x20\n        /* \"#utility.yul\":1806:1815   */\n      dup3\n        /* \"#utility.yul\":1797:1804   */\n      dup5\n        /* \"#utility.yul\":1793:1816   */\n      sub\n        /* \"#utility.yul\":1789:1821   */\n      slt\n        /* \"#utility.yul\":1786:1905   */\n      iszero\n      tag_103\n      jumpi\n        /* \"#utility.yul\":1824:1903   */\n      tag_104\n      tag_100\n      jump\t// in\n    tag_104:\n        /* \"#utility.yul\":1786:1905   */\n    tag_103:\n        /* \"#utility.yul\":1944:1945   */\n      0x00\n        /* \"#utility.yul\":1969:2022   */\n      tag_105\n        /* \"#utility.yul\":2014:2021   */\n      dup5\n        /* \"#utility.yul\":2005:2011   */\n      dup3\n        /* \"#utility.yul\":1994:2003   */\n      dup6\n        /* \"#utility.yul\":1990:2012   */\n      add\n        /* \"#utility.yul\":1969:2022   */\n      tag_93\n      jump\t// in\n    tag_105:\n        /* \"#utility.yul\":1959:2022   */\n      swap2\n      pop\n        /* \"#utility.yul\":1915:2032   */\n      pop\n        /* \"#utility.yul\":1710:2039   */\n      swap3\n      swap2\n      pop\n      pop\n      jump\t// out\n        /* \"#utility.yul\":2045:2160   */\n    tag_106:\n        /* \"#utility.yul\":2130:2153   */\n      tag_108\n        /* \"#utility.yul\":2147:2152   */\n      dup2\n        /* \"#utility.yul\":2130:2153   */\n      tag_109\n      jump\t// in\n    tag_108:\n        /* \"#utility.yul\":2125:2128   */\n      dup3\n        /* \"#utility.yul\":2118:2154   */\n      mstore\n        /* \"#utility.yul\":2045:2160   */\n      pop\n      pop\n      jump\t// out\n        /* \"#utility.yul\":2166:2284   */\n    tag_110:\n        /* \"#utility.yul\":2253:2277   */\n      tag_112\n        /* \"#utility.yul\":2271:2276   */\n      dup2\n        /* \"#utility.yul\":2253:2277   */\n      tag_113\n      jump\t// in\n    tag_112:\n        /* \"#utility.yul\":2248:2251   */\n      dup3\n        /* \"#utility.yul\":2241:2278   */\n      mstore\n        /* \"#utility.yul\":2166:2284   */\n      pop\n      pop\n      jump\t// out\n        /* \"#utility.yul\":2290:2508   */\n    tag_13:\n        /* \"#utility.yul\":2381:2385   */\n      0x00\n        /* \"#utility.yul\":2419:2421   */\n      0x20\n        /* \"#utility.yul\":2408:2417   */\n      dup3\n        /* \"#utility.yul\":2404:2422   */\n      add\n        /* \"#utility.yul\":2396:2422   */\n      swap1\n      pop\n        /* \"#utility.yul\":2432:2501   */\n      tag_115\n        /* \"#utility.yul\":2498:2499   */\n      0x00\n        /* \"#utility.yul\":2487:2496   */\n      dup4\n        /* \"#utility.yul\":2483:2500   */\n      add\n        /* \"#utility.yul\":2474:2480   */\n      dup5\n        /* \"#utility.yul\":2432:2501   */\n      tag_106\n      jump\t// in\n    tag_115:\n        /* \"#utility.yul\":2290:2508   */\n      swap3\n      swap2\n      pop\n      pop\n      jump\t// out\n        /* \"#utility.yul\":2514:2736   */\n    tag_17:\n        /* \"#utility.yul\":2607:2611   */\n      0x00\n        /* \"#utility.yul\":2645:2647   */\n      0x20\n        /* \"#utility.yul\":2634:2643   */\n      dup3\n        /* \"#utility.yul\":2630:2648   */\n      add\n        /* \"#utility.yul\":2622:2648   */\n      swap1\n      pop\n        /* \"#utility.yul\":2658:2729   */\n      tag_117\n        /* \"#utility.yul\":2726:2727   */\n      0x00\n        /* \"#utility.yul\":2715:2724   */\n      dup4\n        /* \"#utility.yul\":2711:2728   */\n      add\n        /* \"#utility.yul\":2702:2708   */\n      dup5\n        /* \"#utility.yul\":2658:2729   */\n      tag_110\n      jump\t// in\n    tag_117:\n        /* \"#utility.yul\":2514:2736   */\n      swap3\n      swap2\n      pop\n      pop\n      jump\t// out\n        /* \"#utility.yul\":2742:2871   */\n    tag_75:\n        /* \"#utility.yul\":2776:2782   */\n      0x00\n        /* \"#utility.yul\":2803:2823   */\n      tag_119\n      tag_120\n      jump\t// in\n    tag_119:\n        /* \"#utility.yul\":2793:2823   */\n      swap1\n      pop\n        /* \"#utility.yul\":2832:2865   */\n      tag_121\n        /* \"#utility.yul\":2860:2864   */\n      dup3\n        /* \"#utility.yul\":2852:2858   */\n      dup3\n        /* \"#utility.yul\":2832:2865   */\n      tag_122\n      jump\t// in\n    tag_121:\n        /* \"#utility.yul\":2742:2871   */\n      swap2\n      swap1\n      pop\n      jump\t// out\n        /* \"#utility.yul\":2877:2952   */\n    tag_120:\n        /* \"#utility.yul\":2910:2916   */\n      0x00\n        /* \"#utility.yul\":2943:2945   */\n      0x40\n        /* \"#utility.yul\":2937:2946   */\n      mload\n        /* \"#utility.yul\":2927:2946   */\n      swap1\n      pop\n        /* \"#utility.yul\":2877:2952   */\n      swap1\n      jump\t// out\n        /* \"#utility.yul\":2958:3206   */\n    tag_74:\n        /* \"#utility.yul\":3032:3036   */\n      0x00\n        /* \"#utility.yul\":3122:3140   */\n      0xffffffffffffffff\n        /* \"#utility.yul\":3114:3120   */\n      dup3\n        /* \"#utility.yul\":3111:3141   */\n      gt\n        /* \"#utility.yul\":3108:3164   */\n      iszero\n      tag_125\n      jumpi\n        /* \"#utility.yul\":3144:3162   */\n      tag_126\n      tag_127\n      jump\t// in\n    tag_126:\n        /* \"#utility.yul\":3108:3164   */\n    tag_125:\n        /* \"#utility.yul\":3194:3198   */\n      0x20\n        /* \"#utility.yul\":3186:3192   */\n      dup3\n        /* \"#utility.yul\":3182:3199   */\n      mul\n        /* \"#utility.yul\":3174:3199   */\n      swap1\n      pop\n        /* \"#utility.yul\":2958:3206   */\n      swap2\n      swap1\n      pop\n      jump\t// out\n        /* \"#utility.yul\":3212:3517   */\n    tag_67:\n        /* \"#utility.yul\":3252:3255   */\n      0x00\n        /* \"#utility.yul\":3271:3291   */\n      tag_129\n        /* \"#utility.yul\":3289:3290   */\n      dup3\n        /* \"#utility.yul\":3271:3291   */\n      tag_113\n      jump\t// in\n    tag_129:\n        /* \"#utility.yul\":3266:3291   */\n      swap2\n      pop\n        /* \"#utility.yul\":3305:3325   */\n      tag_130\n        /* \"#utility.yul\":3323:3324   */\n      dup4\n        /* \"#utility.yul\":3305:3325   */\n      tag_113\n      jump\t// in\n    tag_130:\n        /* \"#utility.yul\":3300:3325   */\n      swap3\n      pop\n        /* \"#utility.yul\":3459:3460   */\n      dup3\n        /* \"#utility.yul\":3391:3457   */\n      0xffffffffffffffffffffffffffffffffffffffffffffffffffffffffffffffff\n        /* \"#utility.yul\":3387:3461   */\n      sub\n        /* \"#utility.yul\":3384:3385   */\n      dup3\n        /* \"#utility.yul\":3381:3462   */\n      gt\n        /* \"#utility.yul\":3378:3485   */\n      iszero\n      tag_131\n      jumpi\n        /* \"#utility.yul\":3465:3483   */\n      tag_132\n      tag_133\n      jump\t// in\n    tag_132:\n        /* \"#utility.yul\":3378:3485   */\n    tag_131:\n        /* \"#utility.yul\":3509:3510   */\n      dup3\n        /* \"#utility.yul\":3506:3507   */\n      dup3\n        /* \"#utility.yul\":3502:3511   */\n      add\n        /* \"#utility.yul\":3495:3511   */\n      swap1\n      pop\n        /* \"#utility.yul\":3212:3517   */\n      swap3\n      swap2\n      pop\n      pop\n      jump\t// out\n        /* \"#utility.yul\":3523:3708   */\n    tag_44:\n        /* \"#utility.yul\":3563:3564   */\n      0x00\n        /* \"#utility.yul\":3580:3600   */\n      tag_135\n        /* \"#utility.yul\":3598:3599   */\n      dup3\n        /* \"#utility.yul\":3580:3600   */\n      tag_113\n      jump\t// in\n    tag_135:\n        /* \"#utility.yul\":3575:3600   */\n      swap2\n      pop\n        /* \"#utility.yul\":3614:3634   */\n      tag_136\n        /* \"#utility.yul\":3632:3633   */\n      dup4\n        /* \"#utility.yul\":3614:3634   */\n      tag_113\n      jump\t// in\n    tag_136:\n        /* \"#utility.yul\":3609:3634   */\n      swap3\n      pop\n        /* \"#utility.yul\":3653:3654   */\n      dup3\n        /* \"#utility.yul\":3643:3678   */\n      tag_137\n      jumpi\n        /* \"#utility.yul\":3658:3676   */\n      tag_138\n      tag_139\n      jump\t// in\n    tag_138:\n        /* \"#utility.yul\":3643:3678   */\n    tag_137:\n        /* \"#utility.yul\":3700:3701   */\n      dup3\n        /* \"#utility.yul\":3697:3698   */\n      dup3\n        /* \"#utility.yul\":3693:3702   */\n      div\n        /* \"#utility.yul\":3688:3702   */\n      swap1\n      pop\n        /* \"#utility.yul\":3523:3708   */\n      swap3\n      swap2\n      pop\n      pop\n      jump\t// out\n        /* \"#utility.yul\":3714:3790   */\n    tag_109:\n        /* \"#utility.yul\":3750:3757   */\n      0x00\n        /* \"#utility.yul\":3779:3784   */\n      dup2\n        /* \"#utility.yul\":3768:3784   */\n      swap1\n      pop\n        /* \"#utility.yul\":3714:3790   */\n      swap2\n      swap1\n      pop\n      jump\t// out\n        /* \"#utility.yul\":3796:3873   */\n    tag_113:\n        /* \"#utility.yul\":3833:3840   */\n      0x00\n        /* \"#utility.yul\":3862:3867   */\n      dup2\n        /* \"#utility.yul\":3851:3867   */\n      swap1\n      pop\n        /* \"#utility.yul\":3796:3873   */\n      swap2\n      swap1\n      pop\n      jump\t// out\n        /* \"#utility.yul\":3879:4160   */\n    tag_122:\n        /* \"#utility.yul\":3962:3989   */\n      tag_143\n        /* \"#utility.yul\":3984:3988   */\n      dup3\n        /* \"#utility.yul\":3962:3989   */\n      tag_144\n      jump\t// in\n    tag_143:\n        /* \"#utility.yul\":3954:3960   */\n      dup2\n        /* \"#utility.yul\":3950:3990   */\n      add\n        /* \"#utility.yul\":4092:4098   */\n      dup2\n        /* \"#utility.yul\":4080:4090   */\n      dup2\n        /* \"#utility.yul\":4077:4099   */\n      lt\n        /* \"#utility.yul\":4056:4074   */\n      0xffffffffffffffff\n        /* \"#utility.yul\":4044:4054   */\n      dup3\n        /* \"#utility.yul\":4041:4075   */\n      gt\n        /* \"#utility.yul\":4038:4100   */\n      or\n        /* \"#utility.yul\":4035:4123   */\n      iszero\n      tag_145\n      jumpi\n        /* \"#utility.yul\":4103:4121   */\n      tag_146\n      tag_127\n      jump\t// in\n    tag_146:\n        /* \"#utility.yul\":4035:4123   */\n    tag_145:\n        /* \"#utility.yul\":4143:4153   */\n      dup1\n        /* \"#utility.yul\":4139:4141   */\n      0x40\n        /* \"#utility.yul\":4132:4154   */\n      mstore\n        /* \"#utility.yul\":3922:4160   */\n      pop\n        /* \"#utility.yul\":3879:4160   */\n      pop\n      pop\n      jump\t// out\n        /* \"#utility.yul\":4166:4399   */\n    tag_40:\n        /* \"#utility.yul\":4205:4208   */\n      0x00\n        /* \"#utility.yul\":4228:4252   */\n      tag_148\n        /* \"#utility.yul\":4246:4251   */\n      dup3\n        /* \"#utility.yul\":4228:4252   */\n      tag_113\n      jump\t// in\n    tag_148:\n        /* \"#utility.yul\":4219:4252   */\n      swap2\n      pop\n        /* \"#utility.yul\":4274:4340   */\n      0xffffffffffffffffffffffffffffffffffffffffffffffffffffffffffffffff\n        /* \"#utility.yul\":4267:4272   */\n      dup3\n        /* \"#utility.yul\":4264:4341   */\n      eq\n        /* \"#utility.yul\":4261:4364   */\n      iszero\n      tag_149\n      jumpi\n        /* \"#utility.yul\":4344:4362   */\n      tag_150\n      tag_133\n      jump\t// in\n    tag_150:\n        /* \"#utility.yul\":4261:4364   */\n    tag_149:\n        /* \"#utility.yul\":4391:4392   */\n      0x01\n        /* \"#utility.yul\":4384:4389   */\n      dup3\n        /* \"#utility.yul\":4380:4393   */\n      add\n        /* \"#utility.yul\":4373:4393   */\n      swap1\n      pop\n        /* \"#utility.yul\":4166:4399   */\n      swap2\n      swap1\n      pop\n      jump\t// out\n        /* \"#utility.yul\":4405:4585   */\n    tag_133:\n        /* \"#utility.yul\":4453:4530   */\n      0x4e487b7100000000000000000000000000000000000000000000000000000000\n        /* \"#utility.yul\":4450:4451   */\n      0x00\n        /* \"#utility.yul\":4443:4531   */\n      mstore\n        /* \"#utility.yul\":4550:4554   */\n      0x11\n        /* \"#utility.yul\":4547:4548   */\n      0x04\n        /* \"#utility.yul\":4540:4555   */\n      mstore\n        /* \"#utility.yul\":4574:4578   */\n      0x24\n        /* \"#utility.yul\":4571:4572   */\n      0x00\n        /* \"#utility.yul\":4564:4579   */\n      revert\n        /* \"#utility.yul\":4591:4771   */\n    tag_139:\n        /* \"#utility.yul\":4639:4716   */\n      0x4e487b7100000000000000000000000000000000000000000000000000000000\n        /* \"#utility.yul\":4636:4637   */\n      0x00\n        /* \"#utility.yul\":4629:4717   */\n      mstore\n        /* \"#utility.yul\":4736:4740   */\n      0x12\n        /* \"#utility.yul\":4733:4734   */\n      0x04\n        /* \"#utility.yul\":4726:4741   */\n      mstore\n        /* \"#utility.yul\":4760:4764   */\n      0x24\n        /* \"#utility.yul\":4757:4758   */\n      0x00\n        /* \"#utility.yul\":4750:4765   */\n      revert\n        /* \"#utility.yul\":4777:4957   */\n    tag_35:\n        /* \"#utility.yul\":4825:4902   */\n      0x4e487b7100000000000000000000000000000000000000000000000000000000\n        /* \"#utility.yul\":4822:4823   */\n      0x00\n        /* \"#utility.yul\":4815:4903   */\n      mstore\n        /* \"#utility.yul\":4922:4926   */\n      0x32\n        /* \"#utility.yul\":4919:4920   */\n      0x04\n        /* \"#utility.yul\":4912:4927   */\n      mstore\n        /* \"#utility.yul\":4946:4950   */\n      0x24\n        /* \"#utility.yul\":4943:4944   */\n      0x00\n        /* \"#utility.yul\":4936:4951   */\n      revert\n        /* \"#utility.yul\":4963:5143   */\n    tag_127:\n        /* \"#utility.yul\":5011:5088   */\n      0x4e487b7100000000000000000000000000000000000000000000000000000000\n        /* \"#utility.yul\":5008:5009   */\n      0x00\n        /* \"#utility.yul\":5001:5089   */\n      mstore\n        /* \"#utility.yul\":5108:5112   */\n      0x41\n        /* \"#utility.yul\":5105:5106   */\n      0x04\n        /* \"#utility.yul\":5098:5113   */\n      mstore\n        /* \"#utility.yul\":5132:5136   */\n      0x24\n        /* \"#utility.yul\":5129:5130   */\n      0x00\n        /* \"#utility.yul\":5122:5137   */\n      revert\n        /* \"#utility.yul\":5149:5266   */\n    tag_88:\n        /* \"#utility.yul\":5258:5259   */\n      0x00\n        /* \"#utility.yul\":5255:5256   */\n      dup1\n        /* \"#utility.yul\":5248:5260   */\n      revert\n        /* \"#utility.yul\":5272:5389   */\n    tag_78:\n        /* \"#utility.yul\":5381:5382   */\n      0x00\n        /* \"#utility.yul\":5378:5379   */\n      dup1\n        /* \"#utility.yul\":5371:5383   */\n      revert\n        /* \"#utility.yul\":5518:5635   */\n    tag_100:\n        /* \"#utility.yul\":5627:5628   */\n      0x00\n        /* \"#utility.yul\":5624:5625   */\n      dup1\n        /* \"#utility.yul\":5617:5629   */\n      revert\n        /* \"#utility.yul\":5641:5743   */\n    tag_144:\n        /* \"#utility.yul\":5682:5688   */\n      0x00\n        /* \"#utility.yul\":5733:5735   */\n      0x1f\n        /* \"#utility.yul\":5729:5736   */\n      not\n        /* \"#utility.yul\":5724:5726   */\n      0x1f\n        /* \"#utility.yul\":5717:5722   */\n      dup4\n        /* \"#utility.yul\":5713:5727   */\n      add\n        /* \"#utility.yul\":5709:5737   */\n      and\n        /* \"#utility.yul\":5699:5737   */\n      swap1\n      pop\n        /* \"#utility.yul\":5641:5743   */\n      swap2\n      swap1\n      pop\n      jump\t// out\n        /* \"#utility.yul\":5749:5869   */\n    tag_92:\n        /* \"#utility.yul\":5821:5844   */\n      tag_162\n        /* \"#utility.yul\":5838:5843   */\n      dup2\n        /* \"#utility.yul\":5821:5844   */\n      tag_109\n      jump\t// in\n    tag_162:\n        /* \"#utility.yul\":5814:5819   */\n      dup2\n        /* \"#utility.yul\":5811:5845   */\n      eq\n        /* \"#utility.yul\":5801:5863   */\n      tag_163\n      jumpi\n        /* \"#utility.yul\":5859:5860   */\n      0x00\n        /* \"#utility.yul\":5856:5857   */\n      dup1\n        /* \"#utility.yul\":5849:5861   */\n      revert\n        /* \"#utility.yul\":5801:5863   */\n    tag_163:\n        /* \"#utility.yul\":5749:5869   */\n      pop\n      jump\t// out\n        /* \"#utility.yul\":5875:5997   */\n    tag_96:\n        /* \"#utility.yul\":5948:5972   */\n      tag_165\n        /* \"#utility.yul\":5966:5971   */\n      dup2\n        /* \"#utility.yul\":5948:5972   */\n      tag_113\n      jump\t// in\n    tag_165:\n        /* \"#utility.yul\":5941:5946   */\n      dup2\n        /* \"#utility.yul\":5938:5973   */\n      eq\n        /* \"#utility.yul\":5928:5991   */\n      tag_166\n      jumpi\n        /* \"#utility.yul\":5987:5988   */\n      0x00\n        /* \"#utility.yul\":5984:5985   */\n      dup1\n        /* \"#utility.yul\":5977:5989   */\n      revert\n        /* \"#utility.yul\":5928:5991   */\n    tag_166:\n        /* \"#utility.yul\":5875:5997   */\n      pop\n      jump\t// out\n\n    auxdata: 0xa2646970667358221220225d957abf2da8f5f00d317bb5e267f57acfbc96717328ba0ee2fcaddbc38f9664736f6c63430008070033\n}\n",
				"bytecode": {
					"linkReferences": {},
					"object": "60806040526040518060a00160405280600a60ff168152602001601460ff168152602001601e60ff168152602001602860ff168152602001603260ff16815250600090600561004f929190610062565b5034801561005c57600080fd5b506100c4565b8260058101928215610096579160200282015b82811115610095578251829060ff16905591602001919060010190610075565b5b5090506100a391906100a7565b5090565b5b808211156100c05760008160009055506001016100a8565b5090565b610681806100d36000396000f3fe608060405234801561001057600080fd5b50600436106100575760003560e01c80630674253a1461005c57806331eff40b1461008c57806371e5ee5f146100aa57806380bc64fc146100da578063853255cc146100f8575b600080fd5b61007660048036038101906100719190610333565b610116565b60405161008391906103ab565b60405180910390f35b610094610185565b6040516100a191906103c6565b60405180910390f35b6100c460048036038101906100bf9190610360565b6101ab565b6040516100d191906103c6565b60405180910390f35b6100e26101c6565b6040516100ef91906103c6565b60405180910390f35b61010061022a565b60405161010d91906103c6565b60405180910390f35b60008060059050600080600090505b8281101561017a57818582600581106101415761014061059f565b5b602002015113156101675784816005811061015f5761015e61059f565b5b602002015191505b8080610172906104f8565b915050610125565b508092505050919050565b600080600061019261022a565b90506005816101a19190610482565b9150819250505090565b600081600581106101bb57600080fd5b016000915090505481565b6000806000905060005b600581101561022257600081600581106101ed576101ec61059f565b5b015482101561020f576000816005811061020a5761020961059f565b5b015491505b808061021a906104f8565b9150506101d0565b508091505090565b60008060005b600581101561026f576000816005811061024d5761024c61059f565b5b01548261025a919061042c565b91508080610267906104f8565b915050610230565b508091505090565b600061028a61028584610406565b6103e1565b905080828560208602820111156102a4576102a3610602565b5b60005b858110156102d457816102ba8882610309565b8452602084019350602083019250506001810190506102a7565b5050509392505050565b600082601f8301126102f3576102f26105fd565b5b6005610300848285610277565b91505092915050565b6000813590506103188161061d565b92915050565b60008135905061032d81610634565b92915050565b600060a0828403121561034957610348610607565b5b6000610357848285016102de565b91505092915050565b60006020828403121561037657610375610607565b5b60006103848482850161031e565b91505092915050565b610396816104b3565b82525050565b6103a5816104bd565b82525050565b60006020820190506103c0600083018461038d565b92915050565b60006020820190506103db600083018461039c565b92915050565b60006103eb6103fc565b90506103f782826104c7565b919050565b6000604051905090565b600067ffffffffffffffff821115610421576104206105ce565b5b602082029050919050565b6000610437826104bd565b9150610442836104bd565b9250827fffffffffffffffffffffffffffffffffffffffffffffffffffffffffffffffff0382111561047757610476610541565b5b828201905092915050565b600061048d826104bd565b9150610498836104bd565b9250826104a8576104a7610570565b5b828204905092915050565b6000819050919050565b6000819050919050565b6104d08261060c565b810181811067ffffffffffffffff821117156104ef576104ee6105ce565b5b80604052505050565b6000610503826104bd565b91507fffffffffffffffffffffffffffffffffffffffffffffffffffffffffffffffff82141561053657610535610541565b5b600182019050919050565b7f4e487b7100000000000000000000000000000000000000000000000000000000600052601160045260246000fd5b7f4e487b7100000000000000000000000000000000000000000000000000000000600052601260045260246000fd5b7f4e487b7100000000000000000000000000000000000000000000000000000000600052603260045260246000fd5b7f4e487b7100000000000000000000000000000000000000000000000000000000600052604160045260246000fd5b600080fd5b600080fd5b600080fd5b6000601f19601f8301169050919050565b610626816104b3565b811461063157600080fd5b50565b61063d816104bd565b811461064857600080fd5b5056fea2646970667358221220225d957abf2da8f5f00d317bb5e267f57acfbc96717328ba0ee2fcaddbc38f9664736f6c63430008070033",
					"opcodes": "PUSH1 0x80 PUSH1 0x40 MSTORE PUSH1 0x40 MLOAD DUP1 PUSH1 0xA0 ADD PUSH1 0x40 MSTORE DUP1 PUSH1 0xA PUSH1 0xFF AND DUP2 MSTORE PUSH1 0x20 ADD PUSH1 0x14 PUSH1 0xFF AND DUP2 MSTORE PUSH1 0x20 ADD PUSH1 0x1E PUSH1 0xFF AND DUP2 MSTORE PUSH1 0x20 ADD PUSH1 0x28 PUSH1 0xFF AND DUP2 MSTORE PUSH1 0x20 ADD PUSH1 0x32 PUSH1 0xFF AND DUP2 MSTORE POP PUSH1 0x0 SWAP1 PUSH1 0x5 PUSH2 0x4F SWAP3 SWAP2 SWAP1 PUSH2 0x62 JUMP JUMPDEST POP CALLVALUE DUP1 ISZERO PUSH2 0x5C JUMPI PUSH1 0x0 DUP1 REVERT JUMPDEST POP PUSH2 0xC4 JUMP JUMPDEST DUP3 PUSH1 0x5 DUP2 ADD SWAP3 DUP3 ISZERO PUSH2 0x96 JUMPI SWAP2 PUSH1 0x20 MUL DUP3 ADD JUMPDEST DUP3 DUP2 GT ISZERO PUSH2 0x95 JUMPI DUP3 MLOAD DUP3 SWAP1 PUSH1 0xFF AND SWAP1 SSTORE SWAP2 PUSH1 0x20 ADD SWAP2 SWAP1 PUSH1 0x1 ADD SWAP1 PUSH2 0x75 JUMP JUMPDEST JUMPDEST POP SWAP1 POP PUSH2 0xA3 SWAP2 SWAP1 PUSH2 0xA7 JUMP JUMPDEST POP SWAP1 JUMP JUMPDEST JUMPDEST DUP1 DUP3 GT ISZERO PUSH2 0xC0 JUMPI PUSH1 0x0 DUP2 PUSH1 0x0 SWAP1 SSTORE POP PUSH1 0x1 ADD PUSH2 0xA8 JUMP JUMPDEST POP SWAP1 JUMP JUMPDEST PUSH2 0x681 DUP1 PUSH2 0xD3 PUSH1 0x0 CODECOPY PUSH1 0x0 RETURN INVALID PUSH1 0x80 PUSH1 0x40 MSTORE CALLVALUE DUP1 ISZERO PUSH2 0x10 JUMPI PUSH1 0x0 DUP1 REVERT JUMPDEST POP PUSH1 0x4 CALLDATASIZE LT PUSH2 0x57 JUMPI PUSH1 0x0 CALLDATALOAD PUSH1 0xE0 SHR DUP1 PUSH4 0x674253A EQ PUSH2 0x5C JUMPI DUP1 PUSH4 0x31EFF40B EQ PUSH2 0x8C JUMPI DUP1 PUSH4 0x71E5EE5F EQ PUSH2 0xAA JUMPI DUP1 PUSH4 0x80BC64FC EQ PUSH2 0xDA JUMPI DUP1 PUSH4 0x853255CC EQ PUSH2 0xF8 JUMPI JUMPDEST PUSH1 0x0 DUP1 REVERT JUMPDEST PUSH2 0x76 PUSH1 0x4 DUP1 CALLDATASIZE SUB DUP2 ADD SWAP1 PUSH2 0x71 SWAP2 SWAP1 PUSH2 0x333 JUMP JUMPDEST PUSH2 0x116 JUMP JUMPDEST PUSH1 0x40 MLOAD PUSH2 0x83 SWAP2 SWAP1 PUSH2 0x3AB JUMP JUMPDEST PUSH1 0x40 MLOAD DUP1 SWAP2 SUB SWAP1 RETURN JUMPDEST PUSH2 0x94 PUSH2 0x185 JUMP JUMPDEST PUSH1 0x40 MLOAD PUSH2 0xA1 SWAP2 SWAP1 PUSH2 0x3C6 JUMP JUMPDEST PUSH1 0x40 MLOAD DUP1 SWAP2 SUB SWAP1 RETURN JUMPDEST PUSH2 0xC4 PUSH1 0x4 DUP1 CALLDATASIZE SUB DUP2 ADD SWAP1 PUSH2 0xBF SWAP2 SWAP1 PUSH2 0x360 JUMP JUMPDEST PUSH2 0x1AB JUMP JUMPDEST PUSH1 0x40 MLOAD PUSH2 0xD1 SWAP2 SWAP1 PUSH2 0x3C6 JUMP JUMPDEST PUSH1 0x40 MLOAD DUP1 SWAP2 SUB SWAP1 RETURN JUMPDEST PUSH2 0xE2 PUSH2 0x1C6 JUMP JUMPDEST PUSH1 0x40 MLOAD PUSH2 0xEF SWAP2 SWAP1 PUSH2 0x3C6 JUMP JUMPDEST PUSH1 0x40 MLOAD DUP1 SWAP2 SUB SWAP1 RETURN JUMPDEST PUSH2 0x100 PUSH2 0x22A JUMP JUMPDEST PUSH1 0x40 MLOAD PUSH2 0x10D SWAP2 SWAP1 PUSH2 0x3C6 JUMP JUMPDEST PUSH1 0x40 MLOAD DUP1 SWAP2 SUB SWAP1 RETURN JUMPDEST PUSH1 0x0 DUP1 PUSH1 0x5 SWAP1 POP PUSH1 0x0 DUP1 PUSH1 0x0 SWAP1 POP JUMPDEST DUP3 DUP2 LT ISZERO PUSH2 0x17A JUMPI DUP2 DUP6 DUP3 PUSH1 0x5 DUP2 LT PUSH2 0x141 JUMPI PUSH2 0x140 PUSH2 0x59F JUMP JUMPDEST JUMPDEST PUSH1 0x20 MUL ADD MLOAD SGT ISZERO PUSH2 0x167 JUMPI DUP5 DUP2 PUSH1 0x5 DUP2 LT PUSH2 0x15F JUMPI PUSH2 0x15E PUSH2 0x59F JUMP JUMPDEST JUMPDEST PUSH1 0x20 MUL ADD MLOAD SWAP2 POP JUMPDEST DUP1 DUP1 PUSH2 0x172 SWAP1 PUSH2 0x4F8 JUMP JUMPDEST SWAP2 POP POP PUSH2 0x125 JUMP JUMPDEST POP DUP1 SWAP3 POP POP POP SWAP2 SWAP1 POP JUMP JUMPDEST PUSH1 0x0 DUP1 PUSH1 0x0 PUSH2 0x192 PUSH2 0x22A JUMP JUMPDEST SWAP1 POP PUSH1 0x5 DUP2 PUSH2 0x1A1 SWAP2 SWAP1 PUSH2 0x482 JUMP JUMPDEST SWAP2 POP DUP2 SWAP3 POP POP POP SWAP1 JUMP JUMPDEST PUSH1 0x0 DUP2 PUSH1 0x5 DUP2 LT PUSH2 0x1BB JUMPI PUSH1 0x0 DUP1 REVERT JUMPDEST ADD PUSH1 0x0 SWAP2 POP SWAP1 POP SLOAD DUP2 JUMP JUMPDEST PUSH1 0x0 DUP1 PUSH1 0x0 SWAP1 POP PUSH1 0x0 JUMPDEST PUSH1 0x5 DUP2 LT ISZERO PUSH2 0x222 JUMPI PUSH1 0x0 DUP2 PUSH1 0x5 DUP2 LT PUSH2 0x1ED JUMPI PUSH2 0x1EC PUSH2 0x59F JUMP JUMPDEST JUMPDEST ADD SLOAD DUP3 LT ISZERO PUSH2 0x20F JUMPI PUSH1 0x0 DUP2 PUSH1 0x5 DUP2 LT PUSH2 0x20A JUMPI PUSH2 0x209 PUSH2 0x59F JUMP JUMPDEST JUMPDEST ADD SLOAD SWAP2 POP JUMPDEST DUP1 DUP1 PUSH2 0x21A SWAP1 PUSH2 0x4F8 JUMP JUMPDEST SWAP2 POP POP PUSH2 0x1D0 JUMP JUMPDEST POP DUP1 SWAP2 POP POP SWAP1 JUMP JUMPDEST PUSH1 0x0 DUP1 PUSH1 0x0 JUMPDEST PUSH1 0x5 DUP2 LT ISZERO PUSH2 0x26F JUMPI PUSH1 0x0 DUP2 PUSH1 0x5 DUP2 LT PUSH2 0x24D JUMPI PUSH2 0x24C PUSH2 0x59F JUMP JUMPDEST JUMPDEST ADD SLOAD DUP3 PUSH2 0x25A SWAP2 SWAP1 PUSH2 0x42C JUMP JUMPDEST SWAP2 POP DUP1 DUP1 PUSH2 0x267 SWAP1 PUSH2 0x4F8 JUMP JUMPDEST SWAP2 POP POP PUSH2 0x230 JUMP JUMPDEST POP DUP1 SWAP2 POP POP SWAP1 JUMP JUMPDEST PUSH1 0x0 PUSH2 0x28A PUSH2 0x285 DUP5 PUSH2 0x406 JUMP JUMPDEST PUSH2 0x3E1 JUMP JUMPDEST SWAP1 POP DUP1 DUP3 DUP6 PUSH1 0x20 DUP7 MUL DUP3 ADD GT ISZERO PUSH2 0x2A4 JUMPI PUSH2 0x2A3 PUSH2 0x602 JUMP JUMPDEST JUMPDEST PUSH1 0x0 JUMPDEST DUP6 DUP2 LT ISZERO PUSH2 0x2D4 JUMPI DUP2 PUSH2 0x2BA DUP9 DUP3 PUSH2 0x309 JUMP JUMPDEST DUP5 MSTORE PUSH1 0x20 DUP5 ADD SWAP4 POP PUSH1 0x20 DUP4 ADD SWAP3 POP POP PUSH1 0x1 DUP2 ADD SWAP1 POP PUSH2 0x2A7 JUMP JUMPDEST POP POP POP SWAP4 SWAP3 POP POP POP JUMP JUMPDEST PUSH1 0x0 DUP3 PUSH1 0x1F DUP4 ADD SLT PUSH2 0x2F3 JUMPI PUSH2 0x2F2 PUSH2 0x5FD JUMP JUMPDEST JUMPDEST PUSH1 0x5 PUSH2 0x300 DUP5 DUP3 DUP6 PUSH2 0x277 JUMP JUMPDEST SWAP2 POP POP SWAP3 SWAP2 POP POP JUMP JUMPDEST PUSH1 0x0 DUP2 CALLDATALOAD SWAP1 POP PUSH2 0x318 DUP2 PUSH2 0x61D JUMP JUMPDEST SWAP3 SWAP2 POP POP JUMP JUMPDEST PUSH1 0x0 DUP2 CALLDATALOAD SWAP1 POP PUSH2 0x32D DUP2 PUSH2 0x634 JUMP JUMPDEST SWAP3 SWAP2 POP POP JUMP JUMPDEST PUSH1 0x0 PUSH1 0xA0 DUP3 DUP5 SUB SLT ISZERO PUSH2 0x349 JUMPI PUSH2 0x348 PUSH2 0x607 JUMP JUMPDEST JUMPDEST PUSH1 0x0 PUSH2 0x357 DUP5 DUP3 DUP6 ADD PUSH2 0x2DE JUMP JUMPDEST SWAP2 POP POP SWAP3 SWAP2 POP POP JUMP JUMPDEST PUSH1 0x0 PUSH1 0x20 DUP3 DUP5 SUB SLT ISZERO PUSH2 0x376 JUMPI PUSH2 0x375 PUSH2 0x607 JUMP JUMPDEST JUMPDEST PUSH1 0x0 PUSH2 0x384 DUP5 DUP3 DUP6 ADD PUSH2 0x31E JUMP JUMPDEST SWAP2 POP POP SWAP3 SWAP2 POP POP JUMP JUMPDEST PUSH2 0x396 DUP2 PUSH2 0x4B3 JUMP JUMPDEST DUP3 MSTORE POP POP JUMP JUMPDEST PUSH2 0x3A5 DUP2 PUSH2 0x4BD JUMP JUMPDEST DUP3 MSTORE POP POP JUMP JUMPDEST PUSH1 0x0 PUSH1 0x20 DUP3 ADD SWAP1 POP PUSH2 0x3C0 PUSH1 0x0 DUP4 ADD DUP5 PUSH2 0x38D JUMP JUMPDEST SWAP3 SWAP2 POP POP JUMP JUMPDEST PUSH1 0x0 PUSH1 0x20 DUP3 ADD SWAP1 POP PUSH2 0x3DB PUSH1 0x0 DUP4 ADD DUP5 PUSH2 0x39C JUMP JUMPDEST SWAP3 SWAP2 POP POP JUMP JUMPDEST PUSH1 0x0 PUSH2 0x3EB PUSH2 0x3FC JUMP JUMPDEST SWAP1 POP PUSH2 0x3F7 DUP3 DUP3 PUSH2 0x4C7 JUMP JUMPDEST SWAP2 SWAP1 POP JUMP JUMPDEST PUSH1 0x0 PUSH1 0x40 MLOAD SWAP1 POP SWAP1 JUMP JUMPDEST PUSH1 0x0 PUSH8 0xFFFFFFFFFFFFFFFF DUP3 GT ISZERO PUSH2 0x421 JUMPI PUSH2 0x420 PUSH2 0x5CE JUMP JUMPDEST JUMPDEST PUSH1 0x20 DUP3 MUL SWAP1 POP SWAP2 SWAP1 POP JUMP JUMPDEST PUSH1 0x0 PUSH2 0x437 DUP3 PUSH2 0x4BD JUMP JUMPDEST SWAP2 POP PUSH2 0x442 DUP4 PUSH2 0x4BD JUMP JUMPDEST SWAP3 POP DUP3 PUSH32 0xFFFFFFFFFFFFFFFFFFFFFFFFFFFFFFFFFFFFFFFFFFFFFFFFFFFFFFFFFFFFFFFF SUB DUP3 GT ISZERO PUSH2 0x477 JUMPI PUSH2 0x476 PUSH2 0x541 JUMP JUMPDEST JUMPDEST DUP3 DUP3 ADD SWAP1 POP SWAP3 SWAP2 POP POP JUMP JUMPDEST PUSH1 0x0 PUSH2 0x48D DUP3 PUSH2 0x4BD JUMP JUMPDEST SWAP2 POP PUSH2 0x498 DUP4 PUSH2 0x4BD JUMP JUMPDEST SWAP3 POP DUP3 PUSH2 0x4A8 JUMPI PUSH2 0x4A7 PUSH2 0x570 JUMP JUMPDEST JUMPDEST DUP3 DUP3 DIV SWAP1 POP SWAP3 SWAP2 POP POP JUMP JUMPDEST PUSH1 0x0 DUP2 SWAP1 POP SWAP2 SWAP1 POP JUMP JUMPDEST PUSH1 0x0 DUP2 SWAP1 POP SWAP2 SWAP1 POP JUMP JUMPDEST PUSH2 0x4D0 DUP3 PUSH2 0x60C JUMP JUMPDEST DUP2 ADD DUP2 DUP2 LT PUSH8 0xFFFFFFFFFFFFFFFF DUP3 GT OR ISZERO PUSH2 0x4EF JUMPI PUSH2 0x4EE PUSH2 0x5CE JUMP JUMPDEST JUMPDEST DUP1 PUSH1 0x40 MSTORE POP POP POP JUMP JUMPDEST PUSH1 0x0 PUSH2 0x503 DUP3 PUSH2 0x4BD JUMP JUMPDEST SWAP2 POP PUSH32 0xFFFFFFFFFFFFFFFFFFFFFFFFFFFFFFFFFFFFFFFFFFFFFFFFFFFFFFFFFFFFFFFF DUP3 EQ ISZERO PUSH2 0x536 JUMPI PUSH2 0x535 PUSH2 0x541 JUMP JUMPDEST JUMPDEST PUSH1 0x1 DUP3 ADD SWAP1 POP SWAP2 SWAP1 POP JUMP JUMPDEST PUSH32 0x4E487B7100000000000000000000000000000000000000000000000000000000 PUSH1 0x0 MSTORE PUSH1 0x11 PUSH1 0x4 MSTORE PUSH1 0x24 PUSH1 0x0 REVERT JUMPDEST PUSH32 0x4E487B7100000000000000000000000000000000000000000000000000000000 PUSH1 0x0 MSTORE PUSH1 0x12 PUSH1 0x4 MSTORE PUSH1 0x24 PUSH1 0x0 REVERT JUMPDEST PUSH32 0x4E487B7100000000000000000000000000000000000000000000000000000000 PUSH1 0x0 MSTORE PUSH1 0x32 PUSH1 0x4 MSTORE PUSH1 0x24 PUSH1 0x0 REVERT JUMPDEST PUSH32 0x4E487B7100000000000000000000000000000000000000000000000000000000 PUSH1 0x0 MSTORE PUSH1 0x41 PUSH1 0x4 MSTORE PUSH1 0x24 PUSH1 0x0 REVERT JUMPDEST PUSH1 0x0 DUP1 REVERT JUMPDEST PUSH1 0x0 DUP1 REVERT JUMPDEST PUSH1 0x0 DUP1 REVERT JUMPDEST PUSH1 0x0 PUSH1 0x1F NOT PUSH1 0x1F DUP4 ADD AND SWAP1 POP SWAP2 SWAP1 POP JUMP JUMPDEST PUSH2 0x626 DUP2 PUSH2 0x4B3 JUMP JUMPDEST DUP2 EQ PUSH2 0x631 JUMPI PUSH1 0x0 DUP1 REVERT JUMPDEST POP JUMP JUMPDEST PUSH2 0x63D DUP2 PUSH2 0x4BD JUMP JUMPDEST DUP2 EQ PUSH2 0x648 JUMPI PUSH1 0x0 DUP1 REVERT JUMPDEST POP JUMP INVALID LOG2 PUSH5 0x6970667358 0x22 SLT KECCAK256 0x22 0x5D SWAP6 PUSH27 0xBF2DA8F5F00D317BB5E267F57ACFBC96717328BA0EE2FCADDBC38F SWAP7 PUSH5 0x736F6C6343 STOP ADDMOD SMOD STOP CALLER "
				},
				"gasEstimates": {
					"creation": {
						"codeDepositCost": "333000",
						"executionCost": "infinite",
						"totalCost": "infinite"
					},
					"external": {
						"arr(uint256)": "infinite",
						"avg()": "infinite",
						"findLargest_4(int256[5])": "infinite",
						"largest()": "infinite",
						"sum()": "infinite"
					}
				},
				"methodIdentifiers": {
					"arr(uint256)": "71e5ee5f",
					"avg()": "31eff40b",
					"findLargest_4(int256[5])": "0674253a",
					"largest()": "80bc64fc",
					"sum()": "853255cc"
				}
			},
			"storageLayout": {
				"storage": [
					{
						"astId": 11,
						"contract": "contracts/practice.sol:Arr",
						"label": "arr",
						"offset": 0,
						"slot": "0",
						"type": "t_array(t_uint256)5_storage"
					}
				],
				"types": {
					"t_array(t_uint256)5_storage": {
						"base": "t_uint256",
						"encoding": "inplace",
						"label": "uint256[5]",
						"numberOfBytes": "160"
					},
					"t_uint256": {
						"encoding": "inplace",
						"label": "uint256",
						"numberOfBytes": "32"
					}
				}
			},
			"userdoc": {
				"kind": "user",
				"methods": {},
				"version": 1
			}
		}
	}
}