{
	"contracts/8.sol": {
		"Q8": {
			"abi": [
				{
					"inputs": [
						{
							"internalType": "uint256",
							"name": "a",
							"type": "uint256"
						}
					],
					"name": "Armstrong",
					"outputs": [
						{
							"internalType": "uint256",
							"name": "",
							"type": "uint256"
						}
					],
					"stateMutability": "pure",
					"type": "function"
				}
			],
			"devdoc": {
				"kind": "dev",
				"methods": {},
				"version": 1
			},
			"evm": {
				"assembly": "    /* \"contracts/8.sol\":112:536  contract Q8{\r... */\n  mstore(0x40, 0x80)\n  callvalue\n  dup1\n  iszero\n  tag_1\n  jumpi\n  0x00\n  dup1\n  revert\ntag_1:\n  pop\n  dataSize(sub_0)\n  dup1\n  dataOffset(sub_0)\n  0x00\n  codecopy\n  0x00\n  return\nstop\n\nsub_0: assembly {\n        /* \"contracts/8.sol\":112:536  contract Q8{\r... */\n      mstore(0x40, 0x80)\n      callvalue\n      dup1\n      iszero\n      tag_1\n      jumpi\n      0x00\n      dup1\n      revert\n    tag_1:\n      pop\n      jumpi(tag_2, lt(calldatasize, 0x04))\n      shr(0xe0, calldataload(0x00))\n      dup1\n      0xa1abcfca\n      eq\n      tag_3\n      jumpi\n    tag_2:\n      0x00\n      dup1\n      revert\n        /* \"contracts/8.sol\":130:533  function Armstrong(uint a)public pure returns(uint){\r... */\n    tag_3:\n      tag_4\n      0x04\n      dup1\n      calldatasize\n      sub\n      dup2\n      add\n      swap1\n      tag_5\n      swap2\n      swap1\n      tag_6\n      jump\t// in\n    tag_5:\n      tag_7\n      jump\t// in\n    tag_4:\n      mload(0x40)\n      tag_8\n      swap2\n      swap1\n      tag_9\n      jump\t// in\n    tag_8:\n      mload(0x40)\n      dup1\n      swap2\n      sub\n      swap1\n      return\n    tag_7:\n        /* \"contracts/8.sol\":176:180  uint */\n      0x00\n        /* \"contracts/8.sol\":192:200  uint num */\n      dup1\n        /* \"contracts/8.sol\":203:204  a */\n      dup3\n        /* \"contracts/8.sol\":192:204  uint num = a */\n      swap1\n      pop\n        /* \"contracts/8.sol\":215:223  uint rem */\n      0x00\n        /* \"contracts/8.sol\":234:242  uint res */\n      dup1\n        /* \"contracts/8.sol\":253:259  uint n */\n      0x00\n        /* \"contracts/8.sol\":280:281  a */\n      dup6\n        /* \"contracts/8.sol\":274:281  num = a */\n      swap4\n      pop\n        /* \"contracts/8.sol\":270:329  for(num = a; num!=0; n++){\r... */\n    tag_11:\n        /* \"contracts/8.sol\":288:289  0 */\n      0x00\n        /* \"contracts/8.sol\":283:286  num */\n      dup5\n        /* \"contracts/8.sol\":283:289  num!=0 */\n      eq\n        /* \"contracts/8.sol\":270:329  for(num = a; num!=0; n++){\r... */\n      tag_12\n      jumpi\n        /* \"contracts/8.sol\":315:317  10 */\n      0x0a\n        /* \"contracts/8.sol\":310:317  num/=10 */\n      dup5\n      tag_14\n      swap2\n      swap1\n      tag_15\n      jump\t// in\n    tag_14:\n      swap4\n      pop\n        /* \"contracts/8.sol\":291:294  n++ */\n      dup1\n      dup1\n      tag_16\n      swap1\n      tag_17\n      jump\t// in\n    tag_16:\n      swap2\n      pop\n      pop\n        /* \"contracts/8.sol\":270:329  for(num = a; num!=0; n++){\r... */\n      jump(tag_11)\n    tag_12:\n        /* \"contracts/8.sol\":349:350  a */\n      dup6\n        /* \"contracts/8.sol\":343:350  num = a */\n      swap4\n      pop\n        /* \"contracts/8.sol\":339:442  for(num = a; num!=0; num/=10){\r... */\n    tag_18:\n        /* \"contracts/8.sol\":357:358  0 */\n      0x00\n        /* \"contracts/8.sol\":352:355  num */\n      dup5\n        /* \"contracts/8.sol\":352:358  num!=0 */\n      eq\n        /* \"contracts/8.sol\":339:442  for(num = a; num!=0; num/=10){\r... */\n      tag_19\n      jumpi\n        /* \"contracts/8.sol\":393:395  10 */\n      0x0a\n        /* \"contracts/8.sol\":389:392  num */\n      dup5\n        /* \"contracts/8.sol\":389:395  num%10 */\n      tag_21\n      swap2\n      swap1\n      tag_22\n      jump\t// in\n    tag_21:\n        /* \"contracts/8.sol\":383:395  rem = num%10 */\n      swap3\n      pop\n        /* \"contracts/8.sol\":429:430  n */\n      dup1\n        /* \"contracts/8.sol\":424:427  rem */\n      dup4\n        /* \"contracts/8.sol\":424:430  rem**n */\n      tag_23\n      swap2\n      swap1\n      tag_24\n      jump\t// in\n    tag_23:\n        /* \"contracts/8.sol\":418:421  res */\n      dup3\n        /* \"contracts/8.sol\":418:430  res + rem**n */\n      tag_25\n      swap2\n      swap1\n      tag_26\n      jump\t// in\n    tag_25:\n        /* \"contracts/8.sol\":412:430  res = res + rem**n */\n      swap2\n      pop\n        /* \"contracts/8.sol\":365:367  10 */\n      0x0a\n        /* \"contracts/8.sol\":360:367  num/=10 */\n      dup5\n      tag_27\n      swap2\n      swap1\n      tag_15\n      jump\t// in\n    tag_27:\n      swap4\n      pop\n        /* \"contracts/8.sol\":339:442  for(num = a; num!=0; num/=10){\r... */\n      jump(tag_18)\n    tag_19:\n        /* \"contracts/8.sol\":465:466  a */\n      dup6\n        /* \"contracts/8.sol\":458:461  res */\n      dup3\n        /* \"contracts/8.sol\":458:466  res == a */\n      eq\n        /* \"contracts/8.sol\":454:504  if (res == a){\r... */\n      iszero\n      tag_28\n      jumpi\n        /* \"contracts/8.sol\":488:489  1 */\n      0x01\n        /* \"contracts/8.sol\":481:489  return 1 */\n      swap5\n      pop\n      pop\n      pop\n      pop\n      pop\n      jump(tag_10)\n        /* \"contracts/8.sol\":454:504  if (res == a){\r... */\n    tag_28:\n        /* \"contracts/8.sol\":524:525  0 */\n      0x00\n        /* \"contracts/8.sol\":517:525  return 0 */\n      swap5\n      pop\n      pop\n      pop\n      pop\n      pop\n        /* \"contracts/8.sol\":130:533  function Armstrong(uint a)public pure returns(uint){\r... */\n    tag_10:\n      swap2\n      swap1\n      pop\n      jump\t// out\n        /* \"#utility.yul\":7:146   */\n    tag_30:\n        /* \"#utility.yul\":53:58   */\n      0x00\n        /* \"#utility.yul\":91:97   */\n      dup2\n        /* \"#utility.yul\":78:98   */\n      calldataload\n        /* \"#utility.yul\":69:98   */\n      swap1\n      pop\n        /* \"#utility.yul\":107:140   */\n      tag_32\n        /* \"#utility.yul\":134:139   */\n      dup2\n        /* \"#utility.yul\":107:140   */\n      tag_33\n      jump\t// in\n    tag_32:\n        /* \"#utility.yul\":7:146   */\n      swap3\n      swap2\n      pop\n      pop\n      jump\t// out\n        /* \"#utility.yul\":152:481   */\n    tag_6:\n        /* \"#utility.yul\":211:217   */\n      0x00\n        /* \"#utility.yul\":260:262   */\n      0x20\n        /* \"#utility.yul\":248:257   */\n      dup3\n        /* \"#utility.yul\":239:246   */\n      dup5\n        /* \"#utility.yul\":235:258   */\n      sub\n        /* \"#utility.yul\":231:263   */\n      slt\n        /* \"#utility.yul\":228:347   */\n      iszero\n      tag_35\n      jumpi\n        /* \"#utility.yul\":266:345   */\n      tag_36\n      tag_37\n      jump\t// in\n    tag_36:\n        /* \"#utility.yul\":228:347   */\n    tag_35:\n        /* \"#utility.yul\":386:387   */\n      0x00\n        /* \"#utility.yul\":411:464   */\n      tag_38\n        /* \"#utility.yul\":456:463   */\n      dup5\n        /* \"#utility.yul\":447:453   */\n      dup3\n        /* \"#utility.yul\":436:445   */\n      dup6\n        /* \"#utility.yul\":432:454   */\n      add\n        /* \"#utility.yul\":411:464   */\n      tag_30\n      jump\t// in\n    tag_38:\n        /* \"#utility.yul\":401:464   */\n      swap2\n      pop\n        /* \"#utility.yul\":357:474   */\n      pop\n        /* \"#utility.yul\":152:481   */\n      swap3\n      swap2\n      pop\n      pop\n      jump\t// out\n        /* \"#utility.yul\":487:605   */\n    tag_39:\n        /* \"#utility.yul\":574:598   */\n      tag_41\n        /* \"#utility.yul\":592:597   */\n      dup2\n        /* \"#utility.yul\":574:598   */\n      tag_42\n      jump\t// in\n    tag_41:\n        /* \"#utility.yul\":569:572   */\n      dup3\n        /* \"#utility.yul\":562:599   */\n      mstore\n        /* \"#utility.yul\":487:605   */\n      pop\n      pop\n      jump\t// out\n        /* \"#utility.yul\":611:833   */\n    tag_9:\n        /* \"#utility.yul\":704:708   */\n      0x00\n        /* \"#utility.yul\":742:744   */\n      0x20\n        /* \"#utility.yul\":731:740   */\n      dup3\n        /* \"#utility.yul\":727:745   */\n      add\n        /* \"#utility.yul\":719:745   */\n      swap1\n      pop\n        /* \"#utility.yul\":755:826   */\n      tag_44\n        /* \"#utility.yul\":823:824   */\n      0x00\n        /* \"#utility.yul\":812:821   */\n      dup4\n        /* \"#utility.yul\":808:825   */\n      add\n        /* \"#utility.yul\":799:805   */\n      dup5\n        /* \"#utility.yul\":755:826   */\n      tag_39\n      jump\t// in\n    tag_44:\n        /* \"#utility.yul\":611:833   */\n      swap3\n      swap2\n      pop\n      pop\n      jump\t// out\n        /* \"#utility.yul\":920:1225   */\n    tag_26:\n        /* \"#utility.yul\":960:963   */\n      0x00\n        /* \"#utility.yul\":979:999   */\n      tag_48\n        /* \"#utility.yul\":997:998   */\n      dup3\n        /* \"#utility.yul\":979:999   */\n      tag_42\n      jump\t// in\n    tag_48:\n        /* \"#utility.yul\":974:999   */\n      swap2\n      pop\n        /* \"#utility.yul\":1013:1033   */\n      tag_49\n        /* \"#utility.yul\":1031:1032   */\n      dup4\n        /* \"#utility.yul\":1013:1033   */\n      tag_42\n      jump\t// in\n    tag_49:\n        /* \"#utility.yul\":1008:1033   */\n      swap3\n      pop\n        /* \"#utility.yul\":1167:1168   */\n      dup3\n        /* \"#utility.yul\":1099:1165   */\n      0xffffffffffffffffffffffffffffffffffffffffffffffffffffffffffffffff\n        /* \"#utility.yul\":1095:1169   */\n      sub\n        /* \"#utility.yul\":1092:1093   */\n      dup3\n        /* \"#utility.yul\":1089:1170   */\n      gt\n        /* \"#utility.yul\":1086:1193   */\n      iszero\n      tag_50\n      jumpi\n        /* \"#utility.yul\":1173:1191   */\n      tag_51\n      tag_52\n      jump\t// in\n    tag_51:\n        /* \"#utility.yul\":1086:1193   */\n    tag_50:\n        /* \"#utility.yul\":1217:1218   */\n      dup3\n        /* \"#utility.yul\":1214:1215   */\n      dup3\n        /* \"#utility.yul\":1210:1219   */\n      add\n        /* \"#utility.yul\":1203:1219   */\n      swap1\n      pop\n        /* \"#utility.yul\":920:1225   */\n      swap3\n      swap2\n      pop\n      pop\n      jump\t// out\n        /* \"#utility.yul\":1231:1416   */\n    tag_15:\n        /* \"#utility.yul\":1271:1272   */\n      0x00\n        /* \"#utility.yul\":1288:1308   */\n      tag_54\n        /* \"#utility.yul\":1306:1307   */\n      dup3\n        /* \"#utility.yul\":1288:1308   */\n      tag_42\n      jump\t// in\n    tag_54:\n        /* \"#utility.yul\":1283:1308   */\n      swap2\n      pop\n        /* \"#utility.yul\":1322:1342   */\n      tag_55\n        /* \"#utility.yul\":1340:1341   */\n      dup4\n        /* \"#utility.yul\":1322:1342   */\n      tag_42\n      jump\t// in\n    tag_55:\n        /* \"#utility.yul\":1317:1342   */\n      swap3\n      pop\n        /* \"#utility.yul\":1361:1362   */\n      dup3\n        /* \"#utility.yul\":1351:1386   */\n      tag_56\n      jumpi\n        /* \"#utility.yul\":1366:1384   */\n      tag_57\n      tag_58\n      jump\t// in\n    tag_57:\n        /* \"#utility.yul\":1351:1386   */\n    tag_56:\n        /* \"#utility.yul\":1408:1409   */\n      dup3\n        /* \"#utility.yul\":1405:1406   */\n      dup3\n        /* \"#utility.yul\":1401:1410   */\n      div\n        /* \"#utility.yul\":1396:1410   */\n      swap1\n      pop\n        /* \"#utility.yul\":1231:1416   */\n      swap3\n      swap2\n      pop\n      pop\n      jump\t// out\n        /* \"#utility.yul\":1422:2270   */\n    tag_59:\n        /* \"#utility.yul\":1483:1488   */\n      0x00\n        /* \"#utility.yul\":1490:1494   */\n      dup1\n        /* \"#utility.yul\":1514:1520   */\n      dup3\n        /* \"#utility.yul\":1505:1520   */\n      swap2\n      pop\n        /* \"#utility.yul\":1538:1543   */\n      dup4\n        /* \"#utility.yul\":1529:1543   */\n      swap1\n      pop\n        /* \"#utility.yul\":1552:2264   */\n    tag_61:\n        /* \"#utility.yul\":1573:1574   */\n      0x01\n        /* \"#utility.yul\":1563:1571   */\n      dup6\n        /* \"#utility.yul\":1560:1575   */\n      gt\n        /* \"#utility.yul\":1552:2264   */\n      iszero\n      tag_63\n      jumpi\n        /* \"#utility.yul\":1668:1672   */\n      dup1\n        /* \"#utility.yul\":1663:1666   */\n      dup7\n        /* \"#utility.yul\":1659:1673   */\n      div\n        /* \"#utility.yul\":1653:1657   */\n      dup2\n        /* \"#utility.yul\":1650:1674   */\n      gt\n        /* \"#utility.yul\":1647:1697   */\n      iszero\n      tag_64\n      jumpi\n        /* \"#utility.yul\":1677:1695   */\n      tag_65\n      tag_52\n      jump\t// in\n    tag_65:\n        /* \"#utility.yul\":1647:1697   */\n    tag_64:\n        /* \"#utility.yul\":1727:1728   */\n      0x01\n        /* \"#utility.yul\":1717:1725   */\n      dup6\n        /* \"#utility.yul\":1713:1729   */\n      and\n        /* \"#utility.yul\":1710:2161   */\n      iszero\n      tag_66\n      jumpi\n        /* \"#utility.yul\":2142:2146   */\n      dup1\n        /* \"#utility.yul\":2135:2140   */\n      dup3\n        /* \"#utility.yul\":2131:2147   */\n      mul\n        /* \"#utility.yul\":2122:2147   */\n      swap2\n      pop\n        /* \"#utility.yul\":1710:2161   */\n    tag_66:\n        /* \"#utility.yul\":2192:2196   */\n      dup1\n        /* \"#utility.yul\":2186:2190   */\n      dup2\n        /* \"#utility.yul\":2182:2197   */\n      mul\n        /* \"#utility.yul\":2174:2197   */\n      swap1\n      pop\n        /* \"#utility.yul\":2222:2254   */\n      tag_67\n        /* \"#utility.yul\":2245:2253   */\n      dup6\n        /* \"#utility.yul\":2222:2254   */\n      tag_68\n      jump\t// in\n    tag_67:\n        /* \"#utility.yul\":2210:2254   */\n      swap5\n      pop\n        /* \"#utility.yul\":1552:2264   */\n      jump(tag_61)\n    tag_63:\n        /* \"#utility.yul\":1422:2270   */\n      swap5\n      pop\n      swap5\n      swap3\n      pop\n      pop\n      pop\n      jump\t// out\n        /* \"#utility.yul\":2276:2561   */\n    tag_24:\n        /* \"#utility.yul\":2336:2341   */\n      0x00\n        /* \"#utility.yul\":2360:2383   */\n      tag_70\n        /* \"#utility.yul\":2378:2382   */\n      dup3\n        /* \"#utility.yul\":2360:2383   */\n      tag_42\n      jump\t// in\n    tag_70:\n        /* \"#utility.yul\":2352:2383   */\n      swap2\n      pop\n        /* \"#utility.yul\":2404:2431   */\n      tag_71\n        /* \"#utility.yul\":2422:2430   */\n      dup4\n        /* \"#utility.yul\":2404:2431   */\n      tag_42\n      jump\t// in\n    tag_71:\n        /* \"#utility.yul\":2392:2431   */\n      swap3\n      pop\n        /* \"#utility.yul\":2450:2554   */\n      tag_72\n        /* \"#utility.yul\":2487:2553   */\n      0xffffffffffffffffffffffffffffffffffffffffffffffffffffffffffffffff\n        /* \"#utility.yul\":2477:2485   */\n      dup5\n        /* \"#utility.yul\":2471:2475   */\n      dup5\n        /* \"#utility.yul\":2450:2554   */\n      tag_73\n      jump\t// in\n    tag_72:\n        /* \"#utility.yul\":2441:2554   */\n      swap1\n      pop\n        /* \"#utility.yul\":2276:2561   */\n      swap3\n      swap2\n      pop\n      pop\n      jump\t// out\n        /* \"#utility.yul\":2567:3640   */\n    tag_73:\n        /* \"#utility.yul\":2621:2626   */\n      0x00\n        /* \"#utility.yul\":2812:2820   */\n      dup3\n        /* \"#utility.yul\":2802:2842   */\n      tag_75\n      jumpi\n        /* \"#utility.yul\":2833:2834   */\n      0x01\n        /* \"#utility.yul\":2824:2834   */\n      swap1\n      pop\n        /* \"#utility.yul\":2835:2840   */\n      jump(tag_74)\n        /* \"#utility.yul\":2802:2842   */\n    tag_75:\n        /* \"#utility.yul\":2861:2865   */\n      dup2\n        /* \"#utility.yul\":2851:2887   */\n      tag_76\n      jumpi\n        /* \"#utility.yul\":2878:2879   */\n      0x00\n        /* \"#utility.yul\":2869:2879   */\n      swap1\n      pop\n        /* \"#utility.yul\":2880:2885   */\n      jump(tag_74)\n        /* \"#utility.yul\":2851:2887   */\n    tag_76:\n        /* \"#utility.yul\":2947:2951   */\n      dup2\n        /* \"#utility.yul\":2995:2996   */\n      0x01\n        /* \"#utility.yul\":2990:3017   */\n      dup2\n      eq\n      tag_78\n      jumpi\n        /* \"#utility.yul\":3031:3032   */\n      0x02\n        /* \"#utility.yul\":3026:3217   */\n      dup2\n      eq\n      tag_79\n      jumpi\n        /* \"#utility.yul\":2940:3217   */\n      jump(tag_77)\n        /* \"#utility.yul\":2990:3017   */\n    tag_78:\n        /* \"#utility.yul\":3008:3009   */\n      0x01\n        /* \"#utility.yul\":2999:3009   */\n      swap2\n      pop\n        /* \"#utility.yul\":3010:3015   */\n      pop\n      jump(tag_74)\n        /* \"#utility.yul\":3026:3217   */\n    tag_79:\n        /* \"#utility.yul\":3071:3074   */\n      0xff\n        /* \"#utility.yul\":3061:3069   */\n      dup5\n        /* \"#utility.yul\":3058:3075   */\n      gt\n        /* \"#utility.yul\":3055:3098   */\n      iszero\n      tag_80\n      jumpi\n        /* \"#utility.yul\":3078:3096   */\n      tag_81\n      tag_52\n      jump\t// in\n    tag_81:\n        /* \"#utility.yul\":3055:3098   */\n    tag_80:\n        /* \"#utility.yul\":3127:3135   */\n      dup4\n        /* \"#utility.yul\":3124:3125   */\n      0x02\n        /* \"#utility.yul\":3120:3136   */\n      exp\n        /* \"#utility.yul\":3111:3136   */\n      swap2\n      pop\n        /* \"#utility.yul\":3162:3165   */\n      dup5\n        /* \"#utility.yul\":3155:3160   */\n      dup3\n        /* \"#utility.yul\":3152:3166   */\n      gt\n        /* \"#utility.yul\":3149:3189   */\n      iszero\n      tag_82\n      jumpi\n        /* \"#utility.yul\":3169:3187   */\n      tag_83\n      tag_52\n      jump\t// in\n    tag_83:\n        /* \"#utility.yul\":3149:3189   */\n    tag_82:\n        /* \"#utility.yul\":3202:3207   */\n      pop\n      jump(tag_74)\n        /* \"#utility.yul\":2940:3217   */\n    tag_77:\n      pop\n        /* \"#utility.yul\":3326:3328   */\n      0x20\n        /* \"#utility.yul\":3316:3324   */\n      dup4\n        /* \"#utility.yul\":3313:3329   */\n      lt\n        /* \"#utility.yul\":3307:3310   */\n      0x0133\n        /* \"#utility.yul\":3301:3305   */\n      dup4\n        /* \"#utility.yul\":3298:3311   */\n      lt\n        /* \"#utility.yul\":3294:3330   */\n      and\n        /* \"#utility.yul\":3276:3278   */\n      0x4e\n        /* \"#utility.yul\":3266:3274   */\n      dup5\n        /* \"#utility.yul\":3263:3279   */\n      lt\n        /* \"#utility.yul\":3258:3260   */\n      0x0b\n        /* \"#utility.yul\":3252:3256   */\n      dup5\n        /* \"#utility.yul\":3249:3261   */\n      lt\n        /* \"#utility.yul\":3245:3280   */\n      and\n        /* \"#utility.yul\":3229:3340   */\n      or\n        /* \"#utility.yul\":3226:3472   */\n      iszero\n      tag_84\n      jumpi\n        /* \"#utility.yul\":3382:3390   */\n      dup3\n        /* \"#utility.yul\":3376:3380   */\n      dup3\n        /* \"#utility.yul\":3372:3391   */\n      exp\n        /* \"#utility.yul\":3363:3391   */\n      swap1\n      pop\n        /* \"#utility.yul\":3417:3420   */\n      dup4\n        /* \"#utility.yul\":3410:3415   */\n      dup2\n        /* \"#utility.yul\":3407:3421   */\n      gt\n        /* \"#utility.yul\":3404:3444   */\n      iszero\n      tag_85\n      jumpi\n        /* \"#utility.yul\":3424:3442   */\n      tag_86\n      tag_52\n      jump\t// in\n    tag_86:\n        /* \"#utility.yul\":3404:3444   */\n    tag_85:\n        /* \"#utility.yul\":3457:3462   */\n      jump(tag_74)\n        /* \"#utility.yul\":3226:3472   */\n    tag_84:\n        /* \"#utility.yul\":3497:3539   */\n      tag_87\n        /* \"#utility.yul\":3535:3538   */\n      dup5\n        /* \"#utility.yul\":3525:3533   */\n      dup5\n        /* \"#utility.yul\":3519:3523   */\n      dup5\n        /* \"#utility.yul\":3516:3517   */\n      0x01\n        /* \"#utility.yul\":3497:3539   */\n      tag_59\n      jump\t// in\n    tag_87:\n        /* \"#utility.yul\":3482:3539   */\n      swap3\n      pop\n      swap1\n      pop\n        /* \"#utility.yul\":3571:3575   */\n      dup2\n        /* \"#utility.yul\":3566:3569   */\n      dup5\n        /* \"#utility.yul\":3562:3576   */\n      div\n        /* \"#utility.yul\":3555:3560   */\n      dup2\n        /* \"#utility.yul\":3552:3577   */\n      gt\n        /* \"#utility.yul\":3549:3600   */\n      iszero\n      tag_88\n      jumpi\n        /* \"#utility.yul\":3580:3598   */\n      tag_89\n      tag_52\n      jump\t// in\n    tag_89:\n        /* \"#utility.yul\":3549:3600   */\n    tag_88:\n        /* \"#utility.yul\":3629:3633   */\n      dup2\n        /* \"#utility.yul\":3622:3627   */\n      dup2\n        /* \"#utility.yul\":3618:3634   */\n      mul\n        /* \"#utility.yul\":3609:3634   */\n      swap1\n      pop\n        /* \"#utility.yul\":2567:3640   */\n    tag_74:\n      swap4\n      swap3\n      pop\n      pop\n      pop\n      jump\t// out\n        /* \"#utility.yul\":3646:3723   */\n    tag_42:\n        /* \"#utility.yul\":3683:3690   */\n      0x00\n        /* \"#utility.yul\":3712:3717   */\n      dup2\n        /* \"#utility.yul\":3701:3717   */\n      swap1\n      pop\n        /* \"#utility.yul\":3646:3723   */\n      swap2\n      swap1\n      pop\n      jump\t// out\n        /* \"#utility.yul\":3729:3962   */\n    tag_17:\n        /* \"#utility.yul\":3768:3771   */\n      0x00\n        /* \"#utility.yul\":3791:3815   */\n      tag_92\n        /* \"#utility.yul\":3809:3814   */\n      dup3\n        /* \"#utility.yul\":3791:3815   */\n      tag_42\n      jump\t// in\n    tag_92:\n        /* \"#utility.yul\":3782:3815   */\n      swap2\n      pop\n        /* \"#utility.yul\":3837:3903   */\n      0xffffffffffffffffffffffffffffffffffffffffffffffffffffffffffffffff\n        /* \"#utility.yul\":3830:3835   */\n      dup3\n        /* \"#utility.yul\":3827:3904   */\n      eq\n        /* \"#utility.yul\":3824:3927   */\n      iszero\n      tag_93\n      jumpi\n        /* \"#utility.yul\":3907:3925   */\n      tag_94\n      tag_52\n      jump\t// in\n    tag_94:\n        /* \"#utility.yul\":3824:3927   */\n    tag_93:\n        /* \"#utility.yul\":3954:3955   */\n      0x01\n        /* \"#utility.yul\":3947:3952   */\n      dup3\n        /* \"#utility.yul\":3943:3956   */\n      add\n        /* \"#utility.yul\":3936:3956   */\n      swap1\n      pop\n        /* \"#utility.yul\":3729:3962   */\n      swap2\n      swap1\n      pop\n      jump\t// out\n        /* \"#utility.yul\":3968:4144   */\n    tag_22:\n        /* \"#utility.yul\":4000:4001   */\n      0x00\n        /* \"#utility.yul\":4017:4037   */\n      tag_96\n        /* \"#utility.yul\":4035:4036   */\n      dup3\n        /* \"#utility.yul\":4017:4037   */\n      tag_42\n      jump\t// in\n    tag_96:\n        /* \"#utility.yul\":4012:4037   */\n      swap2\n      pop\n        /* \"#utility.yul\":4051:4071   */\n      tag_97\n        /* \"#utility.yul\":4069:4070   */\n      dup4\n        /* \"#utility.yul\":4051:4071   */\n      tag_42\n      jump\t// in\n    tag_97:\n        /* \"#utility.yul\":4046:4071   */\n      swap3\n      pop\n        /* \"#utility.yul\":4090:4091   */\n      dup3\n        /* \"#utility.yul\":4080:4115   */\n      tag_98\n      jumpi\n        /* \"#utility.yul\":4095:4113   */\n      tag_99\n      tag_58\n      jump\t// in\n    tag_99:\n        /* \"#utility.yul\":4080:4115   */\n    tag_98:\n        /* \"#utility.yul\":4136:4137   */\n      dup3\n        /* \"#utility.yul\":4133:4134   */\n      dup3\n        /* \"#utility.yul\":4129:4138   */\n      mod\n        /* \"#utility.yul\":4124:4138   */\n      swap1\n      pop\n        /* \"#utility.yul\":3968:4144   */\n      swap3\n      swap2\n      pop\n      pop\n      jump\t// out\n        /* \"#utility.yul\":4150:4330   */\n    tag_52:\n        /* \"#utility.yul\":4198:4275   */\n      0x4e487b7100000000000000000000000000000000000000000000000000000000\n        /* \"#utility.yul\":4195:4196   */\n      0x00\n        /* \"#utility.yul\":4188:4276   */\n      mstore\n        /* \"#utility.yul\":4295:4299   */\n      0x11\n        /* \"#utility.yul\":4292:4293   */\n      0x04\n        /* \"#utility.yul\":4285:4300   */\n      mstore\n        /* \"#utility.yul\":4319:4323   */\n      0x24\n        /* \"#utility.yul\":4316:4317   */\n      0x00\n        /* \"#utility.yul\":4309:4324   */\n      revert\n        /* \"#utility.yul\":4336:4516   */\n    tag_58:\n        /* \"#utility.yul\":4384:4461   */\n      0x4e487b7100000000000000000000000000000000000000000000000000000000\n        /* \"#utility.yul\":4381:4382   */\n      0x00\n        /* \"#utility.yul\":4374:4462   */\n      mstore\n        /* \"#utility.yul\":4481:4485   */\n      0x12\n        /* \"#utility.yul\":4478:4479   */\n      0x04\n        /* \"#utility.yul\":4471:4486   */\n      mstore\n        /* \"#utility.yul\":4505:4509   */\n      0x24\n        /* \"#utility.yul\":4502:4503   */\n      0x00\n        /* \"#utility.yul\":4495:4510   */\n      revert\n        /* \"#utility.yul\":4645:4762   */\n    tag_37:\n        /* \"#utility.yul\":4754:4755   */\n      0x00\n        /* \"#utility.yul\":4751:4752   */\n      dup1\n        /* \"#utility.yul\":4744:4756   */\n      revert\n        /* \"#utility.yul\":4768:4870   */\n    tag_68:\n        /* \"#utility.yul\":4810:4818   */\n      0x00\n        /* \"#utility.yul\":4857:4862   */\n      dup2\n        /* \"#utility.yul\":4854:4855   */\n      0x01\n        /* \"#utility.yul\":4850:4863   */\n      shr\n        /* \"#utility.yul\":4829:4863   */\n      swap1\n      pop\n        /* \"#utility.yul\":4768:4870   */\n      swap2\n      swap1\n      pop\n      jump\t// out\n        /* \"#utility.yul\":4876:4998   */\n    tag_33:\n        /* \"#utility.yul\":4949:4973   */\n      tag_107\n        /* \"#utility.yul\":4967:4972   */\n      dup2\n        /* \"#utility.yul\":4949:4973   */\n      tag_42\n      jump\t// in\n    tag_107:\n        /* \"#utility.yul\":4942:4947   */\n      dup2\n        /* \"#utility.yul\":4939:4974   */\n      eq\n        /* \"#utility.yul\":4929:4992   */\n      tag_108\n      jumpi\n        /* \"#utility.yul\":4988:4989   */\n      0x00\n        /* \"#utility.yul\":4985:4986   */\n      dup1\n        /* \"#utility.yul\":4978:4990   */\n      revert\n        /* \"#utility.yul\":4929:4992   */\n    tag_108:\n        /* \"#utility.yul\":4876:4998   */\n      pop\n      jump\t// out\n\n    auxdata: 0xa2646970667358221220ae24dde5d30dafa6f3053111ed0a207d0ba835fe62ec53132135231f4aca2dfb64736f6c63430008070033\n}\n",
				"bytecode": {
					"linkReferences": {},
					"object": "608060405234801561001057600080fd5b506104a9806100206000396000f3fe608060405234801561001057600080fd5b506004361061002b5760003560e01c8063a1abcfca14610030575b600080fd5b61004a60048036038101906100459190610119565b610060565b6040516100579190610155565b60405180910390f35b60008082905060008060008593505b6000841461009957600a8461008491906101c6565b9350808061009190610372565b91505061006f565b8593505b600084146100e157600a846100b291906103bb565b925080836100c0919061024a565b826100cb9190610170565b9150600a846100da91906101c6565b935061009d565b858214156100f65760019450505050506100ff565b60009450505050505b919050565b6000813590506101138161045c565b92915050565b60006020828403121561012f5761012e61044a565b5b600061013d84828501610104565b91505092915050565b61014f81610368565b82525050565b600060208201905061016a6000830184610146565b92915050565b600061017b82610368565b915061018683610368565b9250827fffffffffffffffffffffffffffffffffffffffffffffffffffffffffffffffff038211156101bb576101ba6103ec565b5b828201905092915050565b60006101d182610368565b91506101dc83610368565b9250826101ec576101eb61041b565b5b828204905092915050565b6000808291508390505b60018511156102415780860481111561021d5761021c6103ec565b5b600185161561022c5780820291505b808102905061023a8561044f565b9450610201565b94509492505050565b600061025582610368565b915061026083610368565b925061028d7fffffffffffffffffffffffffffffffffffffffffffffffffffffffffffffffff8484610295565b905092915050565b6000826102a55760019050610361565b816102b35760009050610361565b81600181146102c957600281146102d357610302565b6001915050610361565b60ff8411156102e5576102e46103ec565b5b8360020a9150848211156102fc576102fb6103ec565b5b50610361565b5060208310610133831016604e8410600b84101617156103375782820a905083811115610332576103316103ec565b5b610361565b61034484848460016101f7565b9250905081840481111561035b5761035a6103ec565b5b81810290505b9392505050565b6000819050919050565b600061037d82610368565b91507fffffffffffffffffffffffffffffffffffffffffffffffffffffffffffffffff8214156103b0576103af6103ec565b5b600182019050919050565b60006103c682610368565b91506103d183610368565b9250826103e1576103e061041b565b5b828206905092915050565b7f4e487b7100000000000000000000000000000000000000000000000000000000600052601160045260246000fd5b7f4e487b7100000000000000000000000000000000000000000000000000000000600052601260045260246000fd5b600080fd5b60008160011c9050919050565b61046581610368565b811461047057600080fd5b5056fea2646970667358221220ae24dde5d30dafa6f3053111ed0a207d0ba835fe62ec53132135231f4aca2dfb64736f6c63430008070033",
					"opcodes": "PUSH1 0x80 PUSH1 0x40 MSTORE CALLVALUE DUP1 ISZERO PUSH2 0x10 JUMPI PUSH1 0x0 DUP1 REVERT JUMPDEST POP PUSH2 0x4A9 DUP1 PUSH2 0x20 PUSH1 0x0 CODECOPY PUSH1 0x0 RETURN INVALID PUSH1 0x80 PUSH1 0x40 MSTORE CALLVALUE DUP1 ISZERO PUSH2 0x10 JUMPI PUSH1 0x0 DUP1 REVERT JUMPDEST POP PUSH1 0x4 CALLDATASIZE LT PUSH2 0x2B JUMPI PUSH1 0x0 CALLDATALOAD PUSH1 0xE0 SHR DUP1 PUSH4 0xA1ABCFCA EQ PUSH2 0x30 JUMPI JUMPDEST PUSH1 0x0 DUP1 REVERT JUMPDEST PUSH2 0x4A PUSH1 0x4 DUP1 CALLDATASIZE SUB DUP2 ADD SWAP1 PUSH2 0x45 SWAP2 SWAP1 PUSH2 0x119 JUMP JUMPDEST PUSH2 0x60 JUMP JUMPDEST PUSH1 0x40 MLOAD PUSH2 0x57 SWAP2 SWAP1 PUSH2 0x155 JUMP JUMPDEST PUSH1 0x40 MLOAD DUP1 SWAP2 SUB SWAP1 RETURN JUMPDEST PUSH1 0x0 DUP1 DUP3 SWAP1 POP PUSH1 0x0 DUP1 PUSH1 0x0 DUP6 SWAP4 POP JUMPDEST PUSH1 0x0 DUP5 EQ PUSH2 0x99 JUMPI PUSH1 0xA DUP5 PUSH2 0x84 SWAP2 SWAP1 PUSH2 0x1C6 JUMP JUMPDEST SWAP4 POP DUP1 DUP1 PUSH2 0x91 SWAP1 PUSH2 0x372 JUMP JUMPDEST SWAP2 POP POP PUSH2 0x6F JUMP JUMPDEST DUP6 SWAP4 POP JUMPDEST PUSH1 0x0 DUP5 EQ PUSH2 0xE1 JUMPI PUSH1 0xA DUP5 PUSH2 0xB2 SWAP2 SWAP1 PUSH2 0x3BB JUMP JUMPDEST SWAP3 POP DUP1 DUP4 PUSH2 0xC0 SWAP2 SWAP1 PUSH2 0x24A JUMP JUMPDEST DUP3 PUSH2 0xCB SWAP2 SWAP1 PUSH2 0x170 JUMP JUMPDEST SWAP2 POP PUSH1 0xA DUP5 PUSH2 0xDA SWAP2 SWAP1 PUSH2 0x1C6 JUMP JUMPDEST SWAP4 POP PUSH2 0x9D JUMP JUMPDEST DUP6 DUP3 EQ ISZERO PUSH2 0xF6 JUMPI PUSH1 0x1 SWAP5 POP POP POP POP POP PUSH2 0xFF JUMP JUMPDEST PUSH1 0x0 SWAP5 POP POP POP POP POP JUMPDEST SWAP2 SWAP1 POP JUMP JUMPDEST PUSH1 0x0 DUP2 CALLDATALOAD SWAP1 POP PUSH2 0x113 DUP2 PUSH2 0x45C JUMP JUMPDEST SWAP3 SWAP2 POP POP JUMP JUMPDEST PUSH1 0x0 PUSH1 0x20 DUP3 DUP5 SUB SLT ISZERO PUSH2 0x12F JUMPI PUSH2 0x12E PUSH2 0x44A JUMP JUMPDEST JUMPDEST PUSH1 0x0 PUSH2 0x13D DUP5 DUP3 DUP6 ADD PUSH2 0x104 JUMP JUMPDEST SWAP2 POP POP SWAP3 SWAP2 POP POP JUMP JUMPDEST PUSH2 0x14F DUP2 PUSH2 0x368 JUMP JUMPDEST DUP3 MSTORE POP POP JUMP JUMPDEST PUSH1 0x0 PUSH1 0x20 DUP3 ADD SWAP1 POP PUSH2 0x16A PUSH1 0x0 DUP4 ADD DUP5 PUSH2 0x146 JUMP JUMPDEST SWAP3 SWAP2 POP POP JUMP JUMPDEST PUSH1 0x0 PUSH2 0x17B DUP3 PUSH2 0x368 JUMP JUMPDEST SWAP2 POP PUSH2 0x186 DUP4 PUSH2 0x368 JUMP JUMPDEST SWAP3 POP DUP3 PUSH32 0xFFFFFFFFFFFFFFFFFFFFFFFFFFFFFFFFFFFFFFFFFFFFFFFFFFFFFFFFFFFFFFFF SUB DUP3 GT ISZERO PUSH2 0x1BB JUMPI PUSH2 0x1BA PUSH2 0x3EC JUMP JUMPDEST JUMPDEST DUP3 DUP3 ADD SWAP1 POP SWAP3 SWAP2 POP POP JUMP JUMPDEST PUSH1 0x0 PUSH2 0x1D1 DUP3 PUSH2 0x368 JUMP JUMPDEST SWAP2 POP PUSH2 0x1DC DUP4 PUSH2 0x368 JUMP JUMPDEST SWAP3 POP DUP3 PUSH2 0x1EC JUMPI PUSH2 0x1EB PUSH2 0x41B JUMP JUMPDEST JUMPDEST DUP3 DUP3 DIV SWAP1 POP SWAP3 SWAP2 POP POP JUMP JUMPDEST PUSH1 0x0 DUP1 DUP3 SWAP2 POP DUP4 SWAP1 POP JUMPDEST PUSH1 0x1 DUP6 GT ISZERO PUSH2 0x241 JUMPI DUP1 DUP7 DIV DUP2 GT ISZERO PUSH2 0x21D JUMPI PUSH2 0x21C PUSH2 0x3EC JUMP JUMPDEST JUMPDEST PUSH1 0x1 DUP6 AND ISZERO PUSH2 0x22C JUMPI DUP1 DUP3 MUL SWAP2 POP JUMPDEST DUP1 DUP2 MUL SWAP1 POP PUSH2 0x23A DUP6 PUSH2 0x44F JUMP JUMPDEST SWAP5 POP PUSH2 0x201 JUMP JUMPDEST SWAP5 POP SWAP5 SWAP3 POP POP POP JUMP JUMPDEST PUSH1 0x0 PUSH2 0x255 DUP3 PUSH2 0x368 JUMP JUMPDEST SWAP2 POP PUSH2 0x260 DUP4 PUSH2 0x368 JUMP JUMPDEST SWAP3 POP PUSH2 0x28D PUSH32 0xFFFFFFFFFFFFFFFFFFFFFFFFFFFFFFFFFFFFFFFFFFFFFFFFFFFFFFFFFFFFFFFF DUP5 DUP5 PUSH2 0x295 JUMP JUMPDEST SWAP1 POP SWAP3 SWAP2 POP POP JUMP JUMPDEST PUSH1 0x0 DUP3 PUSH2 0x2A5 JUMPI PUSH1 0x1 SWAP1 POP PUSH2 0x361 JUMP JUMPDEST DUP2 PUSH2 0x2B3 JUMPI PUSH1 0x0 SWAP1 POP PUSH2 0x361 JUMP JUMPDEST DUP2 PUSH1 0x1 DUP2 EQ PUSH2 0x2C9 JUMPI PUSH1 0x2 DUP2 EQ PUSH2 0x2D3 JUMPI PUSH2 0x302 JUMP JUMPDEST PUSH1 0x1 SWAP2 POP POP PUSH2 0x361 JUMP JUMPDEST PUSH1 0xFF DUP5 GT ISZERO PUSH2 0x2E5 JUMPI PUSH2 0x2E4 PUSH2 0x3EC JUMP JUMPDEST JUMPDEST DUP4 PUSH1 0x2 EXP SWAP2 POP DUP5 DUP3 GT ISZERO PUSH2 0x2FC JUMPI PUSH2 0x2FB PUSH2 0x3EC JUMP JUMPDEST JUMPDEST POP PUSH2 0x361 JUMP JUMPDEST POP PUSH1 0x20 DUP4 LT PUSH2 0x133 DUP4 LT AND PUSH1 0x4E DUP5 LT PUSH1 0xB DUP5 LT AND OR ISZERO PUSH2 0x337 JUMPI DUP3 DUP3 EXP SWAP1 POP DUP4 DUP2 GT ISZERO PUSH2 0x332 JUMPI PUSH2 0x331 PUSH2 0x3EC JUMP JUMPDEST JUMPDEST PUSH2 0x361 JUMP JUMPDEST PUSH2 0x344 DUP5 DUP5 DUP5 PUSH1 0x1 PUSH2 0x1F7 JUMP JUMPDEST SWAP3 POP SWAP1 POP DUP2 DUP5 DIV DUP2 GT ISZERO PUSH2 0x35B JUMPI PUSH2 0x35A PUSH2 0x3EC JUMP JUMPDEST JUMPDEST DUP2 DUP2 MUL SWAP1 POP JUMPDEST SWAP4 SWAP3 POP POP POP JUMP JUMPDEST PUSH1 0x0 DUP2 SWAP1 POP SWAP2 SWAP1 POP JUMP JUMPDEST PUSH1 0x0 PUSH2 0x37D DUP3 PUSH2 0x368 JUMP JUMPDEST SWAP2 POP PUSH32 0xFFFFFFFFFFFFFFFFFFFFFFFFFFFFFFFFFFFFFFFFFFFFFFFFFFFFFFFFFFFFFFFF DUP3 EQ ISZERO PUSH2 0x3B0 JUMPI PUSH2 0x3AF PUSH2 0x3EC JUMP JUMPDEST JUMPDEST PUSH1 0x1 DUP3 ADD SWAP1 POP SWAP2 SWAP1 POP JUMP JUMPDEST PUSH1 0x0 PUSH2 0x3C6 DUP3 PUSH2 0x368 JUMP JUMPDEST SWAP2 POP PUSH2 0x3D1 DUP4 PUSH2 0x368 JUMP JUMPDEST SWAP3 POP DUP3 PUSH2 0x3E1 JUMPI PUSH2 0x3E0 PUSH2 0x41B JUMP JUMPDEST JUMPDEST DUP3 DUP3 MOD SWAP1 POP SWAP3 SWAP2 POP POP JUMP JUMPDEST PUSH32 0x4E487B7100000000000000000000000000000000000000000000000000000000 PUSH1 0x0 MSTORE PUSH1 0x11 PUSH1 0x4 MSTORE PUSH1 0x24 PUSH1 0x0 REVERT JUMPDEST PUSH32 0x4E487B7100000000000000000000000000000000000000000000000000000000 PUSH1 0x0 MSTORE PUSH1 0x12 PUSH1 0x4 MSTORE PUSH1 0x24 PUSH1 0x0 REVERT JUMPDEST PUSH1 0x0 DUP1 REVERT JUMPDEST PUSH1 0x0 DUP2 PUSH1 0x1 SHR SWAP1 POP SWAP2 SWAP1 POP JUMP JUMPDEST PUSH2 0x465 DUP2 PUSH2 0x368 JUMP JUMPDEST DUP2 EQ PUSH2 0x470 JUMPI PUSH1 0x0 DUP1 REVERT JUMPDEST POP JUMP INVALID LOG2 PUSH5 0x6970667358 0x22 SLT KECCAK256 0xAE 0x24 0xDD 0xE5 0xD3 0xD 0xAF 0xA6 RETURN SDIV BALANCE GT 0xED EXP KECCAK256 PUSH30 0xBA835FE62EC53132135231F4ACA2DFB64736F6C63430008070033000000 "
				},
				"gasEstimates": {
					"creation": {
						"codeDepositCost": "238600",
						"executionCost": "281",
						"totalCost": "238881"
					},
					"external": {
						"Armstrong(uint256)": "infinite"
					}
				},
				"methodIdentifiers": {
					"Armstrong(uint256)": "a1abcfca"
				}
			},
			"storageLayout": {
				"storage": [],
				"types": null
			},
			"userdoc": {
				"kind": "user",
				"methods": {},
				"version": 1
			}
		}
	}
}