{
	"contracts/12.sol": {
		"Q12": {
			"abi": [
				{
					"inputs": [
						{
							"internalType": "uint256",
							"name": "a",
							"type": "uint256"
						}
					],
					"name": "add",
					"outputs": [
						{
							"internalType": "uint256",
							"name": "",
							"type": "uint256"
						}
					],
					"stateMutability": "pure",
					"type": "function"
				}
			],
			"devdoc": {
				"kind": "dev",
				"methods": {},
				"version": 1
			},
			"evm": {
				"assembly": "    /* \"contracts/12.sol\":101:379  contract Q12{\r... */\n  mstore(0x40, 0x80)\n  callvalue\n  dup1\n  iszero\n  tag_1\n  jumpi\n  0x00\n  dup1\n  revert\ntag_1:\n  pop\n  dataSize(sub_0)\n  dup1\n  dataOffset(sub_0)\n  0x00\n  codecopy\n  0x00\n  return\nstop\n\nsub_0: assembly {\n        /* \"contracts/12.sol\":101:379  contract Q12{\r... */\n      mstore(0x40, 0x80)\n      callvalue\n      dup1\n      iszero\n      tag_1\n      jumpi\n      0x00\n      dup1\n      revert\n    tag_1:\n      pop\n      jumpi(tag_2, lt(calldatasize, 0x04))\n      shr(0xe0, calldataload(0x00))\n      dup1\n      0x1003e2d2\n      eq\n      tag_3\n      jumpi\n    tag_2:\n      0x00\n      dup1\n      revert\n        /* \"contracts/12.sol\":120:376  function add(uint a)public pure returns(uint){\r... */\n    tag_3:\n      tag_4\n      0x04\n      dup1\n      calldatasize\n      sub\n      dup2\n      add\n      swap1\n      tag_5\n      swap2\n      swap1\n      tag_6\n      jump\t// in\n    tag_5:\n      tag_7\n      jump\t// in\n    tag_4:\n      mload(0x40)\n      tag_8\n      swap2\n      swap1\n      tag_9\n      jump\t// in\n    tag_8:\n      mload(0x40)\n      dup1\n      swap2\n      sub\n      swap1\n      return\n    tag_7:\n        /* \"contracts/12.sol\":160:164  uint */\n      0x00\n        /* \"contracts/12.sol\":176:182  uint r */\n      dup1\n        /* \"contracts/12.sol\":193:201  uint sum */\n      0x00\n        /* \"contracts/12.sol\":213:222  uint temp */\n      dup1\n        /* \"contracts/12.sol\":240:241  a */\n      dup5\n        /* \"contracts/12.sol\":233:241  temp = a */\n      swap1\n      pop\n        /* \"contracts/12.sol\":252:348  while(a > 0){\r... */\n    tag_11:\n        /* \"contracts/12.sol\":262:263  0 */\n      0x00\n        /* \"contracts/12.sol\":258:259  a */\n      dup6\n        /* \"contracts/12.sol\":258:263  a > 0 */\n      gt\n        /* \"contracts/12.sol\":252:348  while(a > 0){\r... */\n      iszero\n      tag_12\n      jumpi\n        /* \"contracts/12.sol\":285:287  10 */\n      0x0a\n        /* \"contracts/12.sol\":283:284  a */\n      dup6\n        /* \"contracts/12.sol\":283:287  a%10 */\n      tag_13\n      swap2\n      swap1\n      tag_14\n      jump\t// in\n    tag_13:\n        /* \"contracts/12.sol\":279:287  r = a%10 */\n      swap3\n      pop\n        /* \"contracts/12.sol\":312:313  r */\n      dup3\n        /* \"contracts/12.sol\":308:311  sum */\n      dup3\n        /* \"contracts/12.sol\":308:313  sum+r */\n      tag_15\n      swap2\n      swap1\n      tag_16\n      jump\t// in\n    tag_15:\n        /* \"contracts/12.sol\":302:313  sum = sum+r */\n      swap2\n      pop\n        /* \"contracts/12.sol\":334:336  10 */\n      0x0a\n        /* \"contracts/12.sol\":332:333  a */\n      dup6\n        /* \"contracts/12.sol\":332:336  a/10 */\n      tag_17\n      swap2\n      swap1\n      tag_18\n      jump\t// in\n    tag_17:\n        /* \"contracts/12.sol\":328:336  a = a/10 */\n      swap5\n      pop\n        /* \"contracts/12.sol\":252:348  while(a > 0){\r... */\n      jump(tag_11)\n    tag_12:\n        /* \"contracts/12.sol\":365:368  sum */\n      dup2\n        /* \"contracts/12.sol\":358:368  return sum */\n      swap4\n      pop\n      pop\n      pop\n      pop\n        /* \"contracts/12.sol\":120:376  function add(uint a)public pure returns(uint){\r... */\n      swap2\n      swap1\n      pop\n      jump\t// out\n        /* \"#utility.yul\":7:146   */\n    tag_20:\n        /* \"#utility.yul\":53:58   */\n      0x00\n        /* \"#utility.yul\":91:97   */\n      dup2\n        /* \"#utility.yul\":78:98   */\n      calldataload\n        /* \"#utility.yul\":69:98   */\n      swap1\n      pop\n        /* \"#utility.yul\":107:140   */\n      tag_22\n        /* \"#utility.yul\":134:139   */\n      dup2\n        /* \"#utility.yul\":107:140   */\n      tag_23\n      jump\t// in\n    tag_22:\n        /* \"#utility.yul\":7:146   */\n      swap3\n      swap2\n      pop\n      pop\n      jump\t// out\n        /* \"#utility.yul\":152:481   */\n    tag_6:\n        /* \"#utility.yul\":211:217   */\n      0x00\n        /* \"#utility.yul\":260:262   */\n      0x20\n        /* \"#utility.yul\":248:257   */\n      dup3\n        /* \"#utility.yul\":239:246   */\n      dup5\n        /* \"#utility.yul\":235:258   */\n      sub\n        /* \"#utility.yul\":231:263   */\n      slt\n        /* \"#utility.yul\":228:347   */\n      iszero\n      tag_25\n      jumpi\n        /* \"#utility.yul\":266:345   */\n      tag_26\n      tag_27\n      jump\t// in\n    tag_26:\n        /* \"#utility.yul\":228:347   */\n    tag_25:\n        /* \"#utility.yul\":386:387   */\n      0x00\n        /* \"#utility.yul\":411:464   */\n      tag_28\n        /* \"#utility.yul\":456:463   */\n      dup5\n        /* \"#utility.yul\":447:453   */\n      dup3\n        /* \"#utility.yul\":436:445   */\n      dup6\n        /* \"#utility.yul\":432:454   */\n      add\n        /* \"#utility.yul\":411:464   */\n      tag_20\n      jump\t// in\n    tag_28:\n        /* \"#utility.yul\":401:464   */\n      swap2\n      pop\n        /* \"#utility.yul\":357:474   */\n      pop\n        /* \"#utility.yul\":152:481   */\n      swap3\n      swap2\n      pop\n      pop\n      jump\t// out\n        /* \"#utility.yul\":487:605   */\n    tag_29:\n        /* \"#utility.yul\":574:598   */\n      tag_31\n        /* \"#utility.yul\":592:597   */\n      dup2\n        /* \"#utility.yul\":574:598   */\n      tag_32\n      jump\t// in\n    tag_31:\n        /* \"#utility.yul\":569:572   */\n      dup3\n        /* \"#utility.yul\":562:599   */\n      mstore\n        /* \"#utility.yul\":487:605   */\n      pop\n      pop\n      jump\t// out\n        /* \"#utility.yul\":611:833   */\n    tag_9:\n        /* \"#utility.yul\":704:708   */\n      0x00\n        /* \"#utility.yul\":742:744   */\n      0x20\n        /* \"#utility.yul\":731:740   */\n      dup3\n        /* \"#utility.yul\":727:745   */\n      add\n        /* \"#utility.yul\":719:745   */\n      swap1\n      pop\n        /* \"#utility.yul\":755:826   */\n      tag_34\n        /* \"#utility.yul\":823:824   */\n      0x00\n        /* \"#utility.yul\":812:821   */\n      dup4\n        /* \"#utility.yul\":808:825   */\n      add\n        /* \"#utility.yul\":799:805   */\n      dup5\n        /* \"#utility.yul\":755:826   */\n      tag_29\n      jump\t// in\n    tag_34:\n        /* \"#utility.yul\":611:833   */\n      swap3\n      swap2\n      pop\n      pop\n      jump\t// out\n        /* \"#utility.yul\":920:1225   */\n    tag_16:\n        /* \"#utility.yul\":960:963   */\n      0x00\n        /* \"#utility.yul\":979:999   */\n      tag_38\n        /* \"#utility.yul\":997:998   */\n      dup3\n        /* \"#utility.yul\":979:999   */\n      tag_32\n      jump\t// in\n    tag_38:\n        /* \"#utility.yul\":974:999   */\n      swap2\n      pop\n        /* \"#utility.yul\":1013:1033   */\n      tag_39\n        /* \"#utility.yul\":1031:1032   */\n      dup4\n        /* \"#utility.yul\":1013:1033   */\n      tag_32\n      jump\t// in\n    tag_39:\n        /* \"#utility.yul\":1008:1033   */\n      swap3\n      pop\n        /* \"#utility.yul\":1167:1168   */\n      dup3\n        /* \"#utility.yul\":1099:1165   */\n      0xffffffffffffffffffffffffffffffffffffffffffffffffffffffffffffffff\n        /* \"#utility.yul\":1095:1169   */\n      sub\n        /* \"#utility.yul\":1092:1093   */\n      dup3\n        /* \"#utility.yul\":1089:1170   */\n      gt\n        /* \"#utility.yul\":1086:1193   */\n      iszero\n      tag_40\n      jumpi\n        /* \"#utility.yul\":1173:1191   */\n      tag_41\n      tag_42\n      jump\t// in\n    tag_41:\n        /* \"#utility.yul\":1086:1193   */\n    tag_40:\n        /* \"#utility.yul\":1217:1218   */\n      dup3\n        /* \"#utility.yul\":1214:1215   */\n      dup3\n        /* \"#utility.yul\":1210:1219   */\n      add\n        /* \"#utility.yul\":1203:1219   */\n      swap1\n      pop\n        /* \"#utility.yul\":920:1225   */\n      swap3\n      swap2\n      pop\n      pop\n      jump\t// out\n        /* \"#utility.yul\":1231:1416   */\n    tag_18:\n        /* \"#utility.yul\":1271:1272   */\n      0x00\n        /* \"#utility.yul\":1288:1308   */\n      tag_44\n        /* \"#utility.yul\":1306:1307   */\n      dup3\n        /* \"#utility.yul\":1288:1308   */\n      tag_32\n      jump\t// in\n    tag_44:\n        /* \"#utility.yul\":1283:1308   */\n      swap2\n      pop\n        /* \"#utility.yul\":1322:1342   */\n      tag_45\n        /* \"#utility.yul\":1340:1341   */\n      dup4\n        /* \"#utility.yul\":1322:1342   */\n      tag_32\n      jump\t// in\n    tag_45:\n        /* \"#utility.yul\":1317:1342   */\n      swap3\n      pop\n        /* \"#utility.yul\":1361:1362   */\n      dup3\n        /* \"#utility.yul\":1351:1386   */\n      tag_46\n      jumpi\n        /* \"#utility.yul\":1366:1384   */\n      tag_47\n      tag_48\n      jump\t// in\n    tag_47:\n        /* \"#utility.yul\":1351:1386   */\n    tag_46:\n        /* \"#utility.yul\":1408:1409   */\n      dup3\n        /* \"#utility.yul\":1405:1406   */\n      dup3\n        /* \"#utility.yul\":1401:1410   */\n      div\n        /* \"#utility.yul\":1396:1410   */\n      swap1\n      pop\n        /* \"#utility.yul\":1231:1416   */\n      swap3\n      swap2\n      pop\n      pop\n      jump\t// out\n        /* \"#utility.yul\":1422:1499   */\n    tag_32:\n        /* \"#utility.yul\":1459:1466   */\n      0x00\n        /* \"#utility.yul\":1488:1493   */\n      dup2\n        /* \"#utility.yul\":1477:1493   */\n      swap1\n      pop\n        /* \"#utility.yul\":1422:1499   */\n      swap2\n      swap1\n      pop\n      jump\t// out\n        /* \"#utility.yul\":1505:1681   */\n    tag_14:\n        /* \"#utility.yul\":1537:1538   */\n      0x00\n        /* \"#utility.yul\":1554:1574   */\n      tag_51\n        /* \"#utility.yul\":1572:1573   */\n      dup3\n        /* \"#utility.yul\":1554:1574   */\n      tag_32\n      jump\t// in\n    tag_51:\n        /* \"#utility.yul\":1549:1574   */\n      swap2\n      pop\n        /* \"#utility.yul\":1588:1608   */\n      tag_52\n        /* \"#utility.yul\":1606:1607   */\n      dup4\n        /* \"#utility.yul\":1588:1608   */\n      tag_32\n      jump\t// in\n    tag_52:\n        /* \"#utility.yul\":1583:1608   */\n      swap3\n      pop\n        /* \"#utility.yul\":1627:1628   */\n      dup3\n        /* \"#utility.yul\":1617:1652   */\n      tag_53\n      jumpi\n        /* \"#utility.yul\":1632:1650   */\n      tag_54\n      tag_48\n      jump\t// in\n    tag_54:\n        /* \"#utility.yul\":1617:1652   */\n    tag_53:\n        /* \"#utility.yul\":1673:1674   */\n      dup3\n        /* \"#utility.yul\":1670:1671   */\n      dup3\n        /* \"#utility.yul\":1666:1675   */\n      mod\n        /* \"#utility.yul\":1661:1675   */\n      swap1\n      pop\n        /* \"#utility.yul\":1505:1681   */\n      swap3\n      swap2\n      pop\n      pop\n      jump\t// out\n        /* \"#utility.yul\":1687:1867   */\n    tag_42:\n        /* \"#utility.yul\":1735:1812   */\n      0x4e487b7100000000000000000000000000000000000000000000000000000000\n        /* \"#utility.yul\":1732:1733   */\n      0x00\n        /* \"#utility.yul\":1725:1813   */\n      mstore\n        /* \"#utility.yul\":1832:1836   */\n      0x11\n        /* \"#utility.yul\":1829:1830   */\n      0x04\n        /* \"#utility.yul\":1822:1837   */\n      mstore\n        /* \"#utility.yul\":1856:1860   */\n      0x24\n        /* \"#utility.yul\":1853:1854   */\n      0x00\n        /* \"#utility.yul\":1846:1861   */\n      revert\n        /* \"#utility.yul\":1873:2053   */\n    tag_48:\n        /* \"#utility.yul\":1921:1998   */\n      0x4e487b7100000000000000000000000000000000000000000000000000000000\n        /* \"#utility.yul\":1918:1919   */\n      0x00\n        /* \"#utility.yul\":1911:1999   */\n      mstore\n        /* \"#utility.yul\":2018:2022   */\n      0x12\n        /* \"#utility.yul\":2015:2016   */\n      0x04\n        /* \"#utility.yul\":2008:2023   */\n      mstore\n        /* \"#utility.yul\":2042:2046   */\n      0x24\n        /* \"#utility.yul\":2039:2040   */\n      0x00\n        /* \"#utility.yul\":2032:2047   */\n      revert\n        /* \"#utility.yul\":2182:2299   */\n    tag_27:\n        /* \"#utility.yul\":2291:2292   */\n      0x00\n        /* \"#utility.yul\":2288:2289   */\n      dup1\n        /* \"#utility.yul\":2281:2293   */\n      revert\n        /* \"#utility.yul\":2305:2427   */\n    tag_23:\n        /* \"#utility.yul\":2378:2402   */\n      tag_61\n        /* \"#utility.yul\":2396:2401   */\n      dup2\n        /* \"#utility.yul\":2378:2402   */\n      tag_32\n      jump\t// in\n    tag_61:\n        /* \"#utility.yul\":2371:2376   */\n      dup2\n        /* \"#utility.yul\":2368:2403   */\n      eq\n        /* \"#utility.yul\":2358:2421   */\n      tag_62\n      jumpi\n        /* \"#utility.yul\":2417:2418   */\n      0x00\n        /* \"#utility.yul\":2414:2415   */\n      dup1\n        /* \"#utility.yul\":2407:2419   */\n      revert\n        /* \"#utility.yul\":2358:2421   */\n    tag_62:\n        /* \"#utility.yul\":2305:2427   */\n      pop\n      jump\t// out\n\n    auxdata: 0xa26469706673582212202707779f2e2506e187791545dfb138a32fbdad4b767217ca35f398b3f8594d5364736f6c63430008070033\n}\n",
				"bytecode": {
					"linkReferences": {},
					"object": "608060405234801561001057600080fd5b5061028d806100206000396000f3fe608060405234801561001057600080fd5b506004361061002b5760003560e01c80631003e2d214610030575b600080fd5b61004a600480360381019061004591906100c4565b610060565b6040516100579190610100565b60405180910390f35b6000806000808490505b60008511156100a457600a8561008091906101ac565b9250828261008e919061011b565b9150600a8561009d9190610171565b945061006a565b819350505050919050565b6000813590506100be81610240565b92915050565b6000602082840312156100da576100d961023b565b5b60006100e8848285016100af565b91505092915050565b6100fa816101a2565b82525050565b600060208201905061011560008301846100f1565b92915050565b6000610126826101a2565b9150610131836101a2565b9250827fffffffffffffffffffffffffffffffffffffffffffffffffffffffffffffffff03821115610166576101656101dd565b5b828201905092915050565b600061017c826101a2565b9150610187836101a2565b9250826101975761019661020c565b5b828204905092915050565b6000819050919050565b60006101b7826101a2565b91506101c2836101a2565b9250826101d2576101d161020c565b5b828206905092915050565b7f4e487b7100000000000000000000000000000000000000000000000000000000600052601160045260246000fd5b7f4e487b7100000000000000000000000000000000000000000000000000000000600052601260045260246000fd5b600080fd5b610249816101a2565b811461025457600080fd5b5056fea26469706673582212202707779f2e2506e187791545dfb138a32fbdad4b767217ca35f398b3f8594d5364736f6c63430008070033",
					"opcodes": "PUSH1 0x80 PUSH1 0x40 MSTORE CALLVALUE DUP1 ISZERO PUSH2 0x10 JUMPI PUSH1 0x0 DUP1 REVERT JUMPDEST POP PUSH2 0x28D DUP1 PUSH2 0x20 PUSH1 0x0 CODECOPY PUSH1 0x0 RETURN INVALID PUSH1 0x80 PUSH1 0x40 MSTORE CALLVALUE DUP1 ISZERO PUSH2 0x10 JUMPI PUSH1 0x0 DUP1 REVERT JUMPDEST POP PUSH1 0x4 CALLDATASIZE LT PUSH2 0x2B JUMPI PUSH1 0x0 CALLDATALOAD PUSH1 0xE0 SHR DUP1 PUSH4 0x1003E2D2 EQ PUSH2 0x30 JUMPI JUMPDEST PUSH1 0x0 DUP1 REVERT JUMPDEST PUSH2 0x4A PUSH1 0x4 DUP1 CALLDATASIZE SUB DUP2 ADD SWAP1 PUSH2 0x45 SWAP2 SWAP1 PUSH2 0xC4 JUMP JUMPDEST PUSH2 0x60 JUMP JUMPDEST PUSH1 0x40 MLOAD PUSH2 0x57 SWAP2 SWAP1 PUSH2 0x100 JUMP JUMPDEST PUSH1 0x40 MLOAD DUP1 SWAP2 SUB SWAP1 RETURN JUMPDEST PUSH1 0x0 DUP1 PUSH1 0x0 DUP1 DUP5 SWAP1 POP JUMPDEST PUSH1 0x0 DUP6 GT ISZERO PUSH2 0xA4 JUMPI PUSH1 0xA DUP6 PUSH2 0x80 SWAP2 SWAP1 PUSH2 0x1AC JUMP JUMPDEST SWAP3 POP DUP3 DUP3 PUSH2 0x8E SWAP2 SWAP1 PUSH2 0x11B JUMP JUMPDEST SWAP2 POP PUSH1 0xA DUP6 PUSH2 0x9D SWAP2 SWAP1 PUSH2 0x171 JUMP JUMPDEST SWAP5 POP PUSH2 0x6A JUMP JUMPDEST DUP2 SWAP4 POP POP POP POP SWAP2 SWAP1 POP JUMP JUMPDEST PUSH1 0x0 DUP2 CALLDATALOAD SWAP1 POP PUSH2 0xBE DUP2 PUSH2 0x240 JUMP JUMPDEST SWAP3 SWAP2 POP POP JUMP JUMPDEST PUSH1 0x0 PUSH1 0x20 DUP3 DUP5 SUB SLT ISZERO PUSH2 0xDA JUMPI PUSH2 0xD9 PUSH2 0x23B JUMP JUMPDEST JUMPDEST PUSH1 0x0 PUSH2 0xE8 DUP5 DUP3 DUP6 ADD PUSH2 0xAF JUMP JUMPDEST SWAP2 POP POP SWAP3 SWAP2 POP POP JUMP JUMPDEST PUSH2 0xFA DUP2 PUSH2 0x1A2 JUMP JUMPDEST DUP3 MSTORE POP POP JUMP JUMPDEST PUSH1 0x0 PUSH1 0x20 DUP3 ADD SWAP1 POP PUSH2 0x115 PUSH1 0x0 DUP4 ADD DUP5 PUSH2 0xF1 JUMP JUMPDEST SWAP3 SWAP2 POP POP JUMP JUMPDEST PUSH1 0x0 PUSH2 0x126 DUP3 PUSH2 0x1A2 JUMP JUMPDEST SWAP2 POP PUSH2 0x131 DUP4 PUSH2 0x1A2 JUMP JUMPDEST SWAP3 POP DUP3 PUSH32 0xFFFFFFFFFFFFFFFFFFFFFFFFFFFFFFFFFFFFFFFFFFFFFFFFFFFFFFFFFFFFFFFF SUB DUP3 GT ISZERO PUSH2 0x166 JUMPI PUSH2 0x165 PUSH2 0x1DD JUMP JUMPDEST JUMPDEST DUP3 DUP3 ADD SWAP1 POP SWAP3 SWAP2 POP POP JUMP JUMPDEST PUSH1 0x0 PUSH2 0x17C DUP3 PUSH2 0x1A2 JUMP JUMPDEST SWAP2 POP PUSH2 0x187 DUP4 PUSH2 0x1A2 JUMP JUMPDEST SWAP3 POP DUP3 PUSH2 0x197 JUMPI PUSH2 0x196 PUSH2 0x20C JUMP JUMPDEST JUMPDEST DUP3 DUP3 DIV SWAP1 POP SWAP3 SWAP2 POP POP JUMP JUMPDEST PUSH1 0x0 DUP2 SWAP1 POP SWAP2 SWAP1 POP JUMP JUMPDEST PUSH1 0x0 PUSH2 0x1B7 DUP3 PUSH2 0x1A2 JUMP JUMPDEST SWAP2 POP PUSH2 0x1C2 DUP4 PUSH2 0x1A2 JUMP JUMPDEST SWAP3 POP DUP3 PUSH2 0x1D2 JUMPI PUSH2 0x1D1 PUSH2 0x20C JUMP JUMPDEST JUMPDEST DUP3 DUP3 MOD SWAP1 POP SWAP3 SWAP2 POP POP JUMP JUMPDEST PUSH32 0x4E487B7100000000000000000000000000000000000000000000000000000000 PUSH1 0x0 MSTORE PUSH1 0x11 PUSH1 0x4 MSTORE PUSH1 0x24 PUSH1 0x0 REVERT JUMPDEST PUSH32 0x4E487B7100000000000000000000000000000000000000000000000000000000 PUSH1 0x0 MSTORE PUSH1 0x12 PUSH1 0x4 MSTORE PUSH1 0x24 PUSH1 0x0 REVERT JUMPDEST PUSH1 0x0 DUP1 REVERT JUMPDEST PUSH2 0x249 DUP2 PUSH2 0x1A2 JUMP JUMPDEST DUP2 EQ PUSH2 0x254 JUMPI PUSH1 0x0 DUP1 REVERT JUMPDEST POP JUMP INVALID LOG2 PUSH5 0x6970667358 0x22 SLT KECCAK256 0x27 SMOD PUSH24 0x9F2E2506E187791545DFB138A32FBDAD4B767217CA35F398 0xB3 0xF8 MSIZE 0x4D MSTORE8 PUSH5 0x736F6C6343 STOP ADDMOD SMOD STOP CALLER "
				},
				"gasEstimates": {
					"creation": {
						"codeDepositCost": "130600",
						"executionCost": "177",
						"totalCost": "130777"
					},
					"external": {
						"add(uint256)": "infinite"
					}
				},
				"methodIdentifiers": {
					"add(uint256)": "1003e2d2"
				}
			},
			"storageLayout": {
				"storage": [],
				"types": null
			},
			"userdoc": {
				"kind": "user",
				"methods": {},
				"version": 1
			}
		}
	}
}