{
	"contracts/6.sol": {
		"Q6": {
			"abi": [
				{
					"inputs": [
						{
							"internalType": "uint256",
							"name": "a",
							"type": "uint256"
						},
						{
							"internalType": "uint256",
							"name": "b",
							"type": "uint256"
						}
					],
					"name": "swap",
					"outputs": [
						{
							"internalType": "uint256",
							"name": "",
							"type": "uint256"
						},
						{
							"internalType": "uint256",
							"name": "",
							"type": "uint256"
						}
					],
					"stateMutability": "pure",
					"type": "function"
				}
			],
			"devdoc": {
				"kind": "dev",
				"methods": {},
				"version": 1
			},
			"evm": {
				"assembly": "    /* \"contracts/6.sol\":133:347  contract Q6{\r... */\n  mstore(0x40, 0x80)\n  callvalue\n  dup1\n  iszero\n  tag_1\n  jumpi\n  0x00\n  dup1\n  revert\ntag_1:\n  pop\n  dataSize(sub_0)\n  dup1\n  dataOffset(sub_0)\n  0x00\n  codecopy\n  0x00\n  return\nstop\n\nsub_0: assembly {\n        /* \"contracts/6.sol\":133:347  contract Q6{\r... */\n      mstore(0x40, 0x80)\n      callvalue\n      dup1\n      iszero\n      tag_1\n      jumpi\n      0x00\n      dup1\n      revert\n    tag_1:\n      pop\n      jumpi(tag_2, lt(calldatasize, 0x04))\n      shr(0xe0, calldataload(0x00))\n      dup1\n      0xd96073cf\n      eq\n      tag_3\n      jumpi\n    tag_2:\n      0x00\n      dup1\n      revert\n        /* \"contracts/6.sol\":151:344  function swap(uint a, uint b)public pure returns(uint, uint){\r... */\n    tag_3:\n      tag_4\n      0x04\n      dup1\n      calldatasize\n      sub\n      dup2\n      add\n      swap1\n      tag_5\n      swap2\n      swap1\n      tag_6\n      jump\t// in\n    tag_5:\n      tag_7\n      jump\t// in\n    tag_4:\n      mload(0x40)\n      tag_8\n      swap3\n      swap2\n      swap1\n      tag_9\n      jump\t// in\n    tag_8:\n      mload(0x40)\n      dup1\n      swap2\n      sub\n      swap1\n      return\n    tag_7:\n        /* \"contracts/6.sol\":200:204  uint */\n      0x00\n        /* \"contracts/6.sol\":206:210  uint */\n      dup1\n        /* \"contracts/6.sol\":226:227  b */\n      dup3\n        /* \"contracts/6.sol\":224:225  a */\n      dup5\n        /* \"contracts/6.sol\":224:227  a+b */\n      tag_11\n      swap2\n      swap1\n      tag_12\n      jump\t// in\n    tag_11:\n        /* \"contracts/6.sol\":222:227  a=a+b */\n      swap4\n      pop\n        /* \"contracts/6.sol\":260:261  b */\n      dup3\n        /* \"contracts/6.sol\":258:259  a */\n      dup5\n        /* \"contracts/6.sol\":258:261  a-b */\n      tag_13\n      swap2\n      swap1\n      tag_14\n      jump\t// in\n    tag_13:\n        /* \"contracts/6.sol\":256:261  b=a-b */\n      swap3\n      pop\n        /* \"contracts/6.sol\":294:295  b */\n      dup3\n        /* \"contracts/6.sol\":292:293  a */\n      dup5\n        /* \"contracts/6.sol\":292:295  a-b */\n      tag_15\n      swap2\n      swap1\n      tag_14\n      jump\t// in\n    tag_15:\n        /* \"contracts/6.sol\":290:295  a=a-b */\n      swap4\n      pop\n        /* \"contracts/6.sol\":331:332  a */\n      dup4\n        /* \"contracts/6.sol\":334:335  b */\n      dup4\n        /* \"contracts/6.sol\":323:336  return (a, b) */\n      swap2\n      pop\n      swap2\n      pop\n        /* \"contracts/6.sol\":151:344  function swap(uint a, uint b)public pure returns(uint, uint){\r... */\n      swap3\n      pop\n      swap3\n      swap1\n      pop\n      jump\t// out\n        /* \"#utility.yul\":7:146   */\n    tag_17:\n        /* \"#utility.yul\":53:58   */\n      0x00\n        /* \"#utility.yul\":91:97   */\n      dup2\n        /* \"#utility.yul\":78:98   */\n      calldataload\n        /* \"#utility.yul\":69:98   */\n      swap1\n      pop\n        /* \"#utility.yul\":107:140   */\n      tag_19\n        /* \"#utility.yul\":134:139   */\n      dup2\n        /* \"#utility.yul\":107:140   */\n      tag_20\n      jump\t// in\n    tag_19:\n        /* \"#utility.yul\":7:146   */\n      swap3\n      swap2\n      pop\n      pop\n      jump\t// out\n        /* \"#utility.yul\":152:626   */\n    tag_6:\n        /* \"#utility.yul\":220:226   */\n      0x00\n        /* \"#utility.yul\":228:234   */\n      dup1\n        /* \"#utility.yul\":277:279   */\n      0x40\n        /* \"#utility.yul\":265:274   */\n      dup4\n        /* \"#utility.yul\":256:263   */\n      dup6\n        /* \"#utility.yul\":252:275   */\n      sub\n        /* \"#utility.yul\":248:280   */\n      slt\n        /* \"#utility.yul\":245:364   */\n      iszero\n      tag_22\n      jumpi\n        /* \"#utility.yul\":283:362   */\n      tag_23\n      tag_24\n      jump\t// in\n    tag_23:\n        /* \"#utility.yul\":245:364   */\n    tag_22:\n        /* \"#utility.yul\":403:404   */\n      0x00\n        /* \"#utility.yul\":428:481   */\n      tag_25\n        /* \"#utility.yul\":473:480   */\n      dup6\n        /* \"#utility.yul\":464:470   */\n      dup3\n        /* \"#utility.yul\":453:462   */\n      dup7\n        /* \"#utility.yul\":449:471   */\n      add\n        /* \"#utility.yul\":428:481   */\n      tag_17\n      jump\t// in\n    tag_25:\n        /* \"#utility.yul\":418:481   */\n      swap3\n      pop\n        /* \"#utility.yul\":374:491   */\n      pop\n        /* \"#utility.yul\":530:532   */\n      0x20\n        /* \"#utility.yul\":556:609   */\n      tag_26\n        /* \"#utility.yul\":601:608   */\n      dup6\n        /* \"#utility.yul\":592:598   */\n      dup3\n        /* \"#utility.yul\":581:590   */\n      dup7\n        /* \"#utility.yul\":577:599   */\n      add\n        /* \"#utility.yul\":556:609   */\n      tag_17\n      jump\t// in\n    tag_26:\n        /* \"#utility.yul\":546:609   */\n      swap2\n      pop\n        /* \"#utility.yul\":501:619   */\n      pop\n        /* \"#utility.yul\":152:626   */\n      swap3\n      pop\n      swap3\n      swap1\n      pop\n      jump\t// out\n        /* \"#utility.yul\":632:750   */\n    tag_27:\n        /* \"#utility.yul\":719:743   */\n      tag_29\n        /* \"#utility.yul\":737:742   */\n      dup2\n        /* \"#utility.yul\":719:743   */\n      tag_30\n      jump\t// in\n    tag_29:\n        /* \"#utility.yul\":714:717   */\n      dup3\n        /* \"#utility.yul\":707:744   */\n      mstore\n        /* \"#utility.yul\":632:750   */\n      pop\n      pop\n      jump\t// out\n        /* \"#utility.yul\":756:1088   */\n    tag_9:\n        /* \"#utility.yul\":877:881   */\n      0x00\n        /* \"#utility.yul\":915:917   */\n      0x40\n        /* \"#utility.yul\":904:913   */\n      dup3\n        /* \"#utility.yul\":900:918   */\n      add\n        /* \"#utility.yul\":892:918   */\n      swap1\n      pop\n        /* \"#utility.yul\":928:999   */\n      tag_32\n        /* \"#utility.yul\":996:997   */\n      0x00\n        /* \"#utility.yul\":985:994   */\n      dup4\n        /* \"#utility.yul\":981:998   */\n      add\n        /* \"#utility.yul\":972:978   */\n      dup6\n        /* \"#utility.yul\":928:999   */\n      tag_27\n      jump\t// in\n    tag_32:\n        /* \"#utility.yul\":1009:1081   */\n      tag_33\n        /* \"#utility.yul\":1077:1079   */\n      0x20\n        /* \"#utility.yul\":1066:1075   */\n      dup4\n        /* \"#utility.yul\":1062:1080   */\n      add\n        /* \"#utility.yul\":1053:1059   */\n      dup5\n        /* \"#utility.yul\":1009:1081   */\n      tag_27\n      jump\t// in\n    tag_33:\n        /* \"#utility.yul\":756:1088   */\n      swap4\n      swap3\n      pop\n      pop\n      pop\n      jump\t// out\n        /* \"#utility.yul\":1175:1480   */\n    tag_12:\n        /* \"#utility.yul\":1215:1218   */\n      0x00\n        /* \"#utility.yul\":1234:1254   */\n      tag_37\n        /* \"#utility.yul\":1252:1253   */\n      dup3\n        /* \"#utility.yul\":1234:1254   */\n      tag_30\n      jump\t// in\n    tag_37:\n        /* \"#utility.yul\":1229:1254   */\n      swap2\n      pop\n        /* \"#utility.yul\":1268:1288   */\n      tag_38\n        /* \"#utility.yul\":1286:1287   */\n      dup4\n        /* \"#utility.yul\":1268:1288   */\n      tag_30\n      jump\t// in\n    tag_38:\n        /* \"#utility.yul\":1263:1288   */\n      swap3\n      pop\n        /* \"#utility.yul\":1422:1423   */\n      dup3\n        /* \"#utility.yul\":1354:1420   */\n      0xffffffffffffffffffffffffffffffffffffffffffffffffffffffffffffffff\n        /* \"#utility.yul\":1350:1424   */\n      sub\n        /* \"#utility.yul\":1347:1348   */\n      dup3\n        /* \"#utility.yul\":1344:1425   */\n      gt\n        /* \"#utility.yul\":1341:1448   */\n      iszero\n      tag_39\n      jumpi\n        /* \"#utility.yul\":1428:1446   */\n      tag_40\n      tag_41\n      jump\t// in\n    tag_40:\n        /* \"#utility.yul\":1341:1448   */\n    tag_39:\n        /* \"#utility.yul\":1472:1473   */\n      dup3\n        /* \"#utility.yul\":1469:1470   */\n      dup3\n        /* \"#utility.yul\":1465:1474   */\n      add\n        /* \"#utility.yul\":1458:1474   */\n      swap1\n      pop\n        /* \"#utility.yul\":1175:1480   */\n      swap3\n      swap2\n      pop\n      pop\n      jump\t// out\n        /* \"#utility.yul\":1486:1677   */\n    tag_14:\n        /* \"#utility.yul\":1526:1530   */\n      0x00\n        /* \"#utility.yul\":1546:1566   */\n      tag_43\n        /* \"#utility.yul\":1564:1565   */\n      dup3\n        /* \"#utility.yul\":1546:1566   */\n      tag_30\n      jump\t// in\n    tag_43:\n        /* \"#utility.yul\":1541:1566   */\n      swap2\n      pop\n        /* \"#utility.yul\":1580:1600   */\n      tag_44\n        /* \"#utility.yul\":1598:1599   */\n      dup4\n        /* \"#utility.yul\":1580:1600   */\n      tag_30\n      jump\t// in\n    tag_44:\n        /* \"#utility.yul\":1575:1600   */\n      swap3\n      pop\n        /* \"#utility.yul\":1619:1620   */\n      dup3\n        /* \"#utility.yul\":1616:1617   */\n      dup3\n        /* \"#utility.yul\":1613:1621   */\n      lt\n        /* \"#utility.yul\":1610:1644   */\n      iszero\n      tag_45\n      jumpi\n        /* \"#utility.yul\":1624:1642   */\n      tag_46\n      tag_41\n      jump\t// in\n    tag_46:\n        /* \"#utility.yul\":1610:1644   */\n    tag_45:\n        /* \"#utility.yul\":1669:1670   */\n      dup3\n        /* \"#utility.yul\":1666:1667   */\n      dup3\n        /* \"#utility.yul\":1662:1671   */\n      sub\n        /* \"#utility.yul\":1654:1671   */\n      swap1\n      pop\n        /* \"#utility.yul\":1486:1677   */\n      swap3\n      swap2\n      pop\n      pop\n      jump\t// out\n        /* \"#utility.yul\":1683:1760   */\n    tag_30:\n        /* \"#utility.yul\":1720:1727   */\n      0x00\n        /* \"#utility.yul\":1749:1754   */\n      dup2\n        /* \"#utility.yul\":1738:1754   */\n      swap1\n      pop\n        /* \"#utility.yul\":1683:1760   */\n      swap2\n      swap1\n      pop\n      jump\t// out\n        /* \"#utility.yul\":1766:1946   */\n    tag_41:\n        /* \"#utility.yul\":1814:1891   */\n      0x4e487b7100000000000000000000000000000000000000000000000000000000\n        /* \"#utility.yul\":1811:1812   */\n      0x00\n        /* \"#utility.yul\":1804:1892   */\n      mstore\n        /* \"#utility.yul\":1911:1915   */\n      0x11\n        /* \"#utility.yul\":1908:1909   */\n      0x04\n        /* \"#utility.yul\":1901:1916   */\n      mstore\n        /* \"#utility.yul\":1935:1939   */\n      0x24\n        /* \"#utility.yul\":1932:1933   */\n      0x00\n        /* \"#utility.yul\":1925:1940   */\n      revert\n        /* \"#utility.yul\":2075:2192   */\n    tag_24:\n        /* \"#utility.yul\":2184:2185   */\n      0x00\n        /* \"#utility.yul\":2181:2182   */\n      dup1\n        /* \"#utility.yul\":2174:2186   */\n      revert\n        /* \"#utility.yul\":2198:2320   */\n    tag_20:\n        /* \"#utility.yul\":2271:2295   */\n      tag_53\n        /* \"#utility.yul\":2289:2294   */\n      dup2\n        /* \"#utility.yul\":2271:2295   */\n      tag_30\n      jump\t// in\n    tag_53:\n        /* \"#utility.yul\":2264:2269   */\n      dup2\n        /* \"#utility.yul\":2261:2296   */\n      eq\n        /* \"#utility.yul\":2251:2314   */\n      tag_54\n      jumpi\n        /* \"#utility.yul\":2310:2311   */\n      0x00\n        /* \"#utility.yul\":2307:2308   */\n      dup1\n        /* \"#utility.yul\":2300:2312   */\n      revert\n        /* \"#utility.yul\":2251:2314   */\n    tag_54:\n        /* \"#utility.yul\":2198:2320   */\n      pop\n      jump\t// out\n\n    auxdata: 0xa264697066735822122079a144de1d72fc0e878ccd8cc3c10a5e351fe5c24e5e4d97772d851ed9d864a664736f6c63430008070033\n}\n",
				"bytecode": {
					"linkReferences": {},
					"object": "608060405234801561001057600080fd5b5061023d806100206000396000f3fe608060405234801561001057600080fd5b506004361061002b5760003560e01c8063d96073cf14610030575b600080fd5b61004a600480360381019061004591906100b0565b610061565b6040516100589291906100ff565b60405180910390f35b60008082846100709190610128565b9350828461007e919061017e565b9250828461008c919061017e565b93508383915091509250929050565b6000813590506100aa816101f0565b92915050565b600080604083850312156100c7576100c66101eb565b5b60006100d58582860161009b565b92505060206100e68582860161009b565b9150509250929050565b6100f9816101b2565b82525050565b600060408201905061011460008301856100f0565b61012160208301846100f0565b9392505050565b6000610133826101b2565b915061013e836101b2565b9250827fffffffffffffffffffffffffffffffffffffffffffffffffffffffffffffffff03821115610173576101726101bc565b5b828201905092915050565b6000610189826101b2565b9150610194836101b2565b9250828210156101a7576101a66101bc565b5b828203905092915050565b6000819050919050565b7f4e487b7100000000000000000000000000000000000000000000000000000000600052601160045260246000fd5b600080fd5b6101f9816101b2565b811461020457600080fd5b5056fea264697066735822122079a144de1d72fc0e878ccd8cc3c10a5e351fe5c24e5e4d97772d851ed9d864a664736f6c63430008070033",
					"opcodes": "PUSH1 0x80 PUSH1 0x40 MSTORE CALLVALUE DUP1 ISZERO PUSH2 0x10 JUMPI PUSH1 0x0 DUP1 REVERT JUMPDEST POP PUSH2 0x23D DUP1 PUSH2 0x20 PUSH1 0x0 CODECOPY PUSH1 0x0 RETURN INVALID PUSH1 0x80 PUSH1 0x40 MSTORE CALLVALUE DUP1 ISZERO PUSH2 0x10 JUMPI PUSH1 0x0 DUP1 REVERT JUMPDEST POP PUSH1 0x4 CALLDATASIZE LT PUSH2 0x2B JUMPI PUSH1 0x0 CALLDATALOAD PUSH1 0xE0 SHR DUP1 PUSH4 0xD96073CF EQ PUSH2 0x30 JUMPI JUMPDEST PUSH1 0x0 DUP1 REVERT JUMPDEST PUSH2 0x4A PUSH1 0x4 DUP1 CALLDATASIZE SUB DUP2 ADD SWAP1 PUSH2 0x45 SWAP2 SWAP1 PUSH2 0xB0 JUMP JUMPDEST PUSH2 0x61 JUMP JUMPDEST PUSH1 0x40 MLOAD PUSH2 0x58 SWAP3 SWAP2 SWAP1 PUSH2 0xFF JUMP JUMPDEST PUSH1 0x40 MLOAD DUP1 SWAP2 SUB SWAP1 RETURN JUMPDEST PUSH1 0x0 DUP1 DUP3 DUP5 PUSH2 0x70 SWAP2 SWAP1 PUSH2 0x128 JUMP JUMPDEST SWAP4 POP DUP3 DUP5 PUSH2 0x7E SWAP2 SWAP1 PUSH2 0x17E JUMP JUMPDEST SWAP3 POP DUP3 DUP5 PUSH2 0x8C SWAP2 SWAP1 PUSH2 0x17E JUMP JUMPDEST SWAP4 POP DUP4 DUP4 SWAP2 POP SWAP2 POP SWAP3 POP SWAP3 SWAP1 POP JUMP JUMPDEST PUSH1 0x0 DUP2 CALLDATALOAD SWAP1 POP PUSH2 0xAA DUP2 PUSH2 0x1F0 JUMP JUMPDEST SWAP3 SWAP2 POP POP JUMP JUMPDEST PUSH1 0x0 DUP1 PUSH1 0x40 DUP4 DUP6 SUB SLT ISZERO PUSH2 0xC7 JUMPI PUSH2 0xC6 PUSH2 0x1EB JUMP JUMPDEST JUMPDEST PUSH1 0x0 PUSH2 0xD5 DUP6 DUP3 DUP7 ADD PUSH2 0x9B JUMP JUMPDEST SWAP3 POP POP PUSH1 0x20 PUSH2 0xE6 DUP6 DUP3 DUP7 ADD PUSH2 0x9B JUMP JUMPDEST SWAP2 POP POP SWAP3 POP SWAP3 SWAP1 POP JUMP JUMPDEST PUSH2 0xF9 DUP2 PUSH2 0x1B2 JUMP JUMPDEST DUP3 MSTORE POP POP JUMP JUMPDEST PUSH1 0x0 PUSH1 0x40 DUP3 ADD SWAP1 POP PUSH2 0x114 PUSH1 0x0 DUP4 ADD DUP6 PUSH2 0xF0 JUMP JUMPDEST PUSH2 0x121 PUSH1 0x20 DUP4 ADD DUP5 PUSH2 0xF0 JUMP JUMPDEST SWAP4 SWAP3 POP POP POP JUMP JUMPDEST PUSH1 0x0 PUSH2 0x133 DUP3 PUSH2 0x1B2 JUMP JUMPDEST SWAP2 POP PUSH2 0x13E DUP4 PUSH2 0x1B2 JUMP JUMPDEST SWAP3 POP DUP3 PUSH32 0xFFFFFFFFFFFFFFFFFFFFFFFFFFFFFFFFFFFFFFFFFFFFFFFFFFFFFFFFFFFFFFFF SUB DUP3 GT ISZERO PUSH2 0x173 JUMPI PUSH2 0x172 PUSH2 0x1BC JUMP JUMPDEST JUMPDEST DUP3 DUP3 ADD SWAP1 POP SWAP3 SWAP2 POP POP JUMP JUMPDEST PUSH1 0x0 PUSH2 0x189 DUP3 PUSH2 0x1B2 JUMP JUMPDEST SWAP2 POP PUSH2 0x194 DUP4 PUSH2 0x1B2 JUMP JUMPDEST SWAP3 POP DUP3 DUP3 LT ISZERO PUSH2 0x1A7 JUMPI PUSH2 0x1A6 PUSH2 0x1BC JUMP JUMPDEST JUMPDEST DUP3 DUP3 SUB SWAP1 POP SWAP3 SWAP2 POP POP JUMP JUMPDEST PUSH1 0x0 DUP2 SWAP1 POP SWAP2 SWAP1 POP JUMP JUMPDEST PUSH32 0x4E487B7100000000000000000000000000000000000000000000000000000000 PUSH1 0x0 MSTORE PUSH1 0x11 PUSH1 0x4 MSTORE PUSH1 0x24 PUSH1 0x0 REVERT JUMPDEST PUSH1 0x0 DUP1 REVERT JUMPDEST PUSH2 0x1F9 DUP2 PUSH2 0x1B2 JUMP JUMPDEST DUP2 EQ PUSH2 0x204 JUMPI PUSH1 0x0 DUP1 REVERT JUMPDEST POP JUMP INVALID LOG2 PUSH5 0x6970667358 0x22 SLT KECCAK256 PUSH26 0xA144DE1D72FC0E878CCD8CC3C10A5E351FE5C24E5E4D97772D85 0x1E 0xD9 0xD8 PUSH5 0xA664736F6C PUSH4 0x43000807 STOP CALLER "
				},
				"gasEstimates": {
					"creation": {
						"codeDepositCost": "114600",
						"executionCost": "159",
						"totalCost": "114759"
					},
					"external": {
						"swap(uint256,uint256)": "infinite"
					}
				},
				"methodIdentifiers": {
					"swap(uint256,uint256)": "d96073cf"
				}
			},
			"storageLayout": {
				"storage": [],
				"types": null
			},
			"userdoc": {
				"kind": "user",
				"methods": {},
				"version": 1
			}
		}
	}
}