{
	"contracts/5.sol": {
		"Q5": {
			"abi": [
				{
					"inputs": [
						{
							"internalType": "uint256",
							"name": "a",
							"type": "uint256"
						},
						{
							"internalType": "uint256",
							"name": "b",
							"type": "uint256"
						}
					],
					"name": "power",
					"outputs": [
						{
							"internalType": "uint256",
							"name": "",
							"type": "uint256"
						}
					],
					"stateMutability": "pure",
					"type": "function"
				}
			],
			"devdoc": {
				"kind": "dev",
				"methods": {},
				"version": 1
			},
			"evm": {
				"assembly": "    /* \"contracts/5.sol\":109:215  contract Q5{\r... */\n  mstore(0x40, 0x80)\n  callvalue\n  dup1\n  iszero\n  tag_1\n  jumpi\n  0x00\n  dup1\n  revert\ntag_1:\n  pop\n  dataSize(sub_0)\n  dup1\n  dataOffset(sub_0)\n  0x00\n  codecopy\n  0x00\n  return\nstop\n\nsub_0: assembly {\n        /* \"contracts/5.sol\":109:215  contract Q5{\r... */\n      mstore(0x40, 0x80)\n      callvalue\n      dup1\n      iszero\n      tag_1\n      jumpi\n      0x00\n      dup1\n      revert\n    tag_1:\n      pop\n      jumpi(tag_2, lt(calldatasize, 0x04))\n      shr(0xe0, calldataload(0x00))\n      dup1\n      0xc04f01fc\n      eq\n      tag_3\n      jumpi\n    tag_2:\n      0x00\n      dup1\n      revert\n        /* \"contracts/5.sol\":127:212  function power(uint a, uint b)public pure returns(uint){\r... */\n    tag_3:\n      tag_4\n      0x04\n      dup1\n      calldatasize\n      sub\n      dup2\n      add\n      swap1\n      tag_5\n      swap2\n      swap1\n      tag_6\n      jump\t// in\n    tag_5:\n      tag_7\n      jump\t// in\n    tag_4:\n      mload(0x40)\n      tag_8\n      swap2\n      swap1\n      tag_9\n      jump\t// in\n    tag_8:\n      mload(0x40)\n      dup1\n      swap2\n      sub\n      swap1\n      return\n    tag_7:\n        /* \"contracts/5.sol\":177:181  uint */\n      0x00\n        /* \"contracts/5.sol\":203:204  b */\n      dup2\n        /* \"contracts/5.sol\":200:201  a */\n      dup4\n        /* \"contracts/5.sol\":200:204  a**b */\n      tag_11\n      swap2\n      swap1\n      tag_12\n      jump\t// in\n    tag_11:\n        /* \"contracts/5.sol\":193:204  return a**b */\n      swap1\n      pop\n        /* \"contracts/5.sol\":127:212  function power(uint a, uint b)public pure returns(uint){\r... */\n      swap3\n      swap2\n      pop\n      pop\n      jump\t// out\n        /* \"#utility.yul\":7:146   */\n    tag_14:\n        /* \"#utility.yul\":53:58   */\n      0x00\n        /* \"#utility.yul\":91:97   */\n      dup2\n        /* \"#utility.yul\":78:98   */\n      calldataload\n        /* \"#utility.yul\":69:98   */\n      swap1\n      pop\n        /* \"#utility.yul\":107:140   */\n      tag_16\n        /* \"#utility.yul\":134:139   */\n      dup2\n        /* \"#utility.yul\":107:140   */\n      tag_17\n      jump\t// in\n    tag_16:\n        /* \"#utility.yul\":7:146   */\n      swap3\n      swap2\n      pop\n      pop\n      jump\t// out\n        /* \"#utility.yul\":152:626   */\n    tag_6:\n        /* \"#utility.yul\":220:226   */\n      0x00\n        /* \"#utility.yul\":228:234   */\n      dup1\n        /* \"#utility.yul\":277:279   */\n      0x40\n        /* \"#utility.yul\":265:274   */\n      dup4\n        /* \"#utility.yul\":256:263   */\n      dup6\n        /* \"#utility.yul\":252:275   */\n      sub\n        /* \"#utility.yul\":248:280   */\n      slt\n        /* \"#utility.yul\":245:364   */\n      iszero\n      tag_19\n      jumpi\n        /* \"#utility.yul\":283:362   */\n      tag_20\n      tag_21\n      jump\t// in\n    tag_20:\n        /* \"#utility.yul\":245:364   */\n    tag_19:\n        /* \"#utility.yul\":403:404   */\n      0x00\n        /* \"#utility.yul\":428:481   */\n      tag_22\n        /* \"#utility.yul\":473:480   */\n      dup6\n        /* \"#utility.yul\":464:470   */\n      dup3\n        /* \"#utility.yul\":453:462   */\n      dup7\n        /* \"#utility.yul\":449:471   */\n      add\n        /* \"#utility.yul\":428:481   */\n      tag_14\n      jump\t// in\n    tag_22:\n        /* \"#utility.yul\":418:481   */\n      swap3\n      pop\n        /* \"#utility.yul\":374:491   */\n      pop\n        /* \"#utility.yul\":530:532   */\n      0x20\n        /* \"#utility.yul\":556:609   */\n      tag_23\n        /* \"#utility.yul\":601:608   */\n      dup6\n        /* \"#utility.yul\":592:598   */\n      dup3\n        /* \"#utility.yul\":581:590   */\n      dup7\n        /* \"#utility.yul\":577:599   */\n      add\n        /* \"#utility.yul\":556:609   */\n      tag_14\n      jump\t// in\n    tag_23:\n        /* \"#utility.yul\":546:609   */\n      swap2\n      pop\n        /* \"#utility.yul\":501:619   */\n      pop\n        /* \"#utility.yul\":152:626   */\n      swap3\n      pop\n      swap3\n      swap1\n      pop\n      jump\t// out\n        /* \"#utility.yul\":632:750   */\n    tag_24:\n        /* \"#utility.yul\":719:743   */\n      tag_26\n        /* \"#utility.yul\":737:742   */\n      dup2\n        /* \"#utility.yul\":719:743   */\n      tag_27\n      jump\t// in\n    tag_26:\n        /* \"#utility.yul\":714:717   */\n      dup3\n        /* \"#utility.yul\":707:744   */\n      mstore\n        /* \"#utility.yul\":632:750   */\n      pop\n      pop\n      jump\t// out\n        /* \"#utility.yul\":756:978   */\n    tag_9:\n        /* \"#utility.yul\":849:853   */\n      0x00\n        /* \"#utility.yul\":887:889   */\n      0x20\n        /* \"#utility.yul\":876:885   */\n      dup3\n        /* \"#utility.yul\":872:890   */\n      add\n        /* \"#utility.yul\":864:890   */\n      swap1\n      pop\n        /* \"#utility.yul\":900:971   */\n      tag_29\n        /* \"#utility.yul\":968:969   */\n      0x00\n        /* \"#utility.yul\":957:966   */\n      dup4\n        /* \"#utility.yul\":953:970   */\n      add\n        /* \"#utility.yul\":944:950   */\n      dup5\n        /* \"#utility.yul\":900:971   */\n      tag_24\n      jump\t// in\n    tag_29:\n        /* \"#utility.yul\":756:978   */\n      swap3\n      swap2\n      pop\n      pop\n      jump\t// out\n        /* \"#utility.yul\":1065:1913   */\n    tag_32:\n        /* \"#utility.yul\":1126:1131   */\n      0x00\n        /* \"#utility.yul\":1133:1137   */\n      dup1\n        /* \"#utility.yul\":1157:1163   */\n      dup3\n        /* \"#utility.yul\":1148:1163   */\n      swap2\n      pop\n        /* \"#utility.yul\":1181:1186   */\n      dup4\n        /* \"#utility.yul\":1172:1186   */\n      swap1\n      pop\n        /* \"#utility.yul\":1195:1907   */\n    tag_34:\n        /* \"#utility.yul\":1216:1217   */\n      0x01\n        /* \"#utility.yul\":1206:1214   */\n      dup6\n        /* \"#utility.yul\":1203:1218   */\n      gt\n        /* \"#utility.yul\":1195:1907   */\n      iszero\n      tag_36\n      jumpi\n        /* \"#utility.yul\":1311:1315   */\n      dup1\n        /* \"#utility.yul\":1306:1309   */\n      dup7\n        /* \"#utility.yul\":1302:1316   */\n      div\n        /* \"#utility.yul\":1296:1300   */\n      dup2\n        /* \"#utility.yul\":1293:1317   */\n      gt\n        /* \"#utility.yul\":1290:1340   */\n      iszero\n      tag_37\n      jumpi\n        /* \"#utility.yul\":1320:1338   */\n      tag_38\n      tag_39\n      jump\t// in\n    tag_38:\n        /* \"#utility.yul\":1290:1340   */\n    tag_37:\n        /* \"#utility.yul\":1370:1371   */\n      0x01\n        /* \"#utility.yul\":1360:1368   */\n      dup6\n        /* \"#utility.yul\":1356:1372   */\n      and\n        /* \"#utility.yul\":1353:1804   */\n      iszero\n      tag_40\n      jumpi\n        /* \"#utility.yul\":1785:1789   */\n      dup1\n        /* \"#utility.yul\":1778:1783   */\n      dup3\n        /* \"#utility.yul\":1774:1790   */\n      mul\n        /* \"#utility.yul\":1765:1790   */\n      swap2\n      pop\n        /* \"#utility.yul\":1353:1804   */\n    tag_40:\n        /* \"#utility.yul\":1835:1839   */\n      dup1\n        /* \"#utility.yul\":1829:1833   */\n      dup2\n        /* \"#utility.yul\":1825:1840   */\n      mul\n        /* \"#utility.yul\":1817:1840   */\n      swap1\n      pop\n        /* \"#utility.yul\":1865:1897   */\n      tag_41\n        /* \"#utility.yul\":1888:1896   */\n      dup6\n        /* \"#utility.yul\":1865:1897   */\n      tag_42\n      jump\t// in\n    tag_41:\n        /* \"#utility.yul\":1853:1897   */\n      swap5\n      pop\n        /* \"#utility.yul\":1195:1907   */\n      jump(tag_34)\n    tag_36:\n        /* \"#utility.yul\":1065:1913   */\n      swap5\n      pop\n      swap5\n      swap3\n      pop\n      pop\n      pop\n      jump\t// out\n        /* \"#utility.yul\":1919:2204   */\n    tag_12:\n        /* \"#utility.yul\":1979:1984   */\n      0x00\n        /* \"#utility.yul\":2003:2026   */\n      tag_44\n        /* \"#utility.yul\":2021:2025   */\n      dup3\n        /* \"#utility.yul\":2003:2026   */\n      tag_27\n      jump\t// in\n    tag_44:\n        /* \"#utility.yul\":1995:2026   */\n      swap2\n      pop\n        /* \"#utility.yul\":2047:2074   */\n      tag_45\n        /* \"#utility.yul\":2065:2073   */\n      dup4\n        /* \"#utility.yul\":2047:2074   */\n      tag_27\n      jump\t// in\n    tag_45:\n        /* \"#utility.yul\":2035:2074   */\n      swap3\n      pop\n        /* \"#utility.yul\":2093:2197   */\n      tag_46\n        /* \"#utility.yul\":2130:2196   */\n      0xffffffffffffffffffffffffffffffffffffffffffffffffffffffffffffffff\n        /* \"#utility.yul\":2120:2128   */\n      dup5\n        /* \"#utility.yul\":2114:2118   */\n      dup5\n        /* \"#utility.yul\":2093:2197   */\n      tag_47\n      jump\t// in\n    tag_46:\n        /* \"#utility.yul\":2084:2197   */\n      swap1\n      pop\n        /* \"#utility.yul\":1919:2204   */\n      swap3\n      swap2\n      pop\n      pop\n      jump\t// out\n        /* \"#utility.yul\":2210:3283   */\n    tag_47:\n        /* \"#utility.yul\":2264:2269   */\n      0x00\n        /* \"#utility.yul\":2455:2463   */\n      dup3\n        /* \"#utility.yul\":2445:2485   */\n      tag_49\n      jumpi\n        /* \"#utility.yul\":2476:2477   */\n      0x01\n        /* \"#utility.yul\":2467:2477   */\n      swap1\n      pop\n        /* \"#utility.yul\":2478:2483   */\n      jump(tag_48)\n        /* \"#utility.yul\":2445:2485   */\n    tag_49:\n        /* \"#utility.yul\":2504:2508   */\n      dup2\n        /* \"#utility.yul\":2494:2530   */\n      tag_50\n      jumpi\n        /* \"#utility.yul\":2521:2522   */\n      0x00\n        /* \"#utility.yul\":2512:2522   */\n      swap1\n      pop\n        /* \"#utility.yul\":2523:2528   */\n      jump(tag_48)\n        /* \"#utility.yul\":2494:2530   */\n    tag_50:\n        /* \"#utility.yul\":2590:2594   */\n      dup2\n        /* \"#utility.yul\":2638:2639   */\n      0x01\n        /* \"#utility.yul\":2633:2660   */\n      dup2\n      eq\n      tag_52\n      jumpi\n        /* \"#utility.yul\":2674:2675   */\n      0x02\n        /* \"#utility.yul\":2669:2860   */\n      dup2\n      eq\n      tag_53\n      jumpi\n        /* \"#utility.yul\":2583:2860   */\n      jump(tag_51)\n        /* \"#utility.yul\":2633:2660   */\n    tag_52:\n        /* \"#utility.yul\":2651:2652   */\n      0x01\n        /* \"#utility.yul\":2642:2652   */\n      swap2\n      pop\n        /* \"#utility.yul\":2653:2658   */\n      pop\n      jump(tag_48)\n        /* \"#utility.yul\":2669:2860   */\n    tag_53:\n        /* \"#utility.yul\":2714:2717   */\n      0xff\n        /* \"#utility.yul\":2704:2712   */\n      dup5\n        /* \"#utility.yul\":2701:2718   */\n      gt\n        /* \"#utility.yul\":2698:2741   */\n      iszero\n      tag_54\n      jumpi\n        /* \"#utility.yul\":2721:2739   */\n      tag_55\n      tag_39\n      jump\t// in\n    tag_55:\n        /* \"#utility.yul\":2698:2741   */\n    tag_54:\n        /* \"#utility.yul\":2770:2778   */\n      dup4\n        /* \"#utility.yul\":2767:2768   */\n      0x02\n        /* \"#utility.yul\":2763:2779   */\n      exp\n        /* \"#utility.yul\":2754:2779   */\n      swap2\n      pop\n        /* \"#utility.yul\":2805:2808   */\n      dup5\n        /* \"#utility.yul\":2798:2803   */\n      dup3\n        /* \"#utility.yul\":2795:2809   */\n      gt\n        /* \"#utility.yul\":2792:2832   */\n      iszero\n      tag_56\n      jumpi\n        /* \"#utility.yul\":2812:2830   */\n      tag_57\n      tag_39\n      jump\t// in\n    tag_57:\n        /* \"#utility.yul\":2792:2832   */\n    tag_56:\n        /* \"#utility.yul\":2845:2850   */\n      pop\n      jump(tag_48)\n        /* \"#utility.yul\":2583:2860   */\n    tag_51:\n      pop\n        /* \"#utility.yul\":2969:2971   */\n      0x20\n        /* \"#utility.yul\":2959:2967   */\n      dup4\n        /* \"#utility.yul\":2956:2972   */\n      lt\n        /* \"#utility.yul\":2950:2953   */\n      0x0133\n        /* \"#utility.yul\":2944:2948   */\n      dup4\n        /* \"#utility.yul\":2941:2954   */\n      lt\n        /* \"#utility.yul\":2937:2973   */\n      and\n        /* \"#utility.yul\":2919:2921   */\n      0x4e\n        /* \"#utility.yul\":2909:2917   */\n      dup5\n        /* \"#utility.yul\":2906:2922   */\n      lt\n        /* \"#utility.yul\":2901:2903   */\n      0x0b\n        /* \"#utility.yul\":2895:2899   */\n      dup5\n        /* \"#utility.yul\":2892:2904   */\n      lt\n        /* \"#utility.yul\":2888:2923   */\n      and\n        /* \"#utility.yul\":2872:2983   */\n      or\n        /* \"#utility.yul\":2869:3115   */\n      iszero\n      tag_58\n      jumpi\n        /* \"#utility.yul\":3025:3033   */\n      dup3\n        /* \"#utility.yul\":3019:3023   */\n      dup3\n        /* \"#utility.yul\":3015:3034   */\n      exp\n        /* \"#utility.yul\":3006:3034   */\n      swap1\n      pop\n        /* \"#utility.yul\":3060:3063   */\n      dup4\n        /* \"#utility.yul\":3053:3058   */\n      dup2\n        /* \"#utility.yul\":3050:3064   */\n      gt\n        /* \"#utility.yul\":3047:3087   */\n      iszero\n      tag_59\n      jumpi\n        /* \"#utility.yul\":3067:3085   */\n      tag_60\n      tag_39\n      jump\t// in\n    tag_60:\n        /* \"#utility.yul\":3047:3087   */\n    tag_59:\n        /* \"#utility.yul\":3100:3105   */\n      jump(tag_48)\n        /* \"#utility.yul\":2869:3115   */\n    tag_58:\n        /* \"#utility.yul\":3140:3182   */\n      tag_61\n        /* \"#utility.yul\":3178:3181   */\n      dup5\n        /* \"#utility.yul\":3168:3176   */\n      dup5\n        /* \"#utility.yul\":3162:3166   */\n      dup5\n        /* \"#utility.yul\":3159:3160   */\n      0x01\n        /* \"#utility.yul\":3140:3182   */\n      tag_32\n      jump\t// in\n    tag_61:\n        /* \"#utility.yul\":3125:3182   */\n      swap3\n      pop\n      swap1\n      pop\n        /* \"#utility.yul\":3214:3218   */\n      dup2\n        /* \"#utility.yul\":3209:3212   */\n      dup5\n        /* \"#utility.yul\":3205:3219   */\n      div\n        /* \"#utility.yul\":3198:3203   */\n      dup2\n        /* \"#utility.yul\":3195:3220   */\n      gt\n        /* \"#utility.yul\":3192:3243   */\n      iszero\n      tag_62\n      jumpi\n        /* \"#utility.yul\":3223:3241   */\n      tag_63\n      tag_39\n      jump\t// in\n    tag_63:\n        /* \"#utility.yul\":3192:3243   */\n    tag_62:\n        /* \"#utility.yul\":3272:3276   */\n      dup2\n        /* \"#utility.yul\":3265:3270   */\n      dup2\n        /* \"#utility.yul\":3261:3277   */\n      mul\n        /* \"#utility.yul\":3252:3277   */\n      swap1\n      pop\n        /* \"#utility.yul\":2210:3283   */\n    tag_48:\n      swap4\n      swap3\n      pop\n      pop\n      pop\n      jump\t// out\n        /* \"#utility.yul\":3289:3366   */\n    tag_27:\n        /* \"#utility.yul\":3326:3333   */\n      0x00\n        /* \"#utility.yul\":3355:3360   */\n      dup2\n        /* \"#utility.yul\":3344:3360   */\n      swap1\n      pop\n        /* \"#utility.yul\":3289:3366   */\n      swap2\n      swap1\n      pop\n      jump\t// out\n        /* \"#utility.yul\":3372:3552   */\n    tag_39:\n        /* \"#utility.yul\":3420:3497   */\n      0x4e487b7100000000000000000000000000000000000000000000000000000000\n        /* \"#utility.yul\":3417:3418   */\n      0x00\n        /* \"#utility.yul\":3410:3498   */\n      mstore\n        /* \"#utility.yul\":3517:3521   */\n      0x11\n        /* \"#utility.yul\":3514:3515   */\n      0x04\n        /* \"#utility.yul\":3507:3522   */\n      mstore\n        /* \"#utility.yul\":3541:3545   */\n      0x24\n        /* \"#utility.yul\":3538:3539   */\n      0x00\n        /* \"#utility.yul\":3531:3546   */\n      revert\n        /* \"#utility.yul\":3681:3798   */\n    tag_21:\n        /* \"#utility.yul\":3790:3791   */\n      0x00\n        /* \"#utility.yul\":3787:3788   */\n      dup1\n        /* \"#utility.yul\":3780:3792   */\n      revert\n        /* \"#utility.yul\":3804:3906   */\n    tag_42:\n        /* \"#utility.yul\":3846:3854   */\n      0x00\n        /* \"#utility.yul\":3893:3898   */\n      dup2\n        /* \"#utility.yul\":3890:3891   */\n      0x01\n        /* \"#utility.yul\":3886:3899   */\n      shr\n        /* \"#utility.yul\":3865:3899   */\n      swap1\n      pop\n        /* \"#utility.yul\":3804:3906   */\n      swap2\n      swap1\n      pop\n      jump\t// out\n        /* \"#utility.yul\":3912:4034   */\n    tag_17:\n        /* \"#utility.yul\":3985:4009   */\n      tag_71\n        /* \"#utility.yul\":4003:4008   */\n      dup2\n        /* \"#utility.yul\":3985:4009   */\n      tag_27\n      jump\t// in\n    tag_71:\n        /* \"#utility.yul\":3978:3983   */\n      dup2\n        /* \"#utility.yul\":3975:4010   */\n      eq\n        /* \"#utility.yul\":3965:4028   */\n      tag_72\n      jumpi\n        /* \"#utility.yul\":4024:4025   */\n      0x00\n        /* \"#utility.yul\":4021:4022   */\n      dup1\n        /* \"#utility.yul\":4014:4026   */\n      revert\n        /* \"#utility.yul\":3965:4028   */\n    tag_72:\n        /* \"#utility.yul\":3912:4034   */\n      pop\n      jump\t// out\n\n    auxdata: 0xa264697066735822122015909bd082dff937cfc9b613595aca5a90bc63298d7cc90ba59702e09f4be30864736f6c63430008070033\n}\n",
				"bytecode": {
					"linkReferences": {},
					"object": "608060405234801561001057600080fd5b506102fe806100206000396000f3fe608060405234801561001057600080fd5b506004361061002b5760003560e01c8063c04f01fc14610030575b600080fd5b61004a6004803603810190610045919061008b565b610060565b60405161005791906100da565b60405180910390f35b6000818361006e9190610148565b905092915050565b600081359050610085816102b1565b92915050565b600080604083850312156100a2576100a161029f565b5b60006100b085828601610076565b92505060206100c185828601610076565b9150509250929050565b6100d481610266565b82525050565b60006020820190506100ef60008301846100cb565b92915050565b6000808291508390505b600185111561013f5780860481111561011b5761011a610270565b5b600185161561012a5780820291505b8081029050610138856102a4565b94506100ff565b94509492505050565b600061015382610266565b915061015e83610266565b925061018b7fffffffffffffffffffffffffffffffffffffffffffffffffffffffffffffffff8484610193565b905092915050565b6000826101a3576001905061025f565b816101b1576000905061025f565b81600181146101c757600281146101d157610200565b600191505061025f565b60ff8411156101e3576101e2610270565b5b8360020a9150848211156101fa576101f9610270565b5b5061025f565b5060208310610133831016604e8410600b84101617156102355782820a9050838111156102305761022f610270565b5b61025f565b61024284848460016100f5565b9250905081840481111561025957610258610270565b5b81810290505b9392505050565b6000819050919050565b7f4e487b7100000000000000000000000000000000000000000000000000000000600052601160045260246000fd5b600080fd5b60008160011c9050919050565b6102ba81610266565b81146102c557600080fd5b5056fea264697066735822122015909bd082dff937cfc9b613595aca5a90bc63298d7cc90ba59702e09f4be30864736f6c63430008070033",
					"opcodes": "PUSH1 0x80 PUSH1 0x40 MSTORE CALLVALUE DUP1 ISZERO PUSH2 0x10 JUMPI PUSH1 0x0 DUP1 REVERT JUMPDEST POP PUSH2 0x2FE DUP1 PUSH2 0x20 PUSH1 0x0 CODECOPY PUSH1 0x0 RETURN INVALID PUSH1 0x80 PUSH1 0x40 MSTORE CALLVALUE DUP1 ISZERO PUSH2 0x10 JUMPI PUSH1 0x0 DUP1 REVERT JUMPDEST POP PUSH1 0x4 CALLDATASIZE LT PUSH2 0x2B JUMPI PUSH1 0x0 CALLDATALOAD PUSH1 0xE0 SHR DUP1 PUSH4 0xC04F01FC EQ PUSH2 0x30 JUMPI JUMPDEST PUSH1 0x0 DUP1 REVERT JUMPDEST PUSH2 0x4A PUSH1 0x4 DUP1 CALLDATASIZE SUB DUP2 ADD SWAP1 PUSH2 0x45 SWAP2 SWAP1 PUSH2 0x8B JUMP JUMPDEST PUSH2 0x60 JUMP JUMPDEST PUSH1 0x40 MLOAD PUSH2 0x57 SWAP2 SWAP1 PUSH2 0xDA JUMP JUMPDEST PUSH1 0x40 MLOAD DUP1 SWAP2 SUB SWAP1 RETURN JUMPDEST PUSH1 0x0 DUP2 DUP4 PUSH2 0x6E SWAP2 SWAP1 PUSH2 0x148 JUMP JUMPDEST SWAP1 POP SWAP3 SWAP2 POP POP JUMP JUMPDEST PUSH1 0x0 DUP2 CALLDATALOAD SWAP1 POP PUSH2 0x85 DUP2 PUSH2 0x2B1 JUMP JUMPDEST SWAP3 SWAP2 POP POP JUMP JUMPDEST PUSH1 0x0 DUP1 PUSH1 0x40 DUP4 DUP6 SUB SLT ISZERO PUSH2 0xA2 JUMPI PUSH2 0xA1 PUSH2 0x29F JUMP JUMPDEST JUMPDEST PUSH1 0x0 PUSH2 0xB0 DUP6 DUP3 DUP7 ADD PUSH2 0x76 JUMP JUMPDEST SWAP3 POP POP PUSH1 0x20 PUSH2 0xC1 DUP6 DUP3 DUP7 ADD PUSH2 0x76 JUMP JUMPDEST SWAP2 POP POP SWAP3 POP SWAP3 SWAP1 POP JUMP JUMPDEST PUSH2 0xD4 DUP2 PUSH2 0x266 JUMP JUMPDEST DUP3 MSTORE POP POP JUMP JUMPDEST PUSH1 0x0 PUSH1 0x20 DUP3 ADD SWAP1 POP PUSH2 0xEF PUSH1 0x0 DUP4 ADD DUP5 PUSH2 0xCB JUMP JUMPDEST SWAP3 SWAP2 POP POP JUMP JUMPDEST PUSH1 0x0 DUP1 DUP3 SWAP2 POP DUP4 SWAP1 POP JUMPDEST PUSH1 0x1 DUP6 GT ISZERO PUSH2 0x13F JUMPI DUP1 DUP7 DIV DUP2 GT ISZERO PUSH2 0x11B JUMPI PUSH2 0x11A PUSH2 0x270 JUMP JUMPDEST JUMPDEST PUSH1 0x1 DUP6 AND ISZERO PUSH2 0x12A JUMPI DUP1 DUP3 MUL SWAP2 POP JUMPDEST DUP1 DUP2 MUL SWAP1 POP PUSH2 0x138 DUP6 PUSH2 0x2A4 JUMP JUMPDEST SWAP5 POP PUSH2 0xFF JUMP JUMPDEST SWAP5 POP SWAP5 SWAP3 POP POP POP JUMP JUMPDEST PUSH1 0x0 PUSH2 0x153 DUP3 PUSH2 0x266 JUMP JUMPDEST SWAP2 POP PUSH2 0x15E DUP4 PUSH2 0x266 JUMP JUMPDEST SWAP3 POP PUSH2 0x18B PUSH32 0xFFFFFFFFFFFFFFFFFFFFFFFFFFFFFFFFFFFFFFFFFFFFFFFFFFFFFFFFFFFFFFFF DUP5 DUP5 PUSH2 0x193 JUMP JUMPDEST SWAP1 POP SWAP3 SWAP2 POP POP JUMP JUMPDEST PUSH1 0x0 DUP3 PUSH2 0x1A3 JUMPI PUSH1 0x1 SWAP1 POP PUSH2 0x25F JUMP JUMPDEST DUP2 PUSH2 0x1B1 JUMPI PUSH1 0x0 SWAP1 POP PUSH2 0x25F JUMP JUMPDEST DUP2 PUSH1 0x1 DUP2 EQ PUSH2 0x1C7 JUMPI PUSH1 0x2 DUP2 EQ PUSH2 0x1D1 JUMPI PUSH2 0x200 JUMP JUMPDEST PUSH1 0x1 SWAP2 POP POP PUSH2 0x25F JUMP JUMPDEST PUSH1 0xFF DUP5 GT ISZERO PUSH2 0x1E3 JUMPI PUSH2 0x1E2 PUSH2 0x270 JUMP JUMPDEST JUMPDEST DUP4 PUSH1 0x2 EXP SWAP2 POP DUP5 DUP3 GT ISZERO PUSH2 0x1FA JUMPI PUSH2 0x1F9 PUSH2 0x270 JUMP JUMPDEST JUMPDEST POP PUSH2 0x25F JUMP JUMPDEST POP PUSH1 0x20 DUP4 LT PUSH2 0x133 DUP4 LT AND PUSH1 0x4E DUP5 LT PUSH1 0xB DUP5 LT AND OR ISZERO PUSH2 0x235 JUMPI DUP3 DUP3 EXP SWAP1 POP DUP4 DUP2 GT ISZERO PUSH2 0x230 JUMPI PUSH2 0x22F PUSH2 0x270 JUMP JUMPDEST JUMPDEST PUSH2 0x25F JUMP JUMPDEST PUSH2 0x242 DUP5 DUP5 DUP5 PUSH1 0x1 PUSH2 0xF5 JUMP JUMPDEST SWAP3 POP SWAP1 POP DUP2 DUP5 DIV DUP2 GT ISZERO PUSH2 0x259 JUMPI PUSH2 0x258 PUSH2 0x270 JUMP JUMPDEST JUMPDEST DUP2 DUP2 MUL SWAP1 POP JUMPDEST SWAP4 SWAP3 POP POP POP JUMP JUMPDEST PUSH1 0x0 DUP2 SWAP1 POP SWAP2 SWAP1 POP JUMP JUMPDEST PUSH32 0x4E487B7100000000000000000000000000000000000000000000000000000000 PUSH1 0x0 MSTORE PUSH1 0x11 PUSH1 0x4 MSTORE PUSH1 0x24 PUSH1 0x0 REVERT JUMPDEST PUSH1 0x0 DUP1 REVERT JUMPDEST PUSH1 0x0 DUP2 PUSH1 0x1 SHR SWAP1 POP SWAP2 SWAP1 POP JUMP JUMPDEST PUSH2 0x2BA DUP2 PUSH2 0x266 JUMP JUMPDEST DUP2 EQ PUSH2 0x2C5 JUMPI PUSH1 0x0 DUP1 REVERT JUMPDEST POP JUMP INVALID LOG2 PUSH5 0x6970667358 0x22 SLT KECCAK256 ISZERO SWAP1 SWAP12 0xD0 DUP3 0xDF 0xF9 CALLDATACOPY 0xCF 0xC9 0xB6 SGT MSIZE GAS 0xCA GAS SWAP1 0xBC PUSH4 0x298D7CC9 SIGNEXTEND 0xA5 SWAP8 MUL 0xE0 SWAP16 0x4B 0xE3 ADDMOD PUSH5 0x736F6C6343 STOP ADDMOD SMOD STOP CALLER "
				},
				"gasEstimates": {
					"creation": {
						"codeDepositCost": "153200",
						"executionCost": "196",
						"totalCost": "153396"
					},
					"external": {
						"power(uint256,uint256)": "infinite"
					}
				},
				"methodIdentifiers": {
					"power(uint256,uint256)": "c04f01fc"
				}
			},
			"storageLayout": {
				"storage": [],
				"types": null
			},
			"userdoc": {
				"kind": "user",
				"methods": {},
				"version": 1
			}
		}
	}
}