{
	"contracts/7.sol": {
		"Q7": {
			"abi": [
				{
					"inputs": [
						{
							"internalType": "uint256",
							"name": "a",
							"type": "uint256"
						}
					],
					"name": "prime",
					"outputs": [
						{
							"internalType": "uint256",
							"name": "",
							"type": "uint256"
						}
					],
					"stateMutability": "pure",
					"type": "function"
				}
			],
			"devdoc": {
				"kind": "dev",
				"methods": {},
				"version": 1
			},
			"evm": {
				"assembly": "    /* \"contracts/7.sol\":120:506  contract Q7{\r... */\n  mstore(0x40, 0x80)\n  callvalue\n  dup1\n  iszero\n  tag_1\n  jumpi\n  0x00\n  dup1\n  revert\ntag_1:\n  pop\n  dataSize(sub_0)\n  dup1\n  dataOffset(sub_0)\n  0x00\n  codecopy\n  0x00\n  return\nstop\n\nsub_0: assembly {\n        /* \"contracts/7.sol\":120:506  contract Q7{\r... */\n      mstore(0x40, 0x80)\n      callvalue\n      dup1\n      iszero\n      tag_1\n      jumpi\n      0x00\n      dup1\n      revert\n    tag_1:\n      pop\n      jumpi(tag_2, lt(calldatasize, 0x04))\n      shr(0xe0, calldataload(0x00))\n      dup1\n      0x72e0e984\n      eq\n      tag_3\n      jumpi\n    tag_2:\n      0x00\n      dup1\n      revert\n        /* \"contracts/7.sol\":138:503  function prime(uint a)public pure returns(uint){\r... */\n    tag_3:\n      tag_4\n      0x04\n      dup1\n      calldatasize\n      sub\n      dup2\n      add\n      swap1\n      tag_5\n      swap2\n      swap1\n      tag_6\n      jump\t// in\n    tag_5:\n      tag_7\n      jump\t// in\n    tag_4:\n      mload(0x40)\n      tag_8\n      swap2\n      swap1\n      tag_9\n      jump\t// in\n    tag_8:\n      mload(0x40)\n      dup1\n      swap2\n      sub\n      swap1\n      return\n    tag_7:\n        /* \"contracts/7.sol\":180:184  uint */\n      0x00\n        /* \"contracts/7.sol\":196:204  int flag */\n      dup1\n        /* \"contracts/7.sol\":225:226  0 */\n      0x00\n        /* \"contracts/7.sol\":220:221  a */\n      dup4\n        /* \"contracts/7.sol\":220:226  a == 0 */\n      eq\n        /* \"contracts/7.sol\":220:236  a == 0 || a == 1 */\n      dup1\n      tag_11\n      jumpi\n      pop\n        /* \"contracts/7.sol\":235:236  1 */\n      0x01\n        /* \"contracts/7.sol\":230:231  a */\n      dup4\n        /* \"contracts/7.sol\":230:236  a == 1 */\n      eq\n        /* \"contracts/7.sol\":220:236  a == 0 || a == 1 */\n    tag_11:\n        /* \"contracts/7.sol\":217:272  if(a == 0 || a == 1){\r... */\n      iszero\n      tag_12\n      jumpi\n        /* \"contracts/7.sol\":259:260  1 */\n      0x01\n        /* \"contracts/7.sol\":252:260  flag = 1 */\n      swap1\n      pop\n        /* \"contracts/7.sol\":217:272  if(a == 0 || a == 1){\r... */\n    tag_12:\n        /* \"contracts/7.sol\":288:294  uint i */\n      0x00\n        /* \"contracts/7.sol\":295:296  2 */\n      0x02\n        /* \"contracts/7.sol\":288:296  uint i=2 */\n      swap1\n      pop\n        /* \"contracts/7.sol\":284:413  for(uint i=2;i<=a/2;i++){\r... */\n    tag_13:\n        /* \"contracts/7.sol\":302:303  2 */\n      0x02\n        /* \"contracts/7.sol\":300:301  a */\n      dup5\n        /* \"contracts/7.sol\":300:303  a/2 */\n      tag_16\n      swap2\n      swap1\n      tag_17\n      jump\t// in\n    tag_16:\n        /* \"contracts/7.sol\":297:298  i */\n      dup2\n        /* \"contracts/7.sol\":297:303  i<=a/2 */\n      gt\n        /* \"contracts/7.sol\":284:413  for(uint i=2;i<=a/2;i++){\r... */\n      tag_14\n      jumpi\n        /* \"contracts/7.sol\":333:334  0 */\n      0x00\n        /* \"contracts/7.sol\":328:329  i */\n      dup2\n        /* \"contracts/7.sol\":326:327  a */\n      dup6\n        /* \"contracts/7.sol\":326:329  a%i */\n      tag_18\n      swap2\n      swap1\n      tag_19\n      jump\t// in\n    tag_18:\n        /* \"contracts/7.sol\":326:334  a%i == 0 */\n      eq\n        /* \"contracts/7.sol\":323:402  if(a%i == 0){\r... */\n      iszero\n      tag_20\n      jumpi\n        /* \"contracts/7.sol\":361:362  1 */\n      0x01\n        /* \"contracts/7.sol\":354:362  flag = 1 */\n      swap2\n      pop\n        /* \"contracts/7.sol\":381:386  break */\n      jump(tag_14)\n        /* \"contracts/7.sol\":323:402  if(a%i == 0){\r... */\n    tag_20:\n        /* \"contracts/7.sol\":304:307  i++ */\n      dup1\n      dup1\n      tag_21\n      swap1\n      tag_22\n      jump\t// in\n    tag_21:\n      swap2\n      pop\n      pop\n        /* \"contracts/7.sol\":284:413  for(uint i=2;i<=a/2;i++){\r... */\n      jump(tag_13)\n    tag_14:\n      pop\n        /* \"contracts/7.sol\":436:437  0 */\n      0x00\n        /* \"contracts/7.sol\":428:432  flag */\n      dup2\n        /* \"contracts/7.sol\":428:437  flag == 0 */\n      eq\n        /* \"contracts/7.sol\":425:473  if(flag == 0){\r... */\n      iszero\n      tag_23\n      jumpi\n        /* \"contracts/7.sol\":460:461  1 */\n      0x01\n        /* \"contracts/7.sol\":453:461  return 1 */\n      swap2\n      pop\n      pop\n      jump(tag_10)\n        /* \"contracts/7.sol\":425:473  if(flag == 0){\r... */\n    tag_23:\n        /* \"contracts/7.sol\":494:495  0 */\n      0x00\n        /* \"contracts/7.sol\":487:495  return 0 */\n      swap2\n      pop\n      pop\n        /* \"contracts/7.sol\":138:503  function prime(uint a)public pure returns(uint){\r... */\n    tag_10:\n      swap2\n      swap1\n      pop\n      jump\t// out\n        /* \"#utility.yul\":7:146   */\n    tag_25:\n        /* \"#utility.yul\":53:58   */\n      0x00\n        /* \"#utility.yul\":91:97   */\n      dup2\n        /* \"#utility.yul\":78:98   */\n      calldataload\n        /* \"#utility.yul\":69:98   */\n      swap1\n      pop\n        /* \"#utility.yul\":107:140   */\n      tag_27\n        /* \"#utility.yul\":134:139   */\n      dup2\n        /* \"#utility.yul\":107:140   */\n      tag_28\n      jump\t// in\n    tag_27:\n        /* \"#utility.yul\":7:146   */\n      swap3\n      swap2\n      pop\n      pop\n      jump\t// out\n        /* \"#utility.yul\":152:481   */\n    tag_6:\n        /* \"#utility.yul\":211:217   */\n      0x00\n        /* \"#utility.yul\":260:262   */\n      0x20\n        /* \"#utility.yul\":248:257   */\n      dup3\n        /* \"#utility.yul\":239:246   */\n      dup5\n        /* \"#utility.yul\":235:258   */\n      sub\n        /* \"#utility.yul\":231:263   */\n      slt\n        /* \"#utility.yul\":228:347   */\n      iszero\n      tag_30\n      jumpi\n        /* \"#utility.yul\":266:345   */\n      tag_31\n      tag_32\n      jump\t// in\n    tag_31:\n        /* \"#utility.yul\":228:347   */\n    tag_30:\n        /* \"#utility.yul\":386:387   */\n      0x00\n        /* \"#utility.yul\":411:464   */\n      tag_33\n        /* \"#utility.yul\":456:463   */\n      dup5\n        /* \"#utility.yul\":447:453   */\n      dup3\n        /* \"#utility.yul\":436:445   */\n      dup6\n        /* \"#utility.yul\":432:454   */\n      add\n        /* \"#utility.yul\":411:464   */\n      tag_25\n      jump\t// in\n    tag_33:\n        /* \"#utility.yul\":401:464   */\n      swap2\n      pop\n        /* \"#utility.yul\":357:474   */\n      pop\n        /* \"#utility.yul\":152:481   */\n      swap3\n      swap2\n      pop\n      pop\n      jump\t// out\n        /* \"#utility.yul\":487:605   */\n    tag_34:\n        /* \"#utility.yul\":574:598   */\n      tag_36\n        /* \"#utility.yul\":592:597   */\n      dup2\n        /* \"#utility.yul\":574:598   */\n      tag_37\n      jump\t// in\n    tag_36:\n        /* \"#utility.yul\":569:572   */\n      dup3\n        /* \"#utility.yul\":562:599   */\n      mstore\n        /* \"#utility.yul\":487:605   */\n      pop\n      pop\n      jump\t// out\n        /* \"#utility.yul\":611:833   */\n    tag_9:\n        /* \"#utility.yul\":704:708   */\n      0x00\n        /* \"#utility.yul\":742:744   */\n      0x20\n        /* \"#utility.yul\":731:740   */\n      dup3\n        /* \"#utility.yul\":727:745   */\n      add\n        /* \"#utility.yul\":719:745   */\n      swap1\n      pop\n        /* \"#utility.yul\":755:826   */\n      tag_39\n        /* \"#utility.yul\":823:824   */\n      0x00\n        /* \"#utility.yul\":812:821   */\n      dup4\n        /* \"#utility.yul\":808:825   */\n      add\n        /* \"#utility.yul\":799:805   */\n      dup5\n        /* \"#utility.yul\":755:826   */\n      tag_34\n      jump\t// in\n    tag_39:\n        /* \"#utility.yul\":611:833   */\n      swap3\n      swap2\n      pop\n      pop\n      jump\t// out\n        /* \"#utility.yul\":920:1105   */\n    tag_17:\n        /* \"#utility.yul\":960:961   */\n      0x00\n        /* \"#utility.yul\":977:997   */\n      tag_43\n        /* \"#utility.yul\":995:996   */\n      dup3\n        /* \"#utility.yul\":977:997   */\n      tag_37\n      jump\t// in\n    tag_43:\n        /* \"#utility.yul\":972:997   */\n      swap2\n      pop\n        /* \"#utility.yul\":1011:1031   */\n      tag_44\n        /* \"#utility.yul\":1029:1030   */\n      dup4\n        /* \"#utility.yul\":1011:1031   */\n      tag_37\n      jump\t// in\n    tag_44:\n        /* \"#utility.yul\":1006:1031   */\n      swap3\n      pop\n        /* \"#utility.yul\":1050:1051   */\n      dup3\n        /* \"#utility.yul\":1040:1075   */\n      tag_45\n      jumpi\n        /* \"#utility.yul\":1055:1073   */\n      tag_46\n      tag_47\n      jump\t// in\n    tag_46:\n        /* \"#utility.yul\":1040:1075   */\n    tag_45:\n        /* \"#utility.yul\":1097:1098   */\n      dup3\n        /* \"#utility.yul\":1094:1095   */\n      dup3\n        /* \"#utility.yul\":1090:1099   */\n      div\n        /* \"#utility.yul\":1085:1099   */\n      swap1\n      pop\n        /* \"#utility.yul\":920:1105   */\n      swap3\n      swap2\n      pop\n      pop\n      jump\t// out\n        /* \"#utility.yul\":1111:1188   */\n    tag_37:\n        /* \"#utility.yul\":1148:1155   */\n      0x00\n        /* \"#utility.yul\":1177:1182   */\n      dup2\n        /* \"#utility.yul\":1166:1182   */\n      swap1\n      pop\n        /* \"#utility.yul\":1111:1188   */\n      swap2\n      swap1\n      pop\n      jump\t// out\n        /* \"#utility.yul\":1194:1427   */\n    tag_22:\n        /* \"#utility.yul\":1233:1236   */\n      0x00\n        /* \"#utility.yul\":1256:1280   */\n      tag_50\n        /* \"#utility.yul\":1274:1279   */\n      dup3\n        /* \"#utility.yul\":1256:1280   */\n      tag_37\n      jump\t// in\n    tag_50:\n        /* \"#utility.yul\":1247:1280   */\n      swap2\n      pop\n        /* \"#utility.yul\":1302:1368   */\n      0xffffffffffffffffffffffffffffffffffffffffffffffffffffffffffffffff\n        /* \"#utility.yul\":1295:1300   */\n      dup3\n        /* \"#utility.yul\":1292:1369   */\n      eq\n        /* \"#utility.yul\":1289:1392   */\n      iszero\n      tag_51\n      jumpi\n        /* \"#utility.yul\":1372:1390   */\n      tag_52\n      tag_53\n      jump\t// in\n    tag_52:\n        /* \"#utility.yul\":1289:1392   */\n    tag_51:\n        /* \"#utility.yul\":1419:1420   */\n      0x01\n        /* \"#utility.yul\":1412:1417   */\n      dup3\n        /* \"#utility.yul\":1408:1421   */\n      add\n        /* \"#utility.yul\":1401:1421   */\n      swap1\n      pop\n        /* \"#utility.yul\":1194:1427   */\n      swap2\n      swap1\n      pop\n      jump\t// out\n        /* \"#utility.yul\":1433:1609   */\n    tag_19:\n        /* \"#utility.yul\":1465:1466   */\n      0x00\n        /* \"#utility.yul\":1482:1502   */\n      tag_55\n        /* \"#utility.yul\":1500:1501   */\n      dup3\n        /* \"#utility.yul\":1482:1502   */\n      tag_37\n      jump\t// in\n    tag_55:\n        /* \"#utility.yul\":1477:1502   */\n      swap2\n      pop\n        /* \"#utility.yul\":1516:1536   */\n      tag_56\n        /* \"#utility.yul\":1534:1535   */\n      dup4\n        /* \"#utility.yul\":1516:1536   */\n      tag_37\n      jump\t// in\n    tag_56:\n        /* \"#utility.yul\":1511:1536   */\n      swap3\n      pop\n        /* \"#utility.yul\":1555:1556   */\n      dup3\n        /* \"#utility.yul\":1545:1580   */\n      tag_57\n      jumpi\n        /* \"#utility.yul\":1560:1578   */\n      tag_58\n      tag_47\n      jump\t// in\n    tag_58:\n        /* \"#utility.yul\":1545:1580   */\n    tag_57:\n        /* \"#utility.yul\":1601:1602   */\n      dup3\n        /* \"#utility.yul\":1598:1599   */\n      dup3\n        /* \"#utility.yul\":1594:1603   */\n      mod\n        /* \"#utility.yul\":1589:1603   */\n      swap1\n      pop\n        /* \"#utility.yul\":1433:1609   */\n      swap3\n      swap2\n      pop\n      pop\n      jump\t// out\n        /* \"#utility.yul\":1615:1795   */\n    tag_53:\n        /* \"#utility.yul\":1663:1740   */\n      0x4e487b7100000000000000000000000000000000000000000000000000000000\n        /* \"#utility.yul\":1660:1661   */\n      0x00\n        /* \"#utility.yul\":1653:1741   */\n      mstore\n        /* \"#utility.yul\":1760:1764   */\n      0x11\n        /* \"#utility.yul\":1757:1758   */\n      0x04\n        /* \"#utility.yul\":1750:1765   */\n      mstore\n        /* \"#utility.yul\":1784:1788   */\n      0x24\n        /* \"#utility.yul\":1781:1782   */\n      0x00\n        /* \"#utility.yul\":1774:1789   */\n      revert\n        /* \"#utility.yul\":1801:1981   */\n    tag_47:\n        /* \"#utility.yul\":1849:1926   */\n      0x4e487b7100000000000000000000000000000000000000000000000000000000\n        /* \"#utility.yul\":1846:1847   */\n      0x00\n        /* \"#utility.yul\":1839:1927   */\n      mstore\n        /* \"#utility.yul\":1946:1950   */\n      0x12\n        /* \"#utility.yul\":1943:1944   */\n      0x04\n        /* \"#utility.yul\":1936:1951   */\n      mstore\n        /* \"#utility.yul\":1970:1974   */\n      0x24\n        /* \"#utility.yul\":1967:1968   */\n      0x00\n        /* \"#utility.yul\":1960:1975   */\n      revert\n        /* \"#utility.yul\":2110:2227   */\n    tag_32:\n        /* \"#utility.yul\":2219:2220   */\n      0x00\n        /* \"#utility.yul\":2216:2217   */\n      dup1\n        /* \"#utility.yul\":2209:2221   */\n      revert\n        /* \"#utility.yul\":2233:2355   */\n    tag_28:\n        /* \"#utility.yul\":2306:2330   */\n      tag_65\n        /* \"#utility.yul\":2324:2329   */\n      dup2\n        /* \"#utility.yul\":2306:2330   */\n      tag_37\n      jump\t// in\n    tag_65:\n        /* \"#utility.yul\":2299:2304   */\n      dup2\n        /* \"#utility.yul\":2296:2331   */\n      eq\n        /* \"#utility.yul\":2286:2349   */\n      tag_66\n      jumpi\n        /* \"#utility.yul\":2345:2346   */\n      0x00\n        /* \"#utility.yul\":2342:2343   */\n      dup1\n        /* \"#utility.yul\":2335:2347   */\n      revert\n        /* \"#utility.yul\":2286:2349   */\n    tag_66:\n        /* \"#utility.yul\":2233:2355   */\n      pop\n      jump\t// out\n\n    auxdata: 0xa264697066735822122007a170cdc9b35e2cab1f111d44cafc5cb7f51308a0626f81463a0d1099bab26a64736f6c63430008070033\n}\n",
				"bytecode": {
					"linkReferences": {},
					"object": "608060405234801561001057600080fd5b506102b6806100206000396000f3fe608060405234801561001057600080fd5b506004361061002b5760003560e01c806372e0e98414610030575b600080fd5b61004a600480360381019061004591906100fa565b610060565b6040516100579190610136565b60405180910390f35b60008060008314806100725750600183145b1561007c57600190505b6000600290505b6002846100909190610151565b81116100c657600081856100a491906101d5565b14156100b357600191506100c6565b80806100be9061018c565b915050610083565b5060008114156100da5760019150506100e0565b60009150505b919050565b6000813590506100f481610269565b92915050565b6000602082840312156101105761010f610264565b5b600061011e848285016100e5565b91505092915050565b61013081610182565b82525050565b600060208201905061014b6000830184610127565b92915050565b600061015c82610182565b915061016783610182565b92508261017757610176610235565b5b828204905092915050565b6000819050919050565b600061019782610182565b91507fffffffffffffffffffffffffffffffffffffffffffffffffffffffffffffffff8214156101ca576101c9610206565b5b600182019050919050565b60006101e082610182565b91506101eb83610182565b9250826101fb576101fa610235565b5b828206905092915050565b7f4e487b7100000000000000000000000000000000000000000000000000000000600052601160045260246000fd5b7f4e487b7100000000000000000000000000000000000000000000000000000000600052601260045260246000fd5b600080fd5b61027281610182565b811461027d57600080fd5b5056fea264697066735822122007a170cdc9b35e2cab1f111d44cafc5cb7f51308a0626f81463a0d1099bab26a64736f6c63430008070033",
					"opcodes": "PUSH1 0x80 PUSH1 0x40 MSTORE CALLVALUE DUP1 ISZERO PUSH2 0x10 JUMPI PUSH1 0x0 DUP1 REVERT JUMPDEST POP PUSH2 0x2B6 DUP1 PUSH2 0x20 PUSH1 0x0 CODECOPY PUSH1 0x0 RETURN INVALID PUSH1 0x80 PUSH1 0x40 MSTORE CALLVALUE DUP1 ISZERO PUSH2 0x10 JUMPI PUSH1 0x0 DUP1 REVERT JUMPDEST POP PUSH1 0x4 CALLDATASIZE LT PUSH2 0x2B JUMPI PUSH1 0x0 CALLDATALOAD PUSH1 0xE0 SHR DUP1 PUSH4 0x72E0E984 EQ PUSH2 0x30 JUMPI JUMPDEST PUSH1 0x0 DUP1 REVERT JUMPDEST PUSH2 0x4A PUSH1 0x4 DUP1 CALLDATASIZE SUB DUP2 ADD SWAP1 PUSH2 0x45 SWAP2 SWAP1 PUSH2 0xFA JUMP JUMPDEST PUSH2 0x60 JUMP JUMPDEST PUSH1 0x40 MLOAD PUSH2 0x57 SWAP2 SWAP1 PUSH2 0x136 JUMP JUMPDEST PUSH1 0x40 MLOAD DUP1 SWAP2 SUB SWAP1 RETURN JUMPDEST PUSH1 0x0 DUP1 PUSH1 0x0 DUP4 EQ DUP1 PUSH2 0x72 JUMPI POP PUSH1 0x1 DUP4 EQ JUMPDEST ISZERO PUSH2 0x7C JUMPI PUSH1 0x1 SWAP1 POP JUMPDEST PUSH1 0x0 PUSH1 0x2 SWAP1 POP JUMPDEST PUSH1 0x2 DUP5 PUSH2 0x90 SWAP2 SWAP1 PUSH2 0x151 JUMP JUMPDEST DUP2 GT PUSH2 0xC6 JUMPI PUSH1 0x0 DUP2 DUP6 PUSH2 0xA4 SWAP2 SWAP1 PUSH2 0x1D5 JUMP JUMPDEST EQ ISZERO PUSH2 0xB3 JUMPI PUSH1 0x1 SWAP2 POP PUSH2 0xC6 JUMP JUMPDEST DUP1 DUP1 PUSH2 0xBE SWAP1 PUSH2 0x18C JUMP JUMPDEST SWAP2 POP POP PUSH2 0x83 JUMP JUMPDEST POP PUSH1 0x0 DUP2 EQ ISZERO PUSH2 0xDA JUMPI PUSH1 0x1 SWAP2 POP POP PUSH2 0xE0 JUMP JUMPDEST PUSH1 0x0 SWAP2 POP POP JUMPDEST SWAP2 SWAP1 POP JUMP JUMPDEST PUSH1 0x0 DUP2 CALLDATALOAD SWAP1 POP PUSH2 0xF4 DUP2 PUSH2 0x269 JUMP JUMPDEST SWAP3 SWAP2 POP POP JUMP JUMPDEST PUSH1 0x0 PUSH1 0x20 DUP3 DUP5 SUB SLT ISZERO PUSH2 0x110 JUMPI PUSH2 0x10F PUSH2 0x264 JUMP JUMPDEST JUMPDEST PUSH1 0x0 PUSH2 0x11E DUP5 DUP3 DUP6 ADD PUSH2 0xE5 JUMP JUMPDEST SWAP2 POP POP SWAP3 SWAP2 POP POP JUMP JUMPDEST PUSH2 0x130 DUP2 PUSH2 0x182 JUMP JUMPDEST DUP3 MSTORE POP POP JUMP JUMPDEST PUSH1 0x0 PUSH1 0x20 DUP3 ADD SWAP1 POP PUSH2 0x14B PUSH1 0x0 DUP4 ADD DUP5 PUSH2 0x127 JUMP JUMPDEST SWAP3 SWAP2 POP POP JUMP JUMPDEST PUSH1 0x0 PUSH2 0x15C DUP3 PUSH2 0x182 JUMP JUMPDEST SWAP2 POP PUSH2 0x167 DUP4 PUSH2 0x182 JUMP JUMPDEST SWAP3 POP DUP3 PUSH2 0x177 JUMPI PUSH2 0x176 PUSH2 0x235 JUMP JUMPDEST JUMPDEST DUP3 DUP3 DIV SWAP1 POP SWAP3 SWAP2 POP POP JUMP JUMPDEST PUSH1 0x0 DUP2 SWAP1 POP SWAP2 SWAP1 POP JUMP JUMPDEST PUSH1 0x0 PUSH2 0x197 DUP3 PUSH2 0x182 JUMP JUMPDEST SWAP2 POP PUSH32 0xFFFFFFFFFFFFFFFFFFFFFFFFFFFFFFFFFFFFFFFFFFFFFFFFFFFFFFFFFFFFFFFF DUP3 EQ ISZERO PUSH2 0x1CA JUMPI PUSH2 0x1C9 PUSH2 0x206 JUMP JUMPDEST JUMPDEST PUSH1 0x1 DUP3 ADD SWAP1 POP SWAP2 SWAP1 POP JUMP JUMPDEST PUSH1 0x0 PUSH2 0x1E0 DUP3 PUSH2 0x182 JUMP JUMPDEST SWAP2 POP PUSH2 0x1EB DUP4 PUSH2 0x182 JUMP JUMPDEST SWAP3 POP DUP3 PUSH2 0x1FB JUMPI PUSH2 0x1FA PUSH2 0x235 JUMP JUMPDEST JUMPDEST DUP3 DUP3 MOD SWAP1 POP SWAP3 SWAP2 POP POP JUMP JUMPDEST PUSH32 0x4E487B7100000000000000000000000000000000000000000000000000000000 PUSH1 0x0 MSTORE PUSH1 0x11 PUSH1 0x4 MSTORE PUSH1 0x24 PUSH1 0x0 REVERT JUMPDEST PUSH32 0x4E487B7100000000000000000000000000000000000000000000000000000000 PUSH1 0x0 MSTORE PUSH1 0x12 PUSH1 0x4 MSTORE PUSH1 0x24 PUSH1 0x0 REVERT JUMPDEST PUSH1 0x0 DUP1 REVERT JUMPDEST PUSH2 0x272 DUP2 PUSH2 0x182 JUMP JUMPDEST DUP2 EQ PUSH2 0x27D JUMPI PUSH1 0x0 DUP1 REVERT JUMPDEST POP JUMP INVALID LOG2 PUSH5 0x6970667358 0x22 SLT KECCAK256 SMOD LOG1 PUSH17 0xCDC9B35E2CAB1F111D44CAFC5CB7F51308 LOG0 PUSH3 0x6F8146 GASPRICE 0xD LT SWAP10 0xBA 0xB2 PUSH11 0x64736F6C63430008070033 "
				},
				"gasEstimates": {
					"creation": {
						"codeDepositCost": "138800",
						"executionCost": "183",
						"totalCost": "138983"
					},
					"external": {
						"prime(uint256)": "infinite"
					}
				},
				"methodIdentifiers": {
					"prime(uint256)": "72e0e984"
				}
			},
			"storageLayout": {
				"storage": [],
				"types": null
			},
			"userdoc": {
				"kind": "user",
				"methods": {},
				"version": 1
			}
		}
	}
}