{
	"data": {
		"bytecode": {
			"linkReferences": {},
			"object": "608060405234801561001057600080fd5b50610309806100206000396000f3fe608060405234801561001057600080fd5b506004361061002b5760003560e01c806384aced8c14610030575b600080fd5b61004a600480360381019061004591906100e6565b610060565b6040516100579190610122565b60405180910390f35b6000806000808490505b60008511156100b057600a856100809190610228565b925082600a8361009091906101c4565b61009a919061013d565b9150600a856100a99190610193565b945061006a565b818114156100c457600193505050506100cc565b600093505050505b919050565b6000813590506100e0816102bc565b92915050565b6000602082840312156100fc576100fb6102b7565b5b600061010a848285016100d1565b91505092915050565b61011c8161021e565b82525050565b60006020820190506101376000830184610113565b92915050565b60006101488261021e565b91506101538361021e565b9250827fffffffffffffffffffffffffffffffffffffffffffffffffffffffffffffffff0382111561018857610187610259565b5b828201905092915050565b600061019e8261021e565b91506101a98361021e565b9250826101b9576101b8610288565b5b828204905092915050565b60006101cf8261021e565b91506101da8361021e565b9250817fffffffffffffffffffffffffffffffffffffffffffffffffffffffffffffffff048311821515161561021357610212610259565b5b828202905092915050565b6000819050919050565b60006102338261021e565b915061023e8361021e565b92508261024e5761024d610288565b5b828206905092915050565b7f4e487b7100000000000000000000000000000000000000000000000000000000600052601160045260246000fd5b7f4e487b7100000000000000000000000000000000000000000000000000000000600052601260045260246000fd5b600080fd5b6102c58161021e565b81146102d057600080fd5b5056fea264697066735822122007cbb58bcd74c567c9365cabeee7696212752b3fd7ce5db8e7f222eeca85e4b064736f6c63430008070033",
			"opcodes": "PUSH1 0x80 PUSH1 0x40 MSTORE CALLVALUE DUP1 ISZERO PUSH2 0x10 JUMPI PUSH1 0x0 DUP1 REVERT JUMPDEST POP PUSH2 0x309 DUP1 PUSH2 0x20 PUSH1 0x0 CODECOPY PUSH1 0x0 RETURN INVALID PUSH1 0x80 PUSH1 0x40 MSTORE CALLVALUE DUP1 ISZERO PUSH2 0x10 JUMPI PUSH1 0x0 DUP1 REVERT JUMPDEST POP PUSH1 0x4 CALLDATASIZE LT PUSH2 0x2B JUMPI PUSH1 0x0 CALLDATALOAD PUSH1 0xE0 SHR DUP1 PUSH4 0x84ACED8C EQ PUSH2 0x30 JUMPI JUMPDEST PUSH1 0x0 DUP1 REVERT JUMPDEST PUSH2 0x4A PUSH1 0x4 DUP1 CALLDATASIZE SUB DUP2 ADD SWAP1 PUSH2 0x45 SWAP2 SWAP1 PUSH2 0xE6 JUMP JUMPDEST PUSH2 0x60 JUMP JUMPDEST PUSH1 0x40 MLOAD PUSH2 0x57 SWAP2 SWAP1 PUSH2 0x122 JUMP JUMPDEST PUSH1 0x40 MLOAD DUP1 SWAP2 SUB SWAP1 RETURN JUMPDEST PUSH1 0x0 DUP1 PUSH1 0x0 DUP1 DUP5 SWAP1 POP JUMPDEST PUSH1 0x0 DUP6 GT ISZERO PUSH2 0xB0 JUMPI PUSH1 0xA DUP6 PUSH2 0x80 SWAP2 SWAP1 PUSH2 0x228 JUMP JUMPDEST SWAP3 POP DUP3 PUSH1 0xA DUP4 PUSH2 0x90 SWAP2 SWAP1 PUSH2 0x1C4 JUMP JUMPDEST PUSH2 0x9A SWAP2 SWAP1 PUSH2 0x13D JUMP JUMPDEST SWAP2 POP PUSH1 0xA DUP6 PUSH2 0xA9 SWAP2 SWAP1 PUSH2 0x193 JUMP JUMPDEST SWAP5 POP PUSH2 0x6A JUMP JUMPDEST DUP2 DUP2 EQ ISZERO PUSH2 0xC4 JUMPI PUSH1 0x1 SWAP4 POP POP POP POP PUSH2 0xCC JUMP JUMPDEST PUSH1 0x0 SWAP4 POP POP POP POP JUMPDEST SWAP2 SWAP1 POP JUMP JUMPDEST PUSH1 0x0 DUP2 CALLDATALOAD SWAP1 POP PUSH2 0xE0 DUP2 PUSH2 0x2BC JUMP JUMPDEST SWAP3 SWAP2 POP POP JUMP JUMPDEST PUSH1 0x0 PUSH1 0x20 DUP3 DUP5 SUB SLT ISZERO PUSH2 0xFC JUMPI PUSH2 0xFB PUSH2 0x2B7 JUMP JUMPDEST JUMPDEST PUSH1 0x0 PUSH2 0x10A DUP5 DUP3 DUP6 ADD PUSH2 0xD1 JUMP JUMPDEST SWAP2 POP POP SWAP3 SWAP2 POP POP JUMP JUMPDEST PUSH2 0x11C DUP2 PUSH2 0x21E JUMP JUMPDEST DUP3 MSTORE POP POP JUMP JUMPDEST PUSH1 0x0 PUSH1 0x20 DUP3 ADD SWAP1 POP PUSH2 0x137 PUSH1 0x0 DUP4 ADD DUP5 PUSH2 0x113 JUMP JUMPDEST SWAP3 SWAP2 POP POP JUMP JUMPDEST PUSH1 0x0 PUSH2 0x148 DUP3 PUSH2 0x21E JUMP JUMPDEST SWAP2 POP PUSH2 0x153 DUP4 PUSH2 0x21E JUMP JUMPDEST SWAP3 POP DUP3 PUSH32 0xFFFFFFFFFFFFFFFFFFFFFFFFFFFFFFFFFFFFFFFFFFFFFFFFFFFFFFFFFFFFFFFF SUB DUP3 GT ISZERO PUSH2 0x188 JUMPI PUSH2 0x187 PUSH2 0x259 JUMP JUMPDEST JUMPDEST DUP3 DUP3 ADD SWAP1 POP SWAP3 SWAP2 POP POP JUMP JUMPDEST PUSH1 0x0 PUSH2 0x19E DUP3 PUSH2 0x21E JUMP JUMPDEST SWAP2 POP PUSH2 0x1A9 DUP4 PUSH2 0x21E JUMP JUMPDEST SWAP3 POP DUP3 PUSH2 0x1B9 JUMPI PUSH2 0x1B8 PUSH2 0x288 JUMP JUMPDEST JUMPDEST DUP3 DUP3 DIV SWAP1 POP SWAP3 SWAP2 POP POP JUMP JUMPDEST PUSH1 0x0 PUSH2 0x1CF DUP3 PUSH2 0x21E JUMP JUMPDEST SWAP2 POP PUSH2 0x1DA DUP4 PUSH2 0x21E JUMP JUMPDEST SWAP3 POP DUP2 PUSH32 0xFFFFFFFFFFFFFFFFFFFFFFFFFFFFFFFFFFFFFFFFFFFFFFFFFFFFFFFFFFFFFFFF DIV DUP4 GT DUP3 ISZERO ISZERO AND ISZERO PUSH2 0x213 JUMPI PUSH2 0x212 PUSH2 0x259 JUMP JUMPDEST JUMPDEST DUP3 DUP3 MUL SWAP1 POP SWAP3 SWAP2 POP POP JUMP JUMPDEST PUSH1 0x0 DUP2 SWAP1 POP SWAP2 SWAP1 POP JUMP JUMPDEST PUSH1 0x0 PUSH2 0x233 DUP3 PUSH2 0x21E JUMP JUMPDEST SWAP2 POP PUSH2 0x23E DUP4 PUSH2 0x21E JUMP JUMPDEST SWAP3 POP DUP3 PUSH2 0x24E JUMPI PUSH2 0x24D PUSH2 0x288 JUMP JUMPDEST JUMPDEST DUP3 DUP3 MOD SWAP1 POP SWAP3 SWAP2 POP POP JUMP JUMPDEST PUSH32 0x4E487B7100000000000000000000000000000000000000000000000000000000 PUSH1 0x0 MSTORE PUSH1 0x11 PUSH1 0x4 MSTORE PUSH1 0x24 PUSH1 0x0 REVERT JUMPDEST PUSH32 0x4E487B7100000000000000000000000000000000000000000000000000000000 PUSH1 0x0 MSTORE PUSH1 0x12 PUSH1 0x4 MSTORE PUSH1 0x24 PUSH1 0x0 REVERT JUMPDEST PUSH1 0x0 DUP1 REVERT JUMPDEST PUSH2 0x2C5 DUP2 PUSH2 0x21E JUMP JUMPDEST DUP2 EQ PUSH2 0x2D0 JUMPI PUSH1 0x0 DUP1 REVERT JUMPDEST POP JUMP INVALID LOG2 PUSH5 0x6970667358 0x22 SLT KECCAK256 SMOD 0xCB 0xB5 DUP12 0xCD PUSH21 0xC567C9365CABEEE7696212752B3FD7CE5DB8E7F222 0xEE 0xCA DUP6 0xE4 0xB0 PUSH5 0x736F6C6343 STOP ADDMOD SMOD STOP CALLER "
		},
		"gasEstimates": {
			"creation": {
				"codeDepositCost": "155400",
				"executionCost": "202",
				"totalCost": "155602"
			},
			"external": {
				"palindrome(uint256)": "infinite"
			}
		},
		"methodIdentifiers": {
			"palindrome(uint256)": "84aced8c"
		}
	},
	"abi": [
		{
			"inputs": [
				{
					"internalType": "uint256",
					"name": "a",
					"type": "uint256"
				}
			],
			"name": "palindrome",
			"outputs": [
				{
					"internalType": "uint256",
					"name": "",
					"type": "uint256"
				}
			],
			"stateMutability": "pure",
			"type": "function"
		}
	]
}