{
	"data": {
		"bytecode": {
			"linkReferences": {},
			"object": "608060405234801561001057600080fd5b5060e98061001f6000396000f3fe6080604052348015600f57600080fd5b506004361060285760003560e01c806345a12df314602d575b600080fd5b605660048036036020811015604157600080fd5b81019080803590602001909291905050506073565b604051808381526020018281526020019250505060405180910390f35b600080600080600190506000806000600290505b8181101560a35783850192508394508293508060010190506087565b508383955095505050505091509156fea264697066735822122071c626b45090048719aaad5bcdc1e98b46d3e6830d5364c14f65edbd972fd0ca64736f6c63430007060033",
			"opcodes": "PUSH1 0x80 PUSH1 0x40 MSTORE CALLVALUE DUP1 ISZERO PUSH2 0x10 JUMPI PUSH1 0x0 DUP1 REVERT JUMPDEST POP PUSH1 0xE9 DUP1 PUSH2 0x1F PUSH1 0x0 CODECOPY PUSH1 0x0 RETURN INVALID PUSH1 0x80 PUSH1 0x40 MSTORE CALLVALUE DUP1 ISZERO PUSH1 0xF JUMPI PUSH1 0x0 DUP1 REVERT JUMPDEST POP PUSH1 0x4 CALLDATASIZE LT PUSH1 0x28 JUMPI PUSH1 0x0 CALLDATALOAD PUSH1 0xE0 SHR DUP1 PUSH4 0x45A12DF3 EQ PUSH1 0x2D JUMPI JUMPDEST PUSH1 0x0 DUP1 REVERT JUMPDEST PUSH1 0x56 PUSH1 0x4 DUP1 CALLDATASIZE SUB PUSH1 0x20 DUP2 LT ISZERO PUSH1 0x41 JUMPI PUSH1 0x0 DUP1 REVERT JUMPDEST DUP2 ADD SWAP1 DUP1 DUP1 CALLDATALOAD SWAP1 PUSH1 0x20 ADD SWAP1 SWAP3 SWAP2 SWAP1 POP POP POP PUSH1 0x73 JUMP JUMPDEST PUSH1 0x40 MLOAD DUP1 DUP4 DUP2 MSTORE PUSH1 0x20 ADD DUP3 DUP2 MSTORE PUSH1 0x20 ADD SWAP3 POP POP POP PUSH1 0x40 MLOAD DUP1 SWAP2 SUB SWAP1 RETURN JUMPDEST PUSH1 0x0 DUP1 PUSH1 0x0 DUP1 PUSH1 0x1 SWAP1 POP PUSH1 0x0 DUP1 PUSH1 0x0 PUSH1 0x2 SWAP1 POP JUMPDEST DUP2 DUP2 LT ISZERO PUSH1 0xA3 JUMPI DUP4 DUP6 ADD SWAP3 POP DUP4 SWAP5 POP DUP3 SWAP4 POP DUP1 PUSH1 0x1 ADD SWAP1 POP PUSH1 0x87 JUMP JUMPDEST POP DUP4 DUP4 SWAP6 POP SWAP6 POP POP POP POP POP SWAP2 POP SWAP2 JUMP INVALID LOG2 PUSH5 0x6970667358 0x22 SLT KECCAK256 PUSH18 0xC626B45090048719AAAD5BCDC1E98B46D3E6 DUP4 0xD MSTORE8 PUSH5 0xC14F65EDBD SWAP8 0x2F 0xD0 0xCA PUSH5 0x736F6C6343 STOP SMOD MOD STOP CALLER "
		},
		"gasEstimates": {
			"creation": {
				"codeDepositCost": "46600",
				"executionCost": "99",
				"totalCost": "46699"
			},
			"external": {
				"Fibonacci(uint256)": "377"
			}
		},
		"methodIdentifiers": {
			"Fibonacci(uint256)": "45a12df3"
		}
	},
	"abi": [
		{
			"inputs": [
				{
					"internalType": "uint256",
					"name": "a",
					"type": "uint256"
				}
			],
			"name": "Fibonacci",
			"outputs": [
				{
					"internalType": "uint256",
					"name": "",
					"type": "uint256"
				},
				{
					"internalType": "uint256",
					"name": "",
					"type": "uint256"
				}
			],
			"stateMutability": "pure",
			"type": "function"
		}
	]
}