{
	"data": {
		"bytecode": {
			"linkReferences": {},
			"object": "608060405234801561001057600080fd5b506101ad806100206000396000f3fe608060405234801561001057600080fd5b506004361061002b5760003560e01c8063cc1aa01014610030575b600080fd5b61004a600480360381019061004591906100d4565b610060565b6040516100579190610136565b60405180910390f35b6000828411801561007057508184115b1561007d578390506100b8565b828410801561008b57508183115b15610098578290506100b8565b82821180156100a657508184105b156100b3578190506100b8565b600090505b9392505050565b6000813590506100ce81610160565b92915050565b6000806000606084860312156100ed576100ec61015b565b5b60006100fb868287016100bf565b935050602061010c868287016100bf565b925050604061011d868287016100bf565b9150509250925092565b61013081610151565b82525050565b600060208201905061014b6000830184610127565b92915050565b6000819050919050565b600080fd5b61016981610151565b811461017457600080fd5b5056fea264697066735822122090da6f9a0549ba58cc4848786e959c51d74a5b7cc851a0f6dbc00a5787ebdbc264736f6c63430008070033",
			"opcodes": "PUSH1 0x80 PUSH1 0x40 MSTORE CALLVALUE DUP1 ISZERO PUSH2 0x10 JUMPI PUSH1 0x0 DUP1 REVERT JUMPDEST POP PUSH2 0x1AD DUP1 PUSH2 0x20 PUSH1 0x0 CODECOPY PUSH1 0x0 RETURN INVALID PUSH1 0x80 PUSH1 0x40 MSTORE CALLVALUE DUP1 ISZERO PUSH2 0x10 JUMPI PUSH1 0x0 DUP1 REVERT JUMPDEST POP PUSH1 0x4 CALLDATASIZE LT PUSH2 0x2B JUMPI PUSH1 0x0 CALLDATALOAD PUSH1 0xE0 SHR DUP1 PUSH4 0xCC1AA010 EQ PUSH2 0x30 JUMPI JUMPDEST PUSH1 0x0 DUP1 REVERT JUMPDEST PUSH2 0x4A PUSH1 0x4 DUP1 CALLDATASIZE SUB DUP2 ADD SWAP1 PUSH2 0x45 SWAP2 SWAP1 PUSH2 0xD4 JUMP JUMPDEST PUSH2 0x60 JUMP JUMPDEST PUSH1 0x40 MLOAD PUSH2 0x57 SWAP2 SWAP1 PUSH2 0x136 JUMP JUMPDEST PUSH1 0x40 MLOAD DUP1 SWAP2 SUB SWAP1 RETURN JUMPDEST PUSH1 0x0 DUP3 DUP5 GT DUP1 ISZERO PUSH2 0x70 JUMPI POP DUP2 DUP5 GT JUMPDEST ISZERO PUSH2 0x7D JUMPI DUP4 SWAP1 POP PUSH2 0xB8 JUMP JUMPDEST DUP3 DUP5 LT DUP1 ISZERO PUSH2 0x8B JUMPI POP DUP2 DUP4 GT JUMPDEST ISZERO PUSH2 0x98 JUMPI DUP3 SWAP1 POP PUSH2 0xB8 JUMP JUMPDEST DUP3 DUP3 GT DUP1 ISZERO PUSH2 0xA6 JUMPI POP DUP2 DUP5 LT JUMPDEST ISZERO PUSH2 0xB3 JUMPI DUP2 SWAP1 POP PUSH2 0xB8 JUMP JUMPDEST PUSH1 0x0 SWAP1 POP JUMPDEST SWAP4 SWAP3 POP POP POP JUMP JUMPDEST PUSH1 0x0 DUP2 CALLDATALOAD SWAP1 POP PUSH2 0xCE DUP2 PUSH2 0x160 JUMP JUMPDEST SWAP3 SWAP2 POP POP JUMP JUMPDEST PUSH1 0x0 DUP1 PUSH1 0x0 PUSH1 0x60 DUP5 DUP7 SUB SLT ISZERO PUSH2 0xED JUMPI PUSH2 0xEC PUSH2 0x15B JUMP JUMPDEST JUMPDEST PUSH1 0x0 PUSH2 0xFB DUP7 DUP3 DUP8 ADD PUSH2 0xBF JUMP JUMPDEST SWAP4 POP POP PUSH1 0x20 PUSH2 0x10C DUP7 DUP3 DUP8 ADD PUSH2 0xBF JUMP JUMPDEST SWAP3 POP POP PUSH1 0x40 PUSH2 0x11D DUP7 DUP3 DUP8 ADD PUSH2 0xBF JUMP JUMPDEST SWAP2 POP POP SWAP3 POP SWAP3 POP SWAP3 JUMP JUMPDEST PUSH2 0x130 DUP2 PUSH2 0x151 JUMP JUMPDEST DUP3 MSTORE POP POP JUMP JUMPDEST PUSH1 0x0 PUSH1 0x20 DUP3 ADD SWAP1 POP PUSH2 0x14B PUSH1 0x0 DUP4 ADD DUP5 PUSH2 0x127 JUMP JUMPDEST SWAP3 SWAP2 POP POP JUMP JUMPDEST PUSH1 0x0 DUP2 SWAP1 POP SWAP2 SWAP1 POP JUMP JUMPDEST PUSH1 0x0 DUP1 REVERT JUMPDEST PUSH2 0x169 DUP2 PUSH2 0x151 JUMP JUMPDEST DUP2 EQ PUSH2 0x174 JUMPI PUSH1 0x0 DUP1 REVERT JUMPDEST POP JUMP INVALID LOG2 PUSH5 0x6970667358 0x22 SLT KECCAK256 SWAP1 0xDA PUSH16 0x9A0549BA58CC4848786E959C51D74A5B PUSH29 0xC851A0F6DBC00A5787EBDBC264736F6C63430008070033000000000000 "
		},
		"gasEstimates": {
			"creation": {
				"codeDepositCost": "85800",
				"executionCost": "135",
				"totalCost": "85935"
			},
			"external": {
				"nos(uint256,uint256,uint256)": "infinite"
			}
		},
		"methodIdentifiers": {
			"nos(uint256,uint256,uint256)": "cc1aa010"
		}
	},
	"abi": [
		{
			"inputs": [
				{
					"internalType": "uint256",
					"name": "a",
					"type": "uint256"
				},
				{
					"internalType": "uint256",
					"name": "b",
					"type": "uint256"
				},
				{
					"internalType": "uint256",
					"name": "c",
					"type": "uint256"
				}
			],
			"name": "nos",
			"outputs": [
				{
					"internalType": "uint256",
					"name": "",
					"type": "uint256"
				}
			],
			"stateMutability": "pure",
			"type": "function"
		}
	]
}